{"abi":[{"type":"constructor","inputs":[{"name":"_governor","type":"address","internalType":"address"}],"stateMutability":"nonpayable"},{"type":"receive","stateMutability":"payable"},{"type":"function","name":"initialAttackOption","inputs":[],"outputs":[],"stateMutability":"nonpayable"},{"type":"function","name":"initialAttackStandard","inputs":[],"outputs":[],"stateMutability":"nonpayable"},{"type":"function","name":"onERC721Received","inputs":[{"name":"","type":"address","internalType":"address"},{"name":"","type":"address","internalType":"address"},{"name":"","type":"uint256","internalType":"uint256"},{"name":"","type":"bytes","internalType":"bytes"}],"outputs":[{"name":"","type":"bytes4","internalType":"bytes4"}],"stateMutability":"nonpayable"},{"type":"function","name":"setAttackParamsOption","inputs":[{"name":"proposalId","type":"uint256","internalType":"uint256"},{"name":"optionIndex","type":"uint8","internalType":"uint8"}],"outputs":[],"stateMutability":"nonpayable"},{"type":"function","name":"setAttackParamsStandard","inputs":[{"name":"proposalId","type":"uint256","internalType":"uint256"},{"name":"support","type":"uint8","internalType":"uint8"}],"outputs":[],"stateMutability":"nonpayable"}],"bytecode":{"object":"0x608034607d57601f61052238819003918201601f19168301916001600160401b03831184841017608157808492602094604052833981010312607d57516001600160a01b03811690819003607d576002805464ffffff0000191690555f80546001600160a01b03191691909117905560405161048c90816100968239f35b5f80fd5b634e487b7160e01b5f52604160045260245ffdfe6080806040526004361015610024575b50361561001a575f80fd5b61002261030e565b005b5f905f3560e01c908163150b7a02146101f3575080636a70fe0f1461015d578063a68791da1461012a578063ccec2599146100985763cf9e48f00361000f573461009557610071366102ee565b906001556201000060ff63ff00000019921662ff00ff196002541617171660025580f35b80fd5b5034610095578060031936011261009557806002546201000063ffff00001982161760025560018060a01b0382541660015491813b1561012557604051630acf027160e31b8152600481019390935260ff16602483015282908290604490829084905af1801561011a576101095750f35b81610113916102cc565b6100955780f35b6040513d84823e3d90fd5b505050fd5b503461009557630100000061013e366102ee565b9060015561ff006002549160081b169063ffffff001916171760025580f35b50346101ef575f3660031901126101ef57630100000063ffff00001960025416178060025560018060a01b035f541690600154823b156101ef5760405163d28bc96560e01b8152600481019190915260089190911c60ff166024820152905f9082908183816044810103925af180156101e4576101d8575080f35b61002291505f906102cc565b6040513d5f823e3d90fd5b5f80fd5b346101ef5760803660031901126101ef5761020c6102a0565b506102156102b6565b5060643567ffffffffffffffff81116101ef57366023820112156101ef57806004013567ffffffffffffffff811161028c5761025b601f8201601f1916602001846102cc565b80835236602482840101116101ef575f928160246020940184830137010152604051630a85bd0160e11b8152602090f35b634e487b7160e01b5f52604160045260245ffd5b600435906001600160a01b03821682036101ef57565b602435906001600160a01b03821682036101ef57565b90601f8019910116810190811067ffffffffffffffff82111761028c57604052565b60409060031901126101ef576004359060243560ff811681036101ef5790565b6002545f9060ff8160201c166104525760ff64010000000064ff00000000198316178060025560101c166103e4575b5060025460ff8160181c1661035f575b505064ff000000001960025416600255565b60018060a01b03825416600160ff81549360081c16019160ff83116103d057813b156103cc5760405163d28bc96560e01b8152600481019190915260ff92909216602483015282908290604490829084905af11561034d576103c28280926102cc565b610095578061034d565b8380fd5b634e487b7160e01b84526011600452602484fd5b5f54600180546001600160a01b03929092169260ff160361044b575f5b823b156101ef57604051630acf027160e31b8152600481019290925260ff166024820152905f908290604490829084905af11561033d5761044491505f906102cc565b5f5f61033d565b6001610401565b505056fea264697066735822122084b00493794aadcaaf4a426dd1a0068bd5759f3187116239cd9d48f3484fbff764736f6c634300081c0033","linkReferences":{}},"methodIdentifiers":{"initialAttackOption()":"6a70fe0f","initialAttackStandard()":"ccec2599","onERC721Received(address,address,uint256,bytes)":"150b7a02","setAttackParamsOption(uint256,uint8)":"a68791da","setAttackParamsStandard(uint256,uint8)":"cf9e48f0"},"id":82}