{"abi":[{"type":"constructor","inputs":[{"name":"_token","type":"address","internalType":"contract IVotes"},{"name":"_timelock","type":"address","internalType":"contract TimelockController"},{"name":"_name","type":"string","internalType":"string"}],"stateMutability":"nonpayable"},{"type":"receive","stateMutability":"payable"},{"type":"function","name":"BALLOT_TYPEHASH","inputs":[],"outputs":[{"name":"","type":"bytes32","internalType":"bytes32"}],"stateMutability":"view"},{"type":"function","name":"CLOCK_MODE","inputs":[],"outputs":[{"name":"","type":"string","internalType":"string"}],"stateMutability":"view"},{"type":"function","name":"COUNTING_MODE","inputs":[],"outputs":[{"name":"","type":"string","internalType":"string"}],"stateMutability":"pure"},{"type":"function","name":"EXTENDED_BALLOT_TYPEHASH","inputs":[],"outputs":[{"name":"","type":"bytes32","internalType":"bytes32"}],"stateMutability":"view"},{"type":"function","name":"MAX_OPTIONS","inputs":[],"outputs":[{"name":"","type":"uint8","internalType":"uint8"}],"stateMutability":"view"},{"type":"function","name":"MIN_OPTIONS","inputs":[],"outputs":[{"name":"","type":"uint8","internalType":"uint8"}],"stateMutability":"view"},{"type":"function","name":"cancel","inputs":[{"name":"targets","type":"address[]","internalType":"address[]"},{"name":"values","type":"uint256[]","internalType":"uint256[]"},{"name":"calldatas","type":"bytes[]","internalType":"bytes[]"},{"name":"descriptionHash","type":"bytes32","internalType":"bytes32"}],"outputs":[{"name":"","type":"uint256","internalType":"uint256"}],"stateMutability":"nonpayable"},{"type":"function","name":"castVote","inputs":[{"name":"proposalId","type":"uint256","internalType":"uint256"},{"name":"support","type":"uint8","internalType":"uint8"}],"outputs":[{"name":"","type":"uint256","internalType":"uint256"}],"stateMutability":"nonpayable"},{"type":"function","name":"castVoteBySig","inputs":[{"name":"proposalId","type":"uint256","internalType":"uint256"},{"name":"support","type":"uint8","internalType":"uint8"},{"name":"voter","type":"address","internalType":"address"},{"name":"signature","type":"bytes","internalType":"bytes"}],"outputs":[{"name":"","type":"uint256","internalType":"uint256"}],"stateMutability":"nonpayable"},{"type":"function","name":"castVoteWithOption","inputs":[{"name":"proposalId","type":"uint256","internalType":"uint256"},{"name":"optionIndex","type":"uint8","internalType":"uint8"}],"outputs":[{"name":"balance","type":"uint256","internalType":"uint256"}],"stateMutability":"nonpayable"},{"type":"function","name":"castVoteWithReason","inputs":[{"name":"proposalId","type":"uint256","internalType":"uint256"},{"name":"support","type":"uint8","internalType":"uint8"},{"name":"reason","type":"string","internalType":"string"}],"outputs":[{"name":"","type":"uint256","internalType":"uint256"}],"stateMutability":"nonpayable"},{"type":"function","name":"castVoteWithReasonAndParams","inputs":[{"name":"proposalId","type":"uint256","internalType":"uint256"},{"name":"support","type":"uint8","internalType":"uint8"},{"name":"reason","type":"string","internalType":"string"},{"name":"params","type":"bytes","internalType":"bytes"}],"outputs":[{"name":"","type":"uint256","internalType":"uint256"}],"stateMutability":"nonpayable"},{"type":"function","name":"castVoteWithReasonAndParamsBySig","inputs":[{"name":"proposalId","type":"uint256","internalType":"uint256"},{"name":"support","type":"uint8","internalType":"uint8"},{"name":"voter","type":"address","internalType":"address"},{"name":"reason","type":"string","internalType":"string"},{"name":"params","type":"bytes","internalType":"bytes"},{"name":"signature","type":"bytes","internalType":"bytes"}],"outputs":[{"name":"","type":"uint256","internalType":"uint256"}],"stateMutability":"nonpayable"},{"type":"function","name":"clock","inputs":[],"outputs":[{"name":"","type":"uint48","internalType":"uint48"}],"stateMutability":"view"},{"type":"function","name":"eip712Domain","inputs":[],"outputs":[{"name":"fields","type":"bytes1","internalType":"bytes1"},{"name":"name","type":"string","internalType":"string"},{"name":"version","type":"string","internalType":"string"},{"name":"chainId","type":"uint256","internalType":"uint256"},{"name":"verifyingContract","type":"address","internalType":"address"},{"name":"salt","type":"bytes32","internalType":"bytes32"},{"name":"extensions","type":"uint256[]","internalType":"uint256[]"}],"stateMutability":"view"},{"type":"function","name":"execute","inputs":[{"name":"targets","type":"address[]","internalType":"address[]"},{"name":"values","type":"uint256[]","internalType":"uint256[]"},{"name":"calldatas","type":"bytes[]","internalType":"bytes[]"},{"name":"descriptionHash","type":"bytes32","internalType":"bytes32"}],"outputs":[{"name":"","type":"uint256","internalType":"uint256"}],"stateMutability":"payable"},{"type":"function","name":"getVotes","inputs":[{"name":"account","type":"address","internalType":"address"},{"name":"blockNumber","type":"uint256","internalType":"uint256"}],"outputs":[{"name":"","type":"uint256","internalType":"uint256"}],"stateMutability":"view"},{"type":"function","name":"getVotesWithParams","inputs":[{"name":"account","type":"address","internalType":"address"},{"name":"timepoint","type":"uint256","internalType":"uint256"},{"name":"params","type":"bytes","internalType":"bytes"}],"outputs":[{"name":"","type":"uint256","internalType":"uint256"}],"stateMutability":"view"},{"type":"function","name":"hasVoted","inputs":[{"name":"proposalId","type":"uint256","internalType":"uint256"},{"name":"account","type":"address","internalType":"address"}],"outputs":[{"name":"","type":"bool","internalType":"bool"}],"stateMutability":"view"},{"type":"function","name":"hashProposal","inputs":[{"name":"targets","type":"address[]","internalType":"address[]"},{"name":"values","type":"uint256[]","internalType":"uint256[]"},{"name":"calldatas","type":"bytes[]","internalType":"bytes[]"},{"name":"descriptionHash","type":"bytes32","internalType":"bytes32"}],"outputs":[{"name":"","type":"uint256","internalType":"uint256"}],"stateMutability":"pure"},{"type":"function","name":"name","inputs":[],"outputs":[{"name":"","type":"string","internalType":"string"}],"stateMutability":"view"},{"type":"function","name":"nonces","inputs":[{"name":"owner","type":"address","internalType":"address"}],"outputs":[{"name":"","type":"uint256","internalType":"uint256"}],"stateMutability":"view"},{"type":"function","name":"onERC1155BatchReceived","inputs":[{"name":"","type":"address","internalType":"address"},{"name":"","type":"address","internalType":"address"},{"name":"","type":"uint256[]","internalType":"uint256[]"},{"name":"","type":"uint256[]","internalType":"uint256[]"},{"name":"","type":"bytes","internalType":"bytes"}],"outputs":[{"name":"","type":"bytes4","internalType":"bytes4"}],"stateMutability":"nonpayable"},{"type":"function","name":"onERC1155Received","inputs":[{"name":"","type":"address","internalType":"address"},{"name":"","type":"address","internalType":"address"},{"name":"","type":"uint256","internalType":"uint256"},{"name":"","type":"uint256","internalType":"uint256"},{"name":"","type":"bytes","internalType":"bytes"}],"outputs":[{"name":"","type":"bytes4","internalType":"bytes4"}],"stateMutability":"nonpayable"},{"type":"function","name":"onERC721Received","inputs":[{"name":"","type":"address","internalType":"address"},{"name":"","type":"address","internalType":"address"},{"name":"","type":"uint256","internalType":"uint256"},{"name":"","type":"bytes","internalType":"bytes"}],"outputs":[{"name":"","type":"bytes4","internalType":"bytes4"}],"stateMutability":"nonpayable"},{"type":"function","name":"proposalAllVotes","inputs":[{"name":"proposalId","type":"uint256","internalType":"uint256"}],"outputs":[{"name":"allVotes","type":"uint256[]","internalType":"uint256[]"}],"stateMutability":"view"},{"type":"function","name":"proposalDeadline","inputs":[{"name":"proposalId","type":"uint256","internalType":"uint256"}],"outputs":[{"name":"","type":"uint256","internalType":"uint256"}],"stateMutability":"view"},{"type":"function","name":"proposalEta","inputs":[{"name":"proposalId","type":"uint256","internalType":"uint256"}],"outputs":[{"name":"","type":"uint256","internalType":"uint256"}],"stateMutability":"view"},{"type":"function","name":"proposalNeedsQueuing","inputs":[{"name":"proposalId","type":"uint256","internalType":"uint256"}],"outputs":[{"name":"","type":"bool","internalType":"bool"}],"stateMutability":"view"},{"type":"function","name":"proposalOptionVotes","inputs":[{"name":"proposalId","type":"uint256","internalType":"uint256"},{"name":"optionIndex","type":"uint8","internalType":"uint8"}],"outputs":[{"name":"optionVotes","type":"uint256","internalType":"uint256"}],"stateMutability":"view"},{"type":"function","name":"proposalOptions","inputs":[{"name":"proposalId","type":"uint256","internalType":"uint256"}],"outputs":[{"name":"options","type":"string[]","internalType":"string[]"},{"name":"optionCount","type":"uint8","internalType":"uint8"}],"stateMutability":"view"},{"type":"function","name":"proposalProposer","inputs":[{"name":"proposalId","type":"uint256","internalType":"uint256"}],"outputs":[{"name":"","type":"address","internalType":"address"}],"stateMutability":"view"},{"type":"function","name":"proposalSnapshot","inputs":[{"name":"proposalId","type":"uint256","internalType":"uint256"}],"outputs":[{"name":"","type":"uint256","internalType":"uint256"}],"stateMutability":"view"},{"type":"function","name":"proposalThreshold","inputs":[],"outputs":[{"name":"","type":"uint256","internalType":"uint256"}],"stateMutability":"view"},{"type":"function","name":"proposalVotes","inputs":[{"name":"proposalId","type":"uint256","internalType":"uint256"}],"outputs":[{"name":"againstVotes","type":"uint256","internalType":"uint256"},{"name":"forVotes","type":"uint256","internalType":"uint256"},{"name":"abstainVotes","type":"uint256","internalType":"uint256"}],"stateMutability":"view"},{"type":"function","name":"propose","inputs":[{"name":"targets","type":"address[]","internalType":"address[]"},{"name":"values","type":"uint256[]","internalType":"uint256[]"},{"name":"calldatas","type":"bytes[]","internalType":"bytes[]"},{"name":"description","type":"string","internalType":"string"},{"name":"options","type":"string[]","internalType":"string[]"}],"outputs":[{"name":"proposalId","type":"uint256","internalType":"uint256"}],"stateMutability":"nonpayable"},{"type":"function","name":"propose","inputs":[{"name":"targets","type":"address[]","internalType":"address[]"},{"name":"values","type":"uint256[]","internalType":"uint256[]"},{"name":"calldatas","type":"bytes[]","internalType":"bytes[]"},{"name":"description","type":"string","internalType":"string"}],"outputs":[{"name":"proposalId","type":"uint256","internalType":"uint256"}],"stateMutability":"nonpayable"},{"type":"function","name":"queue","inputs":[{"name":"targets","type":"address[]","internalType":"address[]"},{"name":"values","type":"uint256[]","internalType":"uint256[]"},{"name":"calldatas","type":"bytes[]","internalType":"bytes[]"},{"name":"descriptionHash","type":"bytes32","internalType":"bytes32"}],"outputs":[{"name":"","type":"uint256","internalType":"uint256"}],"stateMutability":"nonpayable"},{"type":"function","name":"quorum","inputs":[{"name":"blockNumber","type":"uint256","internalType":"uint256"}],"outputs":[{"name":"","type":"uint256","internalType":"uint256"}],"stateMutability":"view"},{"type":"function","name":"quorumDenominator","inputs":[],"outputs":[{"name":"","type":"uint256","internalType":"uint256"}],"stateMutability":"view"},{"type":"function","name":"quorumNumerator","inputs":[{"name":"timepoint","type":"uint256","internalType":"uint256"}],"outputs":[{"name":"","type":"uint256","internalType":"uint256"}],"stateMutability":"view"},{"type":"function","name":"quorumNumerator","inputs":[],"outputs":[{"name":"","type":"uint256","internalType":"uint256"}],"stateMutability":"view"},{"type":"function","name":"relay","inputs":[{"name":"target","type":"address","internalType":"address"},{"name":"value","type":"uint256","internalType":"uint256"},{"name":"data","type":"bytes","internalType":"bytes"}],"outputs":[],"stateMutability":"payable"},{"type":"function","name":"setProposalThreshold","inputs":[{"name":"newProposalThreshold","type":"uint256","internalType":"uint256"}],"outputs":[],"stateMutability":"nonpayable"},{"type":"function","name":"setVotingDelay","inputs":[{"name":"newVotingDelay","type":"uint48","internalType":"uint48"}],"outputs":[],"stateMutability":"nonpayable"},{"type":"function","name":"setVotingPeriod","inputs":[{"name":"newVotingPeriod","type":"uint32","internalType":"uint32"}],"outputs":[],"stateMutability":"nonpayable"},{"type":"function","name":"state","inputs":[{"name":"proposalId","type":"uint256","internalType":"uint256"}],"outputs":[{"name":"","type":"uint8","internalType":"enum IGovernor.ProposalState"}],"stateMutability":"view"},{"type":"function","name":"supportsInterface","inputs":[{"name":"interfaceId","type":"bytes4","internalType":"bytes4"}],"outputs":[{"name":"","type":"bool","internalType":"bool"}],"stateMutability":"view"},{"type":"function","name":"timelock","inputs":[],"outputs":[{"name":"","type":"address","internalType":"address"}],"stateMutability":"view"},{"type":"function","name":"token","inputs":[],"outputs":[{"name":"","type":"address","internalType":"contract IERC5805"}],"stateMutability":"view"},{"type":"function","name":"updateQuorumNumerator","inputs":[{"name":"newQuorumNumerator","type":"uint256","internalType":"uint256"}],"outputs":[],"stateMutability":"nonpayable"},{"type":"function","name":"updateTimelock","inputs":[{"name":"newTimelock","type":"address","internalType":"contract TimelockController"}],"outputs":[],"stateMutability":"nonpayable"},{"type":"function","name":"version","inputs":[],"outputs":[{"name":"","type":"string","internalType":"string"}],"stateMutability":"view"},{"type":"function","name":"votingDelay","inputs":[],"outputs":[{"name":"","type":"uint256","internalType":"uint256"}],"stateMutability":"view"},{"type":"function","name":"votingPeriod","inputs":[],"outputs":[{"name":"","type":"uint256","internalType":"uint256"}],"stateMutability":"view"},{"type":"event","name":"EIP712DomainChanged","inputs":[],"anonymous":false},{"type":"event","name":"ProposalCanceled","inputs":[{"name":"proposalId","type":"uint256","indexed":false,"internalType":"uint256"}],"anonymous":false},{"type":"event","name":"ProposalCreated","inputs":[{"name":"proposalId","type":"uint256","indexed":false,"internalType":"uint256"},{"name":"proposer","type":"address","indexed":false,"internalType":"address"},{"name":"targets","type":"address[]","indexed":false,"internalType":"address[]"},{"name":"values","type":"uint256[]","indexed":false,"internalType":"uint256[]"},{"name":"signatures","type":"string[]","indexed":false,"internalType":"string[]"},{"name":"calldatas","type":"bytes[]","indexed":false,"internalType":"bytes[]"},{"name":"voteStart","type":"uint256","indexed":false,"internalType":"uint256"},{"name":"voteEnd","type":"uint256","indexed":false,"internalType":"uint256"},{"name":"description","type":"string","indexed":false,"internalType":"string"}],"anonymous":false},{"type":"event","name":"ProposalExecuted","inputs":[{"name":"proposalId","type":"uint256","indexed":false,"internalType":"uint256"}],"anonymous":false},{"type":"event","name":"ProposalOptionsCreated","inputs":[{"name":"proposalId","type":"uint256","indexed":false,"internalType":"uint256"},{"name":"options","type":"string[]","indexed":false,"internalType":"string[]"}],"anonymous":false},{"type":"event","name":"ProposalQueued","inputs":[{"name":"proposalId","type":"uint256","indexed":false,"internalType":"uint256"},{"name":"etaSeconds","type":"uint256","indexed":false,"internalType":"uint256"}],"anonymous":false},{"type":"event","name":"ProposalThresholdSet","inputs":[{"name":"oldProposalThreshold","type":"uint256","indexed":false,"internalType":"uint256"},{"name":"newProposalThreshold","type":"uint256","indexed":false,"internalType":"uint256"}],"anonymous":false},{"type":"event","name":"QuorumNumeratorUpdated","inputs":[{"name":"oldQuorumNumerator","type":"uint256","indexed":false,"internalType":"uint256"},{"name":"newQuorumNumerator","type":"uint256","indexed":false,"internalType":"uint256"}],"anonymous":false},{"type":"event","name":"TimelockChange","inputs":[{"name":"oldTimelock","type":"address","indexed":false,"internalType":"address"},{"name":"newTimelock","type":"address","indexed":false,"internalType":"address"}],"anonymous":false},{"type":"event","name":"VoteCast","inputs":[{"name":"voter","type":"address","indexed":true,"internalType":"address"},{"name":"proposalId","type":"uint256","indexed":false,"internalType":"uint256"},{"name":"support","type":"uint8","indexed":false,"internalType":"uint8"},{"name":"weight","type":"uint256","indexed":false,"internalType":"uint256"},{"name":"reason","type":"string","indexed":false,"internalType":"string"}],"anonymous":false},{"type":"event","name":"VoteCastWithParams","inputs":[{"name":"voter","type":"address","indexed":true,"internalType":"address"},{"name":"proposalId","type":"uint256","indexed":false,"internalType":"uint256"},{"name":"support","type":"uint8","indexed":false,"internalType":"uint8"},{"name":"weight","type":"uint256","indexed":false,"internalType":"uint256"},{"name":"reason","type":"string","indexed":false,"internalType":"string"},{"name":"params","type":"bytes","indexed":false,"internalType":"bytes"}],"anonymous":false},{"type":"event","name":"VotingDelaySet","inputs":[{"name":"oldVotingDelay","type":"uint256","indexed":false,"internalType":"uint256"},{"name":"newVotingDelay","type":"uint256","indexed":false,"internalType":"uint256"}],"anonymous":false},{"type":"event","name":"VotingPeriodSet","inputs":[{"name":"oldVotingPeriod","type":"uint256","indexed":false,"internalType":"uint256"},{"name":"newVotingPeriod","type":"uint256","indexed":false,"internalType":"uint256"}],"anonymous":false},{"type":"error","name":"CheckpointUnorderedInsertion","inputs":[]},{"type":"error","name":"FailedCall","inputs":[]},{"type":"error","name":"GovernorAlreadyCastVote","inputs":[{"name":"voter","type":"address","internalType":"address"}]},{"type":"error","name":"GovernorAlreadyQueuedProposal","inputs":[{"name":"proposalId","type":"uint256","internalType":"uint256"}]},{"type":"error","name":"GovernorDisabledDeposit","inputs":[]},{"type":"error","name":"GovernorInsufficientProposerVotes","inputs":[{"name":"proposer","type":"address","internalType":"address"},{"name":"votes","type":"uint256","internalType":"uint256"},{"name":"threshold","type":"uint256","internalType":"uint256"}]},{"type":"error","name":"GovernorInvalidProposalLength","inputs":[{"name":"targets","type":"uint256","internalType":"uint256"},{"name":"calldatas","type":"uint256","internalType":"uint256"},{"name":"values","type":"uint256","internalType":"uint256"}]},{"type":"error","name":"GovernorInvalidQuorumFraction","inputs":[{"name":"quorumNumerator","type":"uint256","internalType":"uint256"},{"name":"quorumDenominator","type":"uint256","internalType":"uint256"}]},{"type":"error","name":"GovernorInvalidSignature","inputs":[{"name":"voter","type":"address","internalType":"address"}]},{"type":"error","name":"GovernorInvalidVoteParams","inputs":[]},{"type":"error","name":"GovernorInvalidVoteType","inputs":[]},{"type":"error","name":"GovernorInvalidVotingPeriod","inputs":[{"name":"votingPeriod","type":"uint256","internalType":"uint256"}]},{"type":"error","name":"GovernorNonexistentProposal","inputs":[{"name":"proposalId","type":"uint256","internalType":"uint256"}]},{"type":"error","name":"GovernorNotQueuedProposal","inputs":[{"name":"proposalId","type":"uint256","internalType":"uint256"}]},{"type":"error","name":"GovernorOnlyExecutor","inputs":[{"name":"account","type":"address","internalType":"address"}]},{"type":"error","name":"GovernorOnlyProposer","inputs":[{"name":"account","type":"address","internalType":"address"}]},{"type":"error","name":"GovernorQueueNotImplemented","inputs":[]},{"type":"error","name":"GovernorRestrictedProposer","inputs":[{"name":"proposer","type":"address","internalType":"address"}]},{"type":"error","name":"GovernorUnexpectedProposalState","inputs":[{"name":"proposalId","type":"uint256","internalType":"uint256"},{"name":"current","type":"uint8","internalType":"enum IGovernor.ProposalState"},{"name":"expectedStates","type":"bytes32","internalType":"bytes32"}]},{"type":"error","name":"InvalidAccountNonce","inputs":[{"name":"account","type":"address","internalType":"address"},{"name":"currentNonce","type":"uint256","internalType":"uint256"}]},{"type":"error","name":"InvalidShortString","inputs":[]},{"type":"error","name":"SafeCastOverflowedUintDowncast","inputs":[{"name":"bits","type":"uint8","internalType":"uint8"},{"name":"value","type":"uint256","internalType":"uint256"}]},{"type":"error","name":"StringTooLong","inputs":[{"name":"str","type":"string","internalType":"string"}]}],"bytecode":{"object":"0x610180604052348015610010575f5ffd5b506040516158e93803806158e983398101604081905261002f91610702565b816004846001825f86806100576040805180820190915260018152603160f81b602082015290565b610061825f61015b565b6101205261007081600161015b565b61014052815160208084019190912060e052815190820120610100524660a0526100fc60e05161010051604080517f8b73c3c69bb8fe3d512ecc4cf759cc79239f7b179b0ffacaa9a75d522b39400f60208201529081019290925260608201524660808201523060a08201525f9060c00160405160208183030381529060405280519060200120905090565b60805250503060c0526003610111828261085c565b5061011d90508361018d565b610126826101f3565b61012f81610297565b5050506001600160a01b031661016052610148816102d8565b506101528161036d565b505050506109b2565b5f6020835110156101765761016f836103d6565b9050610187565b81610181848261085c565b5060ff90505b92915050565b6008546040805165ffffffffffff928316815291831660208301527fc565b045403dc03c2eea82b81a0465edad9e2e7fc4d97e11421c209da93d7a93910160405180910390a16008805465ffffffffffff191665ffffffffffff92909216919091179055565b8063ffffffff165f036102205760405163f1cfbf0560e01b81525f60048201526024015b60405180910390fd5b6008546040805163ffffffff66010000000000009093048316815291831660208301527f7e3f7f0708a84de9203036abaa450dccc85ad5ff52f78c170f3edb55cf5e8828910160405180910390a16008805463ffffffff90921666010000000000000263ffffffff60301b19909216919091179055565b60075460408051918252602082018390527fccb45da8d5717e6c4544694297c4ba5cf151d455c9bb0ed4fc7a38411bc05461910160405180910390a1600755565b6064808211156103055760405163243e544560e01b81526004810183905260248101829052604401610217565b5f61030e610413565b905061032d61031b61042c565b610324856104a6565b600a91906104dd565b505060408051828152602081018590527f0553476bf02ef2726e8ce5ced78d63e26e602e4a2257b1f559418e24b4633997910160405180910390a1505050565b600b54604080516001600160a01b03928316815291831660208301527f08f74ea46ef7894f65eabfb5e6e695de773a000b47c529ab559178069b226401910160405180910390a1600b80546001600160a01b0319166001600160a01b0392909216919091179055565b5f5f829050601f81511115610400578260405163305a27a960e01b81526004016102179190610916565b805161040b8261094b565b179392505050565b5f61041e600a6104f7565b6001600160d01b0316905090565b5f6104376101605190565b6001600160a01b03166391ddadf46040518163ffffffff1660e01b8152600401602060405180830381865afa925050508015610490575060408051601f3d908101601f1916820190925261048d9181019061096e565b60015b6104a15761049c61053f565b905090565b919050565b5f6001600160d01b038211156104d9576040516306dfcc6560e41b815260d0600482015260248101839052604401610217565b5090565b5f806104ea858585610549565b915091505b935093915050565b80545f9080156105365761051d83610510600184610993565b5f91825260209091200190565b54660100000000000090046001600160d01b0316610538565b5f5b9392505050565b5f61049c436106a5565b82545f9081908015610648575f61056587610510600185610993565b805490915065ffffffffffff80821691660100000000000090046001600160d01b03169088168211156105ab57604051632520601d60e01b815260040160405180910390fd5b8765ffffffffffff168265ffffffffffff16036105e757825465ffffffffffff1666010000000000006001600160d01b0389160217835561063a565b6040805180820190915265ffffffffffff808a1682526001600160d01b03808a1660208085019182528d54600181018f555f8f815291909120945191519092166601000000000000029216919091179101555b94508593506104ef92505050565b50506040805180820190915265ffffffffffff80851682526001600160d01b0380851660208085019182528854600181018a555f8a81529182209551925190931666010000000000000291909316179201919091559050816104ef565b5f65ffffffffffff8211156104d9576040516306dfcc6560e41b81526030600482015260248101839052604401610217565b6001600160a01b03811681146106eb575f5ffd5b50565b634e487b7160e01b5f52604160045260245ffd5b5f5f5f60608486031215610714575f5ffd5b835161071f816106d7565b6020850151909350610730816106d7565b60408501519092506001600160401b0381111561074b575f5ffd5b8401601f8101861361075b575f5ffd5b80516001600160401b03811115610774576107746106ee565b604051601f8201601f19908116603f011681016001600160401b03811182821017156107a2576107a26106ee565b6040528181528282016020018810156107b9575f5ffd5b8160208401602083015e5f602083830101528093505050509250925092565b600181811c908216806107ec57607f821691505b60208210810361080a57634e487b7160e01b5f52602260045260245ffd5b50919050565b601f82111561085757805f5260205f20601f840160051c810160208510156108355750805b601f840160051c820191505b81811015610854575f8155600101610841565b50505b505050565b81516001600160401b03811115610875576108756106ee565b6108898161088384546107d8565b84610810565b6020601f8211600181146108bb575f83156108a45750848201515b5f19600385901b1c1916600184901b178455610854565b5f84815260208120601f198516915b828110156108ea57878501518255602094850194600190920191016108ca565b508482101561090757868401515f19600387901b60f8161c191681555b50505050600190811b01905550565b602081525f82518060208401528060208501604085015e5f604082850101526040601f19601f83011684010191505092915050565b8051602080830151919081101561080a575f1960209190910360031b1b16919050565b5f6020828403121561097e575f5ffd5b815165ffffffffffff81168114610538575f5ffd5b8181038181111561018757634e487b7160e01b5f52601160045260245ffd5b60805160a05160c05160e05161010051610120516101405161016051614ec0610a295f395f8181610b47015281816111f301528181611787015281816123b6015261274d01525f61238301525f61235701525f612d6301525f612d3b01525f612c9601525f612cc001525f612cea0152614ec05ff3fe608060405260043610610344575f3560e01c80637b3c71d3116101bd578063bc197c81116100f2578063deaaa7cc11610092578063ece40cc11161006d578063ece40cc114610adc578063f23a6e6114610afb578063f8ce560a14610b1a578063fc0c546a14610b39575f5ffd5b8063deaaa7cc14610a6b578063e540d01d14610a9e578063eb9019d414610abd575f5ffd5b8063c59057e4116100cd578063c59057e4146109cb578063d28bc965146109ea578063d33219b414610a09578063dd4e2ba514610a26575f5ffd5b8063bc197c811461097a578063c01f9e3714610999578063c28bc2fa146109b8575f5ffd5b80639a802a6d1161015d578063a890c91011610138578063a890c910146108f2578063a9a9529414610911578063ab58fb8e14610930578063b58131b014610966575f5ffd5b80639a802a6d146108a0578063a2b211f3146108bf578063a7713a70146108de575f5ffd5b806384b0196e1161019857806384b0196e1461081c5780638ff262e31461084357806391ddadf41461086257806397c3d3341461088d575f5ffd5b80637b3c71d3146107aa5780637d5e81e2146107c95780637ecebe00146107e8575f5ffd5b80633932abb11161029357806356781388116102335780635f398a141161020e5780635f398a141461073957806360c4247f146107585780636510433414610777578063790518871461078b575f5ffd5b806356781388146106ce5780635b8d0e0d146106ed5780635d7638411461070c575f5ffd5b8063452115d61161026e578063452115d61461061f5780634bf5d7e91461063e578063544ffc9c1461065257806354fd4d50146106a5575f5ffd5b80633932abb1146105975780633e4f49e6146105ab57806343859632146105d7575f5ffd5b8063150b7a02116102fe5780632656227d116102d95780632656227d146105065780632c802865146105195780632d63f693146105455780632fe3e26114610564575f5ffd5b8063150b7a0214610490578063160cbed7146104c85780631d0fbdcb146104e7575f5ffd5b806301ffc9a71461037f57806302a251a3146103b357806306f3f9e6146103de57806306fdde03146103fd5780630da183d61461041e578063143489d014610444575f5ffd5b3661037b5730610352610b6b565b6001600160a01b03161461037957604051637485328f60e11b815260040160405180910390fd5b005b5f5ffd5b34801561038a575f5ffd5b5061039e610399366004613ca1565b610b83565b60405190151581526020015b60405180910390f35b3480156103be575f5ffd5b50600854600160301b900463ffffffff165b6040519081526020016103aa565b3480156103e9575f5ffd5b506103796103f8366004613cc8565b610b93565b348015610408575f5ffd5b50610411610ba7565b6040516103aa9190613d0d565b348015610429575f5ffd5b50610432600a81565b60405160ff90911681526020016103aa565b34801561044f575f5ffd5b5061047861045e366004613cc8565b5f908152600460205260409020546001600160a01b031690565b6040516001600160a01b0390911681526020016103aa565b34801561049b575f5ffd5b506104af6104aa366004613df1565b610c37565b6040516001600160e01b031990911681526020016103aa565b3480156104d3575f5ffd5b506103d06104e2366004613fb7565b610c79565b3480156104f2575f5ffd5b506103d061050136600461404a565b610d45565b6103d0610514366004613fb7565b610e88565b348015610524575f5ffd5b50610538610533366004613cc8565b610ff0565b6040516103aa9190614162565b348015610550575f5ffd5b506103d061055f366004613cc8565b611147565b34801561056f575f5ffd5b506103d07f3e83946653575f9a39005e1545185629e92736b7528ab20ca3816f315424a81181565b3480156105a2575f5ffd5b506103d0611167565b3480156105b6575f5ffd5b506105ca6105c5366004613cc8565b611179565b6040516103aa91906141a8565b3480156105e2575f5ffd5b5061039e6105f13660046141b6565b5f8281526009602090815260408083206001600160a01b038516845260030190915290205460ff1692915050565b34801561062a575f5ffd5b506103d0610639366004613fb7565b611183565b348015610649575f5ffd5b506104116111ef565b34801561065d575f5ffd5b5061068a61066c366004613cc8565b5f908152600960205260409020805460018201546002909201549092565b604080519384526020840192909252908201526060016103aa565b3480156106b0575f5ffd5b506040805180820190915260018152603160f81b6020820152610411565b3480156106d9575f5ffd5b506103d06106e83660046141f4565b6112af565b3480156106f8575f5ffd5b506103d0610707366004614262565b6112d6565b348015610717575f5ffd5b5061072b610726366004613cc8565b611432565b6040516103aa929190614378565b348015610744575f5ffd5b506103d061075336600461439c565b611527565b348015610763575f5ffd5b506103d0610772366004613cc8565b61157a565b348015610782575f5ffd5b50610432600281565b348015610796575f5ffd5b506103796107a5366004614423565b611606565b3480156107b5575f5ffd5b506103d06107c436600461443e565b611617565b3480156107d4575f5ffd5b506103d06107e3366004614493565b61165d565b3480156107f3575f5ffd5b506103d0610802366004614530565b6001600160a01b03165f9081526002602052604090205490565b348015610827575f5ffd5b50610830611673565b6040516103aa979695949392919061454b565b34801561084e575f5ffd5b506103d061085d3660046145ba565b6116b5565b34801561086d575f5ffd5b50610876611784565b60405165ffffffffffff90911681526020016103aa565b348015610898575f5ffd5b5060646103d0565b3480156108ab575f5ffd5b506103d06108ba366004614607565b61180b565b3480156108ca575f5ffd5b506103d06108d93660046141f4565b611821565b3480156108e9575f5ffd5b506103d06118a7565b3480156108fd575f5ffd5b5061037961090c366004614530565b6118c0565b34801561091c575f5ffd5b5061039e61092b366004613cc8565b6118d1565b34801561093b575f5ffd5b506103d061094a366004613cc8565b5f9081526004602052604090206001015465ffffffffffff1690565b348015610971575f5ffd5b506103d06118d9565b348015610985575f5ffd5b506104af61099436600461465b565b6118e3565b3480156109a4575f5ffd5b506103d06109b3366004613cc8565b611926565b6103796109c63660046146f2565b611968565b3480156109d6575f5ffd5b506103d06109e5366004613fb7565b6119e4565b3480156109f5575f5ffd5b506103d0610a043660046141f4565b611a1d565b348015610a14575f5ffd5b50600b546001600160a01b0316610478565b348015610a31575f5ffd5b506040805180820190915260208082527f737570706f72743d627261766f2671756f72756d3d666f722c6162737461696e90820152610411565b348015610a76575f5ffd5b506103d07ff2aad550cf55f045cb27e9c559f9889fdfb6e6cdaa032301d6ea397784ae51d781565b348015610aa9575f5ffd5b50610379610ab8366004614731565b611b2d565b348015610ac8575f5ffd5b506103d0610ad7366004614754565b611b3e565b348015610ae7575f5ffd5b50610379610af6366004613cc8565b611b49565b348015610b06575f5ffd5b506104af610b1536600461477e565b611b5a565b348015610b25575f5ffd5b506103d0610b34366004613cc8565b611b9d565b348015610b44575f5ffd5b507f0000000000000000000000000000000000000000000000000000000000000000610478565b5f610b7e600b546001600160a01b031690565b905090565b5f610b8d82611ba7565b92915050565b610b9b611bf6565b610ba481611c6f565b50565b606060038054610bb6906147d5565b80601f0160208091040260200160405190810160405280929190818152602001828054610be2906147d5565b8015610c2d5780601f10610c0457610100808354040283529160200191610c2d565b820191905f5260205f20905b815481529060010190602001808311610c1057829003601f168201915b5050505050905090565b5f30610c41610b6b565b6001600160a01b031614610c6857604051637485328f60e11b815260040160405180910390fd5b50630a85bd0160e11b949350505050565b5f5f610c87868686866119e4565b9050610c9c81610c976004611d05565b611d27565b505f610cab8288888888611d64565b905065ffffffffffff811615610d22575f82815260046020908152604091829020600101805465ffffffffffff191665ffffffffffff85169081179091558251858152918201527f9a2e42fd6722813d69113e7d0079d3d940171428df7373df9c7f7617cfda2892910160405180910390a1610d3b565b604051634844252360e11b815260040160405180910390fd5b5095945050505050565b80515f906002811015610db05760405162461bcd60e51b815260206004820152602860248201527f476f7665726e6f723a20696e76616c6964206f7074696f6e20636f756e742028604482015267746f6f206665772960c01b60648201526084015b60405180910390fd5b600a811115610e135760405162461bcd60e51b815260206004820152602960248201527f476f7665726e6f723a20696e76616c6964206f7074696f6e20636f756e742028604482015268746f6f206d616e792960b81b6064820152608401610da7565b604051633eaf40f160e11b81523090637d5e81e290610e3c908a908a908a908a90600401614846565b6020604051808303815f875af1158015610e58573d5f5f3e3d5ffd5b505050506040513d601f19601f82011682018060405250810190610e7c9190614892565b9150610d3b8284611d72565b5f5f610e96868686866119e4565b9050610eb681610ea66005611d05565b610eb06004611d05565b17611d27565b505f818152600460205260409020805460ff60f01b1916600160f01b17905530610ede610b6b565b6001600160a01b031614610f67575f5b8651811015610f6557306001600160a01b0316878281518110610f1357610f136148a9565b60200260200101516001600160a01b031603610f5d57610f5d858281518110610f3e57610f3e6148a9565b6020026020010151805190602001206005611dfe90919063ffffffff16565b600101610eee565b505b610f748187878787611e5f565b30610f7d610b6b565b6001600160a01b031614158015610fa957506005546001600160801b03808216600160801b9092041614155b15610fb3575f6005555b6040518181527f712ae1383f79ac853f8d882153778e0260ef8f03b504e2866e0593e04d2b291f906020015b60405180910390a195945050505050565b60605f5f5f611017855f908152600960205260409020805460018201546002909201549092565b9250925092505f61102786611432565b91505f90506110378260036148d1565b60ff169050806001600160401b0381111561105457611054613d33565b60405190808252806020026020018201604052801561107d578160200160208202803683370190505b50955084865f81518110611093576110936148a9565b60200260200101818152505083866001815181106110b3576110b36148a9565b60200260200101818152505082866002815181106110d3576110d36148a9565b60209081029190910101525f5b8260ff168160ff16101561113c575f888152600e6020908152604080832060ff85168452909152902054876111168360036148d1565b60ff1681518110611129576111296148a9565b60209081029190910101526001016110e0565b505050505050919050565b5f90815260046020526040902054600160a01b900465ffffffffffff1690565b5f610b7e60085465ffffffffffff1690565b5f610b8d82611e73565b5f5f611191868686866119e4565b90506111a081610c975f611d05565b505f818152600460205260409020546001600160a01b031633146111d95760405163233d98e360e01b8152336004820152602401610da7565b6111e586868686611fac565b9695505050505050565b60607f00000000000000000000000000000000000000000000000000000000000000006001600160a01b0316634bf5d7e96040518163ffffffff1660e01b81526004015f60405180830381865afa92505050801561126e57506040513d5f823e601f3d908101601f1916820160405261126b91908101906148ea565b60015b6112aa575060408051808201909152601d81527f6d6f64653d626c6f636b6e756d6265722666726f6d3d64656661756c74000000602082015290565b919050565b5f803390506112ce84828560405180602001604052805f815250611fb9565b949350505050565b5f5f6113b7876113b17f3e83946653575f9a39005e1545185629e92736b7528ab20ca3816f315424a8118c8c8c6113298e6001600160a01b03165f90815260026020526040902080546001810190915590565b8d8d60405161133992919061495e565b60405180910390208c805190602001206040516020016113969796959493929190968752602087019590955260ff9390931660408601526001600160a01b03919091166060850152608084015260a083015260c082015260e00190565b60405160208183030381529060405280519060200120611fd5565b85612001565b9050806113e2576040516394ab6c0760e01b81526001600160a01b0388166004820152602401610da7565b61142589888a89898080601f0160208091040260200160405190810160405280939291908181526020018383808284375f920191909152508b9250612071915050565b9998505050505050505050565b5f818152600d6020908152604080832060018101548154835181860281018601909452808452606095949293849360ff9093169290918491879084015b82821015611517578382905f5260205f2001805461148c906147d5565b80601f01602080910402602001604051908101604052809291908181526020018280546114b8906147d5565b80156115035780601f106114da57610100808354040283529160200191611503565b820191905f5260205f20905b8154815290600101906020018083116114e657829003601f168201915b50505050508152602001906001019061146f565b5050505091509250925050915091565b5f8033905061156f87828888888080601f0160208091040260200160405190810160405280939291908181526020018383808284375f920191909152508a9250612071915050565b979650505050505050565b600a80545f91829061158d60018461496d565b8154811061159d5761159d6148a9565b5f918252602090912001805490915065ffffffffffff811690600160301b90046001600160d01b03168582116115df576001600160d01b031695945050505050565b6115f36115eb8761214f565b600a90612185565b6001600160d01b03169695505050505050565b61160e611bf6565b610ba481612234565b5f803390506111e586828787878080601f0160208091040260200160405190810160405280939291908181526020018383808284375f92019190915250611fb992505050565b5f61166a8585858561229a565b95945050505050565b5f6060805f5f5f6060611684612350565b61168c61237c565b604080515f80825260208201909252600f60f81b9b939a50919850469750309650945092509050565b5f5f61173f846113b17ff2aad550cf55f045cb27e9c559f9889fdfb6e6cdaa032301d6ea397784ae51d78989896117088b6001600160a01b03165f90815260026020526040902080546001810190915590565b60408051602081019690965285019390935260ff90911660608401526001600160a01b0316608083015260a082015260c001611396565b90508061176a576040516394ab6c0760e01b81526001600160a01b0385166004820152602401610da7565b6111e586858760405180602001604052805f815250611fb9565b5f7f00000000000000000000000000000000000000000000000000000000000000006001600160a01b03166391ddadf46040518163ffffffff1660e01b8152600401602060405180830381865afa9250505080156117ff575060408051601f3d908101601f191682019092526117fc91810190614980565b60015b6112aa57610b7e6123a9565b5f6118178484846123b3565b90505b9392505050565b5f5f61182c84611432565b9150508060ff168360ff16106118845760405162461bcd60e51b815260206004820152601e60248201527f476f7665726e6f723a20696e76616c6964206f7074696f6e20696e64657800006044820152606401610da7565b50505f918252600e6020908152604080842060ff93909316845291905290205490565b5f6118b2600a612446565b6001600160d01b0316905090565b6118c8611bf6565b610ba48161247d565b5f6001610b8d565b5f610b7e60075490565b5f306118ed610b6b565b6001600160a01b03161461191457604051637485328f60e11b815260040160405180910390fd5b5063bc197c8160e01b95945050505050565b5f8181526004602052604081205461195a90600160d01b810463ffffffff1690600160a01b900465ffffffffffff1661499b565b65ffffffffffff1692915050565b611970611bf6565b5f5f856001600160a01b031685858560405161198d92919061495e565b5f6040518083038185875af1925050503d805f81146119c7576040519150601f19603f3d011682016040523d82523d5f602084013e6119cc565b606091505b50915091506119db82826124e6565b50505050505050565b5f848484846040516020016119fc94939291906149b9565b60408051601f19818403018152919052805160209091012095945050505050565b5f3381611a2985611432565b9150505f8160ff1611611a905760405162461bcd60e51b815260206004820152602960248201527f476f7665726e6f723a207374616e646172642070726f706f73616c2c207573656044820152682063617374566f746560b81b6064820152608401610da7565b8060ff168460ff1610611ae55760405162461bcd60e51b815260206004820152601e60248201527f476f7665726e6f723a20696e76616c6964206f7074696f6e20696e64657800006044820152606401610da7565b6040516001600160f81b031960f886901b1660208201526001905f9060210160408051601f19818403018152602083019091525f8252915061156f9088908690859085612502565b611b35611bf6565b610ba481612627565b5f61181a83836126c3565b611b51611bf6565b610ba4816126e2565b5f30611b64610b6b565b6001600160a01b031614611b8b57604051637485328f60e11b815260040160405180910390fd5b5063f23a6e6160e01b95945050505050565b5f610b8d82612723565b5f6001600160e01b031982166332a2ad4360e11b1480611bd757506001600160e01b03198216630271189760e51b145b80610b8d57506301ffc9a760e01b6001600160e01b0319831614610b8d565b33611bff610b6b565b6001600160a01b031614611c28576040516347096e4760e01b8152336004820152602401610da7565b30611c31610b6b565b6001600160a01b031614611c6d575f8036604051611c5092919061495e565b604051809103902090505b80611c6660056127ca565b03611c5b57505b565b606480821115611c9c5760405163243e544560e01b81526004810183905260248101829052604401610da7565b5f611ca56118a7565b9050611cc4611cb2611784565b611cbb85612837565b600a919061286a565b505060408051828152602081018590527f0553476bf02ef2726e8ce5ced78d63e26e602e4a2257b1f559418e24b463399791015b60405180910390a1505050565b5f816007811115611d1857611d18614174565b600160ff919091161b92915050565b5f5f611d3284611179565b90505f83611d3f83611d05565b160361181a578381846040516331b75e4d60e01b8152600401610da793929190614a03565b5f6111e58686868686612884565b805160408051808201825283815260ff83166020808301919091525f868152600d8252929092208151805192939192611dae9284920190613bf3565b50602091909101516001909101805460ff191660ff9092169190911790556040517fde44dba4709aa2ac40b7989d7626c13318b46ec16c757844761c4bc8f75ad95290611cf89085908590614a25565b81546001600160801b03600160801b820481169181166001830190911603611e2a57611e2a6041612a21565b6001600160801b038082165f90815260018086016020526040909120939093558354919092018216600160801b029116179055565b611e6c8585858585612a32565b5050505050565b5f5f611e7e83612ac2565b90506005816007811115611e9457611e94614174565b14611e9f5792915050565b5f838152600c60205260409081902054600b549151632c258a9f60e11b81526004810182905290916001600160a01b03169063584b153e90602401602060405180830381865afa158015611ef5573d5f5f3e3d5ffd5b505050506040513d601f19601f82011682018060405250810190611f199190614a3d565b15611f28575060059392505050565b600b54604051632ab0f52960e01b8152600481018390526001600160a01b0390911690632ab0f52990602401602060405180830381865afa158015611f6f573d5f5f3e3d5ffd5b505050506040513d601f19601f82011682018060405250810190611f939190614a3d565b15611fa2575060079392505050565b5060029392505050565b5f61166a85858585612bf3565b5f61166a8585858560405180602001604052805f815250612502565b5f610b8d611fe1612c8a565b8360405161190160f01b8152600281019290925260228201526042902090565b5f836001600160a01b03163b5f0361205f575f5f61201f8585612db3565b5090925090505f81600381111561203857612038614174565b1480156120565750856001600160a01b0316826001600160a01b0316145b9250505061181a565b61206a848484612dfc565b905061181a565b5f61208086610c976001611d05565b505f6120958661208f89611147565b856123b3565b90505f6120a58888888588612ed2565b905083515f036120fb57866001600160a01b03167fb8e138887d0aa13bab447e82de9d5c1777041ecd21ca36ba824ff1e6c07ddda4898884896040516120ee9493929190614a5c565b60405180910390a261156f565b866001600160a01b03167fe2babfbac5889a709b63bb7f598b324e08bc5a4fb9ec647fb3cbc9ec07eb8712898884898960405161213c959493929190614a83565b60405180910390a2979650505050505050565b5f65ffffffffffff821115612181576040516306dfcc6560e41b81526030600482015260248101839052604401610da7565b5090565b81545f90818160058111156121e1575f61219e84613042565b6121a8908561496d565b5f8881526020902090915081015465ffffffffffff90811690871610156121d1578091506121df565b6121dc816001614abc565b92505b505b5f6121ee8787858561319a565b90508015612228576122128761220560018461496d565b5f91825260209091200190565b54600160301b90046001600160d01b031661156f565b505f9695505050505050565b6008546040805165ffffffffffff928316815291831660208301527fc565b045403dc03c2eea82b81a0465edad9e2e7fc4d97e11421c209da93d7a93910160405180910390a16008805465ffffffffffff191665ffffffffffff92909216919091179055565b5f336122a681846131f9565b6122ce5760405163d9b3955760e01b81526001600160a01b0382166004820152602401610da7565b5f6122d76118d9565b90508015612343575f6123058360016122ee611784565b6122f89190614acf565b65ffffffffffff16611b3e565b90508181101561234157604051636121770b60e11b81526001600160a01b03841660048201526024810182905260448101839052606401610da7565b505b61156f878787878661327e565b6060610b7e7f00000000000000000000000000000000000000000000000000000000000000005f613498565b6060610b7e7f00000000000000000000000000000000000000000000000000000000000000006001613498565b5f610b7e4361214f565b5f7f0000000000000000000000000000000000000000000000000000000000000000604051630748d63560e31b81526001600160a01b038681166004830152602482018690529190911690633a46b1a890604401602060405180830381865afa158015612422573d5f5f3e3d5ffd5b505050506040513d601f19601f820116820180604052508101906118179190614892565b80545f9080156124755761245f8361220560018461496d565b54600160301b90046001600160d01b031661181a565b5f9392505050565b600b54604080516001600160a01b03928316815291831660208301527f08f74ea46ef7894f65eabfb5e6e695de773a000b47c529ab559178069b226401910160405180910390a1600b80546001600160a01b0319166001600160a01b0392909216919091179055565b6060826124fb576124f682613541565b610b8d565b5080610b8d565b5f600161250e87611179565b600781111561251f5761251f614174565b146125785760405162461bcd60e51b815260206004820152602360248201527f476f7665726e6f723a20766f7465206e6f742063757272656e746c792061637460448201526269766560e81b6064820152608401610da7565b5f61258287611147565b90505f61258f8783611b3e565b905061259e8888888488612ed2565b50866001600160a01b03167fb8e138887d0aa13bab447e82de9d5c1777041ecd21ca36ba824ff1e6c07ddda4898884896040516125de9493929190614a5c565b60405180910390a2866001600160a01b03167fe2babfbac5889a709b63bb7f598b324e08bc5a4fb9ec647fb3cbc9ec07eb8712898884898960405161213c959493929190614a83565b8063ffffffff165f0361264f5760405163f1cfbf0560e01b81525f6004820152602401610da7565b6008546040805163ffffffff600160301b9093048316815291831660208301527f7e3f7f0708a84de9203036abaa450dccc85ad5ff52f78c170f3edb55cf5e8828910160405180910390a16008805463ffffffff909216600160301b0269ffffffff00000000000019909216919091179055565b5f61181a83836126dd60408051602081019091525f815290565b6123b3565b60075460408051918252602082018390527fccb45da8d5717e6c4544694297c4ba5cf151d455c9bb0ed4fc7a38411bc05461910160405180910390a1600755565b5f606461272f8361157a565b604051632394e7a360e21b8152600481018590526001600160a01b037f00000000000000000000000000000000000000000000000000000000000000001690638e539e8c90602401602060405180830381865afa158015612792573d5f5f3e3d5ffd5b505050506040513d601f19601f820116820180604052508101906127b69190614892565b6127c09190614aed565b610b8d9190614b18565b80545f906001600160801b0380821691600160801b90041681036127f2576127f26031612a21565b6001600160801b038181165f908152600185810160205260408220805492905585546fffffffffffffffffffffffffffffffff19169301909116919091179092555090565b5f6001600160d01b03821115612181576040516306dfcc6560e41b815260d0600482015260248101839052604401610da7565b5f8061287785858561356a565b915091505b935093915050565b5f5f600b5f9054906101000a90046001600160a01b03166001600160a01b031663f27a0c926040518163ffffffff1660e01b8152600401602060405180830381865afa1580156128d6573d5f5f3e3d5ffd5b505050506040513d601f19601f820116820180604052508101906128fa9190614892565b90505f3060601b6bffffffffffffffffffffffff19168418600b5460405163b1c5f42760e01b81529192506001600160a01b03169063b1c5f4279061294b908a908a908a905f908890600401614b37565b602060405180830381865afa158015612966573d5f5f3e3d5ffd5b505050506040513d601f19601f8201168201806040525081019061298a9190614892565b5f898152600c602052604080822092909255600b5491516308f2a0bb60e41b81526001600160a01b0390921691638f2a0bb0916129d4918b918b918b919088908a90600401614b84565b5f604051808303815f87803b1580156129eb575f5ffd5b505af11580156129fd573d5f5f3e3d5ffd5b50505050612a158242612a109190614abc565b61214f565b98975050505050505050565b634e487b715f52806020526024601cfd5b600b546001600160a01b031663e38335e5348686865f3060601b6bffffffffffffffffffffffff191688186040518763ffffffff1660e01b8152600401612a7d959493929190614b37565b5f604051808303818588803b158015612a94575f5ffd5b505af1158015612aa6573d5f5f3e3d5ffd5b5050505f9687525050600c602052505060408320929092555050565b5f818152600460205260408120805460ff600160f01b8204811691600160f81b9004168115612af657506007949350505050565b8015612b0757506002949350505050565b5f612b1186611147565b9050805f03612b3657604051636ad0607560e01b815260048101879052602401610da7565b5f612b3f611784565b65ffffffffffff169050808210612b5c57505f9695505050505050565b5f612b6688611926565b9050818110612b7d57506001979650505050505050565b612b86886136ba565b1580612ba557505f888152600960205260409020805460019091015411155b15612bb857506003979650505050505050565b5f8881526004602052604090206001015465ffffffffffff165f03612be557506004979650505050505050565b506005979650505050505050565b5f5f612c01868686866136f0565b5f818152600c60205260409020549091508015610d3b57600b5460405163c4d252f560e01b8152600481018390526001600160a01b039091169063c4d252f5906024015f604051808303815f87803b158015612c5b575f5ffd5b505af1158015612c6d573d5f5f3e3d5ffd5b5050505f838152600c602052604081205550509050949350505050565b5f306001600160a01b037f000000000000000000000000000000000000000000000000000000000000000016148015612ce257507f000000000000000000000000000000000000000000000000000000000000000046145b15612d0c57507f000000000000000000000000000000000000000000000000000000000000000090565b610b7e604080517f8b73c3c69bb8fe3d512ecc4cf759cc79239f7b179b0ffacaa9a75d522b39400f60208201527f0000000000000000000000000000000000000000000000000000000000000000918101919091527f000000000000000000000000000000000000000000000000000000000000000060608201524660808201523060a08201525f9060c00160405160208183030381529060405280519060200120905090565b5f5f5f8351604103612dea576020840151604085015160608601515f1a612ddc8882858561379f565b955095509550505050612df5565b505081515f91506002905b9250925092565b5f5f5f856001600160a01b03168585604051602401612e1c929190614bdb565b60408051601f198184030181529181526020820180516001600160e01b0316630b135d3f60e11b17905251612e519190614bf3565b5f60405180830381855afa9150503d805f8114612e89576040519150601f19603f3d011682016040523d82523d5f602084013e612e8e565b606091505b5091509150818015612ea257506020815110155b80156111e557508051630b135d3f60e11b90612ec79083016020908101908401614892565b149695505050505050565b5f5f612ee18787878787613867565b835190915060ff90600103612f0d57835f81518110612f0257612f026148a9565b016020015160f81c90505b5f612f1789611432565b9150508060ff168260ff161015613035575f8160ff1611612f935760405162461bcd60e51b815260206004820152603060248201527f476f7665726e6f723a2043616e6e6f7420766f746520666f72206f7074696f6e60448201526f081bdb881cdd19081c1c9bdc1bdcd85b60821b6064820152608401610da7565b8660ff166001146130045760405162461bcd60e51b815260206004820152603560248201527f476f7665726e6f723a20496e76616c696420737570706f727420666f72206f7060448201527474696f6e20766f746520286d75737420626520312960581b6064820152608401610da7565b5f898152600e6020908152604080832060ff861684529091528120805488929061302f908490614abc565b90915550505b5090979650505050505050565b5f6001821161304f575090565b816001600160801b82106130685760809190911c9060401b5b6801000000000000000082106130835760409190911c9060201b5b640100000000821061309a5760209190911c9060101b5b6201000082106130af5760109190911c9060081b5b61010082106130c35760089190911c9060041b5b601082106130d65760049190911c9060021b5b600482106130e25760011b5b600302600190811c908185816130fa576130fa614b04565b048201901c9050600181858161311257613112614b04565b048201901c9050600181858161312a5761312a614b04565b048201901c9050600181858161314257613142614b04565b048201901c9050600181858161315a5761315a614b04565b048201901c9050600181858161317257613172614b04565b048201901c905061319181858161318b5761318b614b04565b04821190565b90039392505050565b5f5b818310156131f1575f6131af8484613963565b5f8781526020902090915065ffffffffffff86169082015465ffffffffffff1611156131dd578092506131eb565b6131e8816001614abc565b93505b5061319c565b509392505050565b80515f906034811015613210576001915050610b8d565b60131981840101516001600160b01b03198116692370726f706f7365723d60b01b1461324157600192505050610b8d565b5f5f61325186602a86038661397d565b9150915081158061156f5750866001600160a01b0316816001600160a01b03161494505050505092915050565b5f61329286868686805190602001206119e4565b9050845186511415806132a757508351865114155b806132b157508551155b156132e657855184518651604051630447b05d60e41b8152600481019390935260248301919091526044820152606401610da7565b5f81815260046020526040902054600160a01b900465ffffffffffff161561332f578061331282611179565b6040516331b75e4d60e01b8152610da79291905f90600401614a03565b5f613338611167565b613340611784565b65ffffffffffff166133529190614abc565b90505f61336c60085463ffffffff600160301b9091041690565b5f84815260046020526040902080546001600160a01b0319166001600160a01b03871617815590915061339e8361214f565b815465ffffffffffff91909116600160a01b0265ffffffffffff60a01b199091161781556133cb82613a26565b815463ffffffff91909116600160d01b0263ffffffff60d01b1990911617815588517f7d84a6263ae0d98d3329bd7b46bb4e8d6f98cd35a7adb45c274c8b7fd5ebd5e090859087908c908c906001600160401b0381111561342e5761342e613d33565b60405190808252806020026020018201604052801561346157816020015b606081526020019060019003908161344c5790505b508c8961346e8a82614abc565b8e60405161348499989796959493929190614c09565b60405180910390a150505095945050505050565b606060ff83146134b2576134ab83613a56565b9050610b8d565b8180546134be906147d5565b80601f01602080910402602001604051908101604052809291908181526020018280546134ea906147d5565b80156135355780601f1061350c57610100808354040283529160200191613535565b820191905f5260205f20905b81548152906001019060200180831161351857829003601f168201915b50505050509050610b8d565b8051156135515780518082602001fd5b60405163d6bda27560e01b815260040160405180910390fd5b82545f9081908015613660575f6135868761220560018561496d565b805490915065ffffffffffff80821691600160301b90046001600160d01b03169088168211156135c957604051632520601d60e01b815260040160405180910390fd5b8765ffffffffffff168265ffffffffffff160361360257825465ffffffffffff16600160301b6001600160d01b03891602178355613652565b6040805180820190915265ffffffffffff808a1682526001600160d01b03808a1660208085019182528d54600181018f555f8f81529190912094519151909216600160301b029216919091179101555b945085935061287c92505050565b50506040805180820190915265ffffffffffff80851682526001600160d01b0380851660208085019182528854600181018a555f8a815291822095519251909316600160301b02919093161792019190915590508161287c565b5f818152600960205260408120600281015460018201546136db9190614abc565b6136e7610b3485611147565b11159392505050565b5f5f6136fe868686866119e4565b905061374c8161370e6007611d05565b6137186006611d05565b6137226002611d05565b600161372f6007826148d1565b61373a906002614d79565b613744919061496d565b181818611d27565b505f818152600460205260409081902080546001600160f81b0316600160f81b179055517f789cf55be980739dad1d0699b93b58e806b51c9d96619bfa8fe0a28abaa7b30c90610fdf9083815260200190565b5f80807f7fffffffffffffffffffffffffffffff5d576e7357a4501ddfe92f46681b20a08411156137d857505f9150600390508261385d565b604080515f808252602082018084528a905260ff891692820192909252606081018790526080810186905260019060a0016020604051602081039080840390855afa158015613829573d5f5f3e3d5ffd5b5050604051601f1901519150506001600160a01b03811661385457505f92506001915082905061385d565b92505f91508190505b9450945094915050565b5f8581526009602090815260408083206001600160a01b03881684526003810190925282205460ff16156138b9576040516371c6af4960e01b81526001600160a01b0387166004820152602401610da7565b6001600160a01b0386165f9081526003820160205260409020805460ff1916600117905560ff85166139025783815f015f8282546138f79190614abc565b909155506139589050565b5f1960ff8616016139205783816001015f8282546138f79190614abc565b60011960ff86160161393f5783816002015f8282546138f79190614abc565b6040516303599be160e11b815260040160405180910390fd5b509195945050505050565b5f6139716002848418614b18565b61181a90848416614abc565b5f5f845183118061398d57508284115b1561399c57505f90508061287c565b5f6139a8856001614abc565b841180156139d0575061060f60f31b6139c48787016020015190565b6001600160f01b031916145b90505f6139e08215156002614aed565b6139eb906028614abc565b9050806139f8878761496d565b03613a19575f5f613a0a898989613a93565b909650945061287c9350505050565b5f5f93509350505061287c565b5f63ffffffff821115612181576040516306dfcc6560e41b81526020600482015260248101839052604401610da7565b60605f613a6283613b54565b6040805160208082528183019092529192505f91906020820181803683375050509182525060208101929092525090565b5f808481613aa2866001614abc565b85118015613aca575061060f60f31b613abe8388016020015190565b6001600160f01b031916145b90505f613ada8215156002614aed565b90505f80613ae8838a614abc565b90505b87811015613b43575f613b09613b048784016020015190565b613b7b565b9050600f8160ff161115613b28575f5f9750975050505050505061287c565b613b33601084614aed565b60ff909116019150600101613aeb565b506001999098509650505050505050565b5f60ff8216601f811115610b8d57604051632cd44ac360e21b815260040160405180910390fd5b5f60f882901c602f81118015613b945750603a8160ff16105b15613ba257602f1901610b8d565b60608160ff16118015613bb8575060678160ff16105b15613bc65760561901610b8d565b60408160ff16118015613bdc575060478160ff16105b15613bea5760361901610b8d565b5060ff92915050565b828054828255905f5260205f20908101928215613c37579160200282015b82811115613c375782518290613c279082614dd0565b5091602001919060010190613c11565b506121819291505b80821115612181575f613c528282613c5b565b50600101613c3f565b508054613c67906147d5565b5f825580601f10613c76575050565b601f0160209004905f5260205f2090810190610ba491905b80821115612181575f8155600101613c8e565b5f60208284031215613cb1575f5ffd5b81356001600160e01b03198116811461181a575f5ffd5b5f60208284031215613cd8575f5ffd5b5035919050565b5f81518084528060208401602086015e5f602082860101526020601f19601f83011685010191505092915050565b602081525f61181a6020830184613cdf565b6001600160a01b0381168114610ba4575f5ffd5b634e487b7160e01b5f52604160045260245ffd5b604051601f8201601f191681016001600160401b0381118282101715613d6f57613d6f613d33565b604052919050565b5f6001600160401b03821115613d8f57613d8f613d33565b50601f01601f191660200190565b5f82601f830112613dac575f5ffd5b8135602083015f613dc4613dbf84613d77565b613d47565b9050828152858383011115613dd7575f5ffd5b828260208301375f92810160200192909252509392505050565b5f5f5f5f60808587031215613e04575f5ffd5b8435613e0f81613d1f565b93506020850135613e1f81613d1f565b92506040850135915060608501356001600160401b03811115613e40575f5ffd5b613e4c87828801613d9d565b91505092959194509250565b5f6001600160401b03821115613e7057613e70613d33565b5060051b60200190565b5f82601f830112613e89575f5ffd5b8135613e97613dbf82613e58565b8082825260208201915060208360051b860101925085831115613eb8575f5ffd5b602085015b83811015610d3b578035613ed081613d1f565b835260209283019201613ebd565b5f82601f830112613eed575f5ffd5b8135613efb613dbf82613e58565b8082825260208201915060208360051b860101925085831115613f1c575f5ffd5b602085015b83811015610d3b578035835260209283019201613f21565b5f82601f830112613f48575f5ffd5b8135613f56613dbf82613e58565b8082825260208201915060208360051b860101925085831115613f77575f5ffd5b602085015b83811015610d3b5780356001600160401b03811115613f99575f5ffd5b613fa8886020838a0101613d9d565b84525060209283019201613f7c565b5f5f5f5f60808587031215613fca575f5ffd5b84356001600160401b03811115613fdf575f5ffd5b613feb87828801613e7a565b94505060208501356001600160401b03811115614006575f5ffd5b61401287828801613ede565b93505060408501356001600160401b0381111561402d575f5ffd5b61403987828801613f39565b949793965093946060013593505050565b5f5f5f5f5f60a0868803121561405e575f5ffd5b85356001600160401b03811115614073575f5ffd5b61407f88828901613e7a565b95505060208601356001600160401b0381111561409a575f5ffd5b6140a688828901613ede565b94505060408601356001600160401b038111156140c1575f5ffd5b6140cd88828901613f39565b93505060608601356001600160401b038111156140e8575f5ffd5b6140f488828901613d9d565b92505060808601356001600160401b0381111561410f575f5ffd5b61411b88828901613f39565b9150509295509295909350565b5f8151808452602084019350602083015f5b8281101561415857815186526020958601959091019060010161413a565b5093949350505050565b602081525f61181a6020830184614128565b634e487b7160e01b5f52602160045260245ffd5b600881106141a457634e487b7160e01b5f52602160045260245ffd5b9052565b60208101610b8d8284614188565b5f5f604083850312156141c7575f5ffd5b8235915060208301356141d981613d1f565b809150509250929050565b803560ff811681146112aa575f5ffd5b5f5f60408385031215614205575f5ffd5b82359150614215602084016141e4565b90509250929050565b5f5f83601f84011261422e575f5ffd5b5081356001600160401b03811115614244575f5ffd5b60208301915083602082850101111561425b575f5ffd5b9250929050565b5f5f5f5f5f5f5f60c0888a031215614278575f5ffd5b87359650614288602089016141e4565b9550604088013561429881613d1f565b945060608801356001600160401b038111156142b2575f5ffd5b6142be8a828b0161421e565b90955093505060808801356001600160401b038111156142dc575f5ffd5b6142e88a828b01613d9d565b92505060a08801356001600160401b03811115614303575f5ffd5b61430f8a828b01613d9d565b91505092959891949750929550565b5f82825180855260208501945060208160051b830101602085015f5b8381101561436c57601f19858403018852614356838351613cdf565b602098890198909350919091019060010161433a565b50909695505050505050565b604081525f61438a604083018561431e565b905060ff831660208301529392505050565b5f5f5f5f5f608086880312156143b0575f5ffd5b853594506143c0602087016141e4565b935060408601356001600160401b038111156143da575f5ffd5b6143e68882890161421e565b90945092505060608601356001600160401b03811115614404575f5ffd5b61411b88828901613d9d565b65ffffffffffff81168114610ba4575f5ffd5b5f60208284031215614433575f5ffd5b813561181a81614410565b5f5f5f5f60608587031215614451575f5ffd5b84359350614461602086016141e4565b925060408501356001600160401b0381111561447b575f5ffd5b6144878782880161421e565b95989497509550505050565b5f5f5f5f608085870312156144a6575f5ffd5b84356001600160401b038111156144bb575f5ffd5b6144c787828801613e7a565b94505060208501356001600160401b038111156144e2575f5ffd5b6144ee87828801613ede565b93505060408501356001600160401b03811115614509575f5ffd5b61451587828801613f39565b92505060608501356001600160401b03811115613e40575f5ffd5b5f60208284031215614540575f5ffd5b813561181a81613d1f565b60ff60f81b8816815260e060208201525f61456960e0830189613cdf565b828103604084015261457b8189613cdf565b606084018890526001600160a01b038716608085015260a0840186905283810360c085015290506145ac8185614128565b9a9950505050505050505050565b5f5f5f5f608085870312156145cd575f5ffd5b843593506145dd602086016141e4565b925060408501356145ed81613d1f565b915060608501356001600160401b03811115613e40575f5ffd5b5f5f5f60608486031215614619575f5ffd5b833561462481613d1f565b92506020840135915060408401356001600160401b03811115614645575f5ffd5b61465186828701613d9d565b9150509250925092565b5f5f5f5f5f60a0868803121561466f575f5ffd5b853561467a81613d1f565b9450602086013561468a81613d1f565b935060408601356001600160401b038111156146a4575f5ffd5b6146b088828901613ede565b93505060608601356001600160401b038111156146cb575f5ffd5b6146d788828901613ede565b92505060808601356001600160401b03811115614404575f5ffd5b5f5f5f5f60608587031215614705575f5ffd5b843561471081613d1f565b93506020850135925060408501356001600160401b0381111561447b575f5ffd5b5f60208284031215614741575f5ffd5b813563ffffffff8116811461181a575f5ffd5b5f5f60408385031215614765575f5ffd5b823561477081613d1f565b946020939093013593505050565b5f5f5f5f5f60a08688031215614792575f5ffd5b853561479d81613d1f565b945060208601356147ad81613d1f565b9350604086013592506060860135915060808601356001600160401b03811115614404575f5ffd5b600181811c908216806147e957607f821691505b60208210810361480757634e487b7160e01b5f52602260045260245ffd5b50919050565b5f8151808452602084019350602083015f5b828110156141585781516001600160a01b031686526020958601959091019060010161481f565b608081525f614858608083018761480d565b828103602084015261486a8187614128565b9050828103604084015261487e818661431e565b9050828103606084015261156f8185613cdf565b5f602082840312156148a2575f5ffd5b5051919050565b634e487b7160e01b5f52603260045260245ffd5b634e487b7160e01b5f52601160045260245ffd5b60ff8181168382160190811115610b8d57610b8d6148bd565b5f602082840312156148fa575f5ffd5b81516001600160401b0381111561490f575f5ffd5b8201601f8101841361491f575f5ffd5b805161492d613dbf82613d77565b818152856020838501011115614941575f5ffd5b8160208401602083015e5f91810160200191909152949350505050565b818382375f9101908152919050565b81810381811115610b8d57610b8d6148bd565b5f60208284031215614990575f5ffd5b815161181a81614410565b65ffffffffffff8181168382160190811115610b8d57610b8d6148bd565b608081525f6149cb608083018761480d565b82810360208401526149dd8187614128565b905082810360408401526149f1818661431e565b91505082606083015295945050505050565b83815260608101614a176020830185614188565b826040830152949350505050565b828152604060208201525f611817604083018461431e565b5f60208284031215614a4d575f5ffd5b8151801515811461181a575f5ffd5b84815260ff84166020820152826040820152608060608201525f6111e56080830184613cdf565b85815260ff8516602082015283604082015260a060608201525f614aaa60a0830185613cdf565b8281036080840152612a158185613cdf565b80820180821115610b8d57610b8d6148bd565b65ffffffffffff8281168282160390811115610b8d57610b8d6148bd565b8082028115828204841417610b8d57610b8d6148bd565b634e487b7160e01b5f52601260045260245ffd5b5f82614b3257634e487b7160e01b5f52601260045260245ffd5b500490565b60a081525f614b4960a083018861480d565b8281036020840152614b5b8188614128565b90508281036040840152614b6f818761431e565b60608401959095525050608001529392505050565b60c081525f614b9660c083018961480d565b8281036020840152614ba88189614128565b90508281036040840152614bbc818861431e565b60608401969096525050608081019290925260a0909101529392505050565b828152604060208201525f6118176040830184613cdf565b5f82518060208501845e5f920191825250919050565b8981526001600160a01b0389166020820152610120604082018190525f90614c339083018a61480d565b8281036060840152614c45818a614128565b90508281036080840152614c59818961431e565b905082810360a0840152614c6d818861431e565b90508560c08401528460e0840152828103610100840152614c8e8185613cdf565b9c9b505050505050505050505050565b6001815b600184111561287c57808504811115614cbd57614cbd6148bd565b6001841615614ccb57908102905b60019390931c928002614ca2565b5f82614ce757506001610b8d565b81614cf357505f610b8d565b8160018114614d095760028114614d1357614d2f565b6001915050610b8d565b60ff841115614d2457614d246148bd565b50506001821b610b8d565b5060208310610133831016604e8410600b8410161715614d52575081810a610b8d565b614d5e5f198484614c9e565b805f1904821115614d7157614d716148bd565b029392505050565b5f61181a60ff841683614cd9565b601f821115614dcb57805f5260205f20601f840160051c81016020851015614dac5750805b601f840160051c820191505b81811015611e6c575f8155600101614db8565b505050565b81516001600160401b03811115614de957614de9613d33565b614dfd81614df784546147d5565b84614d87565b6020601f821160018114614e2f575f8315614e185750848201515b5f19600385901b1c1916600184901b178455611e6c565b5f84815260208120601f198516915b82811015614e5e5787850151825560209485019460019092019101614e3e565b5084821015614e7b57868401515f19600387901b60f8161c191681555b50505050600190811b0190555056fea2646970667358221220ffe11b5e2efae915449b6dc89b697df9167b2579f8046f32765da9078a53dbd064736f6c634300081c0033","linkReferences":{}},"methodIdentifiers":{"BALLOT_TYPEHASH()":"deaaa7cc","CLOCK_MODE()":"4bf5d7e9","COUNTING_MODE()":"dd4e2ba5","EXTENDED_BALLOT_TYPEHASH()":"2fe3e261","MAX_OPTIONS()":"0da183d6","MIN_OPTIONS()":"65104334","cancel(address[],uint256[],bytes[],bytes32)":"452115d6","castVote(uint256,uint8)":"56781388","castVoteBySig(uint256,uint8,address,bytes)":"8ff262e3","castVoteWithOption(uint256,uint8)":"d28bc965","castVoteWithReason(uint256,uint8,string)":"7b3c71d3","castVoteWithReasonAndParams(uint256,uint8,string,bytes)":"5f398a14","castVoteWithReasonAndParamsBySig(uint256,uint8,address,string,bytes,bytes)":"5b8d0e0d","clock()":"91ddadf4","eip712Domain()":"84b0196e","execute(address[],uint256[],bytes[],bytes32)":"2656227d","getVotes(address,uint256)":"eb9019d4","getVotesWithParams(address,uint256,bytes)":"9a802a6d","hasVoted(uint256,address)":"43859632","hashProposal(address[],uint256[],bytes[],bytes32)":"c59057e4","name()":"06fdde03","nonces(address)":"7ecebe00","onERC1155BatchReceived(address,address,uint256[],uint256[],bytes)":"bc197c81","onERC1155Received(address,address,uint256,uint256,bytes)":"f23a6e61","onERC721Received(address,address,uint256,bytes)":"150b7a02","proposalAllVotes(uint256)":"2c802865","proposalDeadline(uint256)":"c01f9e37","proposalEta(uint256)":"ab58fb8e","proposalNeedsQueuing(uint256)":"a9a95294","proposalOptionVotes(uint256,uint8)":"a2b211f3","proposalOptions(uint256)":"5d763841","proposalProposer(uint256)":"143489d0","proposalSnapshot(uint256)":"2d63f693","proposalThreshold()":"b58131b0","proposalVotes(uint256)":"544ffc9c","propose(address[],uint256[],bytes[],string)":"7d5e81e2","propose(address[],uint256[],bytes[],string,string[])":"1d0fbdcb","queue(address[],uint256[],bytes[],bytes32)":"160cbed7","quorum(uint256)":"f8ce560a","quorumDenominator()":"97c3d334","quorumNumerator()":"a7713a70","quorumNumerator(uint256)":"60c4247f","relay(address,uint256,bytes)":"c28bc2fa","setProposalThreshold(uint256)":"ece40cc1","setVotingDelay(uint48)":"79051887","setVotingPeriod(uint32)":"e540d01d","state(uint256)":"3e4f49e6","supportsInterface(bytes4)":"01ffc9a7","timelock()":"d33219b4","token()":"fc0c546a","updateQuorumNumerator(uint256)":"06f3f9e6","updateTimelock(address)":"a890c910","version()":"54fd4d50","votingDelay()":"3932abb1","votingPeriod()":"02a251a3"},"id":63}