{"abi":[{"type":"constructor","inputs":[{"name":"_token","type":"address","internalType":"contract IVotes"},{"name":"_timelock","type":"address","internalType":"contract TimelockController"},{"name":"_name","type":"string","internalType":"string"}],"stateMutability":"nonpayable"},{"type":"receive","stateMutability":"payable"},{"type":"function","name":"BALLOT_TYPEHASH","inputs":[],"outputs":[{"name":"","type":"bytes32","internalType":"bytes32"}],"stateMutability":"view"},{"type":"function","name":"CLOCK_MODE","inputs":[],"outputs":[{"name":"","type":"string","internalType":"string"}],"stateMutability":"view"},{"type":"function","name":"COUNTING_MODE","inputs":[],"outputs":[{"name":"","type":"string","internalType":"string"}],"stateMutability":"pure"},{"type":"function","name":"EXTENDED_BALLOT_TYPEHASH","inputs":[],"outputs":[{"name":"","type":"bytes32","internalType":"bytes32"}],"stateMutability":"view"},{"type":"function","name":"MAX_OPTIONS","inputs":[],"outputs":[{"name":"","type":"uint8","internalType":"uint8"}],"stateMutability":"view"},{"type":"function","name":"MIN_OPTIONS","inputs":[],"outputs":[{"name":"","type":"uint8","internalType":"uint8"}],"stateMutability":"view"},{"type":"function","name":"cancel","inputs":[{"name":"targets","type":"address[]","internalType":"address[]"},{"name":"values","type":"uint256[]","internalType":"uint256[]"},{"name":"calldatas","type":"bytes[]","internalType":"bytes[]"},{"name":"descriptionHash","type":"bytes32","internalType":"bytes32"}],"outputs":[{"name":"","type":"uint256","internalType":"uint256"}],"stateMutability":"nonpayable"},{"type":"function","name":"castVote","inputs":[{"name":"proposalId","type":"uint256","internalType":"uint256"},{"name":"support","type":"uint8","internalType":"uint8"}],"outputs":[{"name":"","type":"uint256","internalType":"uint256"}],"stateMutability":"nonpayable"},{"type":"function","name":"castVoteBySig","inputs":[{"name":"proposalId","type":"uint256","internalType":"uint256"},{"name":"support","type":"uint8","internalType":"uint8"},{"name":"voter","type":"address","internalType":"address"},{"name":"signature","type":"bytes","internalType":"bytes"}],"outputs":[{"name":"","type":"uint256","internalType":"uint256"}],"stateMutability":"nonpayable"},{"type":"function","name":"castVoteWithOption","inputs":[{"name":"proposalId","type":"uint256","internalType":"uint256"},{"name":"optionIndex","type":"uint8","internalType":"uint8"}],"outputs":[{"name":"balance","type":"uint256","internalType":"uint256"}],"stateMutability":"nonpayable"},{"type":"function","name":"castVoteWithReason","inputs":[{"name":"proposalId","type":"uint256","internalType":"uint256"},{"name":"support","type":"uint8","internalType":"uint8"},{"name":"reason","type":"string","internalType":"string"}],"outputs":[{"name":"","type":"uint256","internalType":"uint256"}],"stateMutability":"nonpayable"},{"type":"function","name":"castVoteWithReasonAndParams","inputs":[{"name":"proposalId","type":"uint256","internalType":"uint256"},{"name":"support","type":"uint8","internalType":"uint8"},{"name":"reason","type":"string","internalType":"string"},{"name":"params","type":"bytes","internalType":"bytes"}],"outputs":[{"name":"","type":"uint256","internalType":"uint256"}],"stateMutability":"nonpayable"},{"type":"function","name":"castVoteWithReasonAndParamsBySig","inputs":[{"name":"proposalId","type":"uint256","internalType":"uint256"},{"name":"support","type":"uint8","internalType":"uint8"},{"name":"voter","type":"address","internalType":"address"},{"name":"reason","type":"string","internalType":"string"},{"name":"params","type":"bytes","internalType":"bytes"},{"name":"signature","type":"bytes","internalType":"bytes"}],"outputs":[{"name":"","type":"uint256","internalType":"uint256"}],"stateMutability":"nonpayable"},{"type":"function","name":"clock","inputs":[],"outputs":[{"name":"","type":"uint48","internalType":"uint48"}],"stateMutability":"view"},{"type":"function","name":"eip712Domain","inputs":[],"outputs":[{"name":"fields","type":"bytes1","internalType":"bytes1"},{"name":"name","type":"string","internalType":"string"},{"name":"version","type":"string","internalType":"string"},{"name":"chainId","type":"uint256","internalType":"uint256"},{"name":"verifyingContract","type":"address","internalType":"address"},{"name":"salt","type":"bytes32","internalType":"bytes32"},{"name":"extensions","type":"uint256[]","internalType":"uint256[]"}],"stateMutability":"view"},{"type":"function","name":"execute","inputs":[{"name":"targets","type":"address[]","internalType":"address[]"},{"name":"values","type":"uint256[]","internalType":"uint256[]"},{"name":"calldatas","type":"bytes[]","internalType":"bytes[]"},{"name":"descriptionHash","type":"bytes32","internalType":"bytes32"}],"outputs":[{"name":"","type":"uint256","internalType":"uint256"}],"stateMutability":"payable"},{"type":"function","name":"getVotes","inputs":[{"name":"account","type":"address","internalType":"address"},{"name":"blockNumber","type":"uint256","internalType":"uint256"}],"outputs":[{"name":"","type":"uint256","internalType":"uint256"}],"stateMutability":"view"},{"type":"function","name":"getVotesWithParams","inputs":[{"name":"account","type":"address","internalType":"address"},{"name":"timepoint","type":"uint256","internalType":"uint256"},{"name":"params","type":"bytes","internalType":"bytes"}],"outputs":[{"name":"","type":"uint256","internalType":"uint256"}],"stateMutability":"view"},{"type":"function","name":"hasVoted","inputs":[{"name":"proposalId","type":"uint256","internalType":"uint256"},{"name":"account","type":"address","internalType":"address"}],"outputs":[{"name":"","type":"bool","internalType":"bool"}],"stateMutability":"view"},{"type":"function","name":"hashProposal","inputs":[{"name":"targets","type":"address[]","internalType":"address[]"},{"name":"values","type":"uint256[]","internalType":"uint256[]"},{"name":"calldatas","type":"bytes[]","internalType":"bytes[]"},{"name":"descriptionHash","type":"bytes32","internalType":"bytes32"}],"outputs":[{"name":"","type":"uint256","internalType":"uint256"}],"stateMutability":"pure"},{"type":"function","name":"name","inputs":[],"outputs":[{"name":"","type":"string","internalType":"string"}],"stateMutability":"view"},{"type":"function","name":"nonces","inputs":[{"name":"owner","type":"address","internalType":"address"}],"outputs":[{"name":"","type":"uint256","internalType":"uint256"}],"stateMutability":"view"},{"type":"function","name":"onERC1155BatchReceived","inputs":[{"name":"","type":"address","internalType":"address"},{"name":"","type":"address","internalType":"address"},{"name":"","type":"uint256[]","internalType":"uint256[]"},{"name":"","type":"uint256[]","internalType":"uint256[]"},{"name":"","type":"bytes","internalType":"bytes"}],"outputs":[{"name":"","type":"bytes4","internalType":"bytes4"}],"stateMutability":"nonpayable"},{"type":"function","name":"onERC1155Received","inputs":[{"name":"","type":"address","internalType":"address"},{"name":"","type":"address","internalType":"address"},{"name":"","type":"uint256","internalType":"uint256"},{"name":"","type":"uint256","internalType":"uint256"},{"name":"","type":"bytes","internalType":"bytes"}],"outputs":[{"name":"","type":"bytes4","internalType":"bytes4"}],"stateMutability":"nonpayable"},{"type":"function","name":"onERC721Received","inputs":[{"name":"","type":"address","internalType":"address"},{"name":"","type":"address","internalType":"address"},{"name":"","type":"uint256","internalType":"uint256"},{"name":"","type":"bytes","internalType":"bytes"}],"outputs":[{"name":"","type":"bytes4","internalType":"bytes4"}],"stateMutability":"nonpayable"},{"type":"function","name":"proposalDeadline","inputs":[{"name":"proposalId","type":"uint256","internalType":"uint256"}],"outputs":[{"name":"","type":"uint256","internalType":"uint256"}],"stateMutability":"view"},{"type":"function","name":"proposalEta","inputs":[{"name":"proposalId","type":"uint256","internalType":"uint256"}],"outputs":[{"name":"","type":"uint256","internalType":"uint256"}],"stateMutability":"view"},{"type":"function","name":"proposalNeedsQueuing","inputs":[{"name":"proposalId","type":"uint256","internalType":"uint256"}],"outputs":[{"name":"","type":"bool","internalType":"bool"}],"stateMutability":"view"},{"type":"function","name":"proposalOptionVotes","inputs":[{"name":"proposalId","type":"uint256","internalType":"uint256"},{"name":"optionIndex","type":"uint8","internalType":"uint8"}],"outputs":[{"name":"optionVotes","type":"uint256","internalType":"uint256"}],"stateMutability":"view"},{"type":"function","name":"proposalOptions","inputs":[{"name":"proposalId","type":"uint256","internalType":"uint256"}],"outputs":[{"name":"options","type":"string[]","internalType":"string[]"},{"name":"optionCount","type":"uint8","internalType":"uint8"}],"stateMutability":"view"},{"type":"function","name":"proposalProposer","inputs":[{"name":"proposalId","type":"uint256","internalType":"uint256"}],"outputs":[{"name":"","type":"address","internalType":"address"}],"stateMutability":"view"},{"type":"function","name":"proposalSnapshot","inputs":[{"name":"proposalId","type":"uint256","internalType":"uint256"}],"outputs":[{"name":"","type":"uint256","internalType":"uint256"}],"stateMutability":"view"},{"type":"function","name":"proposalThreshold","inputs":[],"outputs":[{"name":"","type":"uint256","internalType":"uint256"}],"stateMutability":"view"},{"type":"function","name":"proposalVotes","inputs":[{"name":"proposalId","type":"uint256","internalType":"uint256"}],"outputs":[{"name":"againstVotes","type":"uint256","internalType":"uint256"},{"name":"forVotes","type":"uint256","internalType":"uint256"},{"name":"abstainVotes","type":"uint256","internalType":"uint256"}],"stateMutability":"view"},{"type":"function","name":"propose","inputs":[{"name":"targets","type":"address[]","internalType":"address[]"},{"name":"values","type":"uint256[]","internalType":"uint256[]"},{"name":"calldatas","type":"bytes[]","internalType":"bytes[]"},{"name":"description","type":"string","internalType":"string"},{"name":"options","type":"string[]","internalType":"string[]"}],"outputs":[{"name":"proposalId","type":"uint256","internalType":"uint256"}],"stateMutability":"nonpayable"},{"type":"function","name":"propose","inputs":[{"name":"targets","type":"address[]","internalType":"address[]"},{"name":"values","type":"uint256[]","internalType":"uint256[]"},{"name":"calldatas","type":"bytes[]","internalType":"bytes[]"},{"name":"description","type":"string","internalType":"string"}],"outputs":[{"name":"proposalId","type":"uint256","internalType":"uint256"}],"stateMutability":"nonpayable"},{"type":"function","name":"queue","inputs":[{"name":"targets","type":"address[]","internalType":"address[]"},{"name":"values","type":"uint256[]","internalType":"uint256[]"},{"name":"calldatas","type":"bytes[]","internalType":"bytes[]"},{"name":"descriptionHash","type":"bytes32","internalType":"bytes32"}],"outputs":[{"name":"","type":"uint256","internalType":"uint256"}],"stateMutability":"nonpayable"},{"type":"function","name":"quorum","inputs":[{"name":"blockNumber","type":"uint256","internalType":"uint256"}],"outputs":[{"name":"","type":"uint256","internalType":"uint256"}],"stateMutability":"view"},{"type":"function","name":"quorumDenominator","inputs":[],"outputs":[{"name":"","type":"uint256","internalType":"uint256"}],"stateMutability":"view"},{"type":"function","name":"quorumNumerator","inputs":[{"name":"timepoint","type":"uint256","internalType":"uint256"}],"outputs":[{"name":"","type":"uint256","internalType":"uint256"}],"stateMutability":"view"},{"type":"function","name":"quorumNumerator","inputs":[],"outputs":[{"name":"","type":"uint256","internalType":"uint256"}],"stateMutability":"view"},{"type":"function","name":"relay","inputs":[{"name":"target","type":"address","internalType":"address"},{"name":"value","type":"uint256","internalType":"uint256"},{"name":"data","type":"bytes","internalType":"bytes"}],"outputs":[],"stateMutability":"payable"},{"type":"function","name":"setProposalThreshold","inputs":[{"name":"newProposalThreshold","type":"uint256","internalType":"uint256"}],"outputs":[],"stateMutability":"nonpayable"},{"type":"function","name":"setVotingDelay","inputs":[{"name":"newVotingDelay","type":"uint48","internalType":"uint48"}],"outputs":[],"stateMutability":"nonpayable"},{"type":"function","name":"setVotingPeriod","inputs":[{"name":"newVotingPeriod","type":"uint32","internalType":"uint32"}],"outputs":[],"stateMutability":"nonpayable"},{"type":"function","name":"state","inputs":[{"name":"proposalId","type":"uint256","internalType":"uint256"}],"outputs":[{"name":"","type":"uint8","internalType":"enum IGovernor.ProposalState"}],"stateMutability":"view"},{"type":"function","name":"supportsInterface","inputs":[{"name":"interfaceId","type":"bytes4","internalType":"bytes4"}],"outputs":[{"name":"","type":"bool","internalType":"bool"}],"stateMutability":"view"},{"type":"function","name":"timelock","inputs":[],"outputs":[{"name":"","type":"address","internalType":"address"}],"stateMutability":"view"},{"type":"function","name":"token","inputs":[],"outputs":[{"name":"","type":"address","internalType":"contract IERC5805"}],"stateMutability":"view"},{"type":"function","name":"updateQuorumNumerator","inputs":[{"name":"newQuorumNumerator","type":"uint256","internalType":"uint256"}],"outputs":[],"stateMutability":"nonpayable"},{"type":"function","name":"updateTimelock","inputs":[{"name":"newTimelock","type":"address","internalType":"contract TimelockController"}],"outputs":[],"stateMutability":"nonpayable"},{"type":"function","name":"version","inputs":[],"outputs":[{"name":"","type":"string","internalType":"string"}],"stateMutability":"view"},{"type":"function","name":"votingDelay","inputs":[],"outputs":[{"name":"","type":"uint256","internalType":"uint256"}],"stateMutability":"view"},{"type":"function","name":"votingPeriod","inputs":[],"outputs":[{"name":"","type":"uint256","internalType":"uint256"}],"stateMutability":"view"},{"type":"event","name":"EIP712DomainChanged","inputs":[],"anonymous":false},{"type":"event","name":"ProposalCanceled","inputs":[{"name":"proposalId","type":"uint256","indexed":false,"internalType":"uint256"}],"anonymous":false},{"type":"event","name":"ProposalCreated","inputs":[{"name":"proposalId","type":"uint256","indexed":false,"internalType":"uint256"},{"name":"proposer","type":"address","indexed":false,"internalType":"address"},{"name":"targets","type":"address[]","indexed":false,"internalType":"address[]"},{"name":"values","type":"uint256[]","indexed":false,"internalType":"uint256[]"},{"name":"signatures","type":"string[]","indexed":false,"internalType":"string[]"},{"name":"calldatas","type":"bytes[]","indexed":false,"internalType":"bytes[]"},{"name":"voteStart","type":"uint256","indexed":false,"internalType":"uint256"},{"name":"voteEnd","type":"uint256","indexed":false,"internalType":"uint256"},{"name":"description","type":"string","indexed":false,"internalType":"string"}],"anonymous":false},{"type":"event","name":"ProposalExecuted","inputs":[{"name":"proposalId","type":"uint256","indexed":false,"internalType":"uint256"}],"anonymous":false},{"type":"event","name":"ProposalOptionsCreated","inputs":[{"name":"proposalId","type":"uint256","indexed":false,"internalType":"uint256"},{"name":"options","type":"string[]","indexed":false,"internalType":"string[]"}],"anonymous":false},{"type":"event","name":"ProposalQueued","inputs":[{"name":"proposalId","type":"uint256","indexed":false,"internalType":"uint256"},{"name":"etaSeconds","type":"uint256","indexed":false,"internalType":"uint256"}],"anonymous":false},{"type":"event","name":"ProposalThresholdSet","inputs":[{"name":"oldProposalThreshold","type":"uint256","indexed":false,"internalType":"uint256"},{"name":"newProposalThreshold","type":"uint256","indexed":false,"internalType":"uint256"}],"anonymous":false},{"type":"event","name":"QuorumNumeratorUpdated","inputs":[{"name":"oldQuorumNumerator","type":"uint256","indexed":false,"internalType":"uint256"},{"name":"newQuorumNumerator","type":"uint256","indexed":false,"internalType":"uint256"}],"anonymous":false},{"type":"event","name":"TimelockChange","inputs":[{"name":"oldTimelock","type":"address","indexed":false,"internalType":"address"},{"name":"newTimelock","type":"address","indexed":false,"internalType":"address"}],"anonymous":false},{"type":"event","name":"VoteCast","inputs":[{"name":"voter","type":"address","indexed":true,"internalType":"address"},{"name":"proposalId","type":"uint256","indexed":false,"internalType":"uint256"},{"name":"support","type":"uint8","indexed":false,"internalType":"uint8"},{"name":"weight","type":"uint256","indexed":false,"internalType":"uint256"},{"name":"reason","type":"string","indexed":false,"internalType":"string"}],"anonymous":false},{"type":"event","name":"VoteCastWithParams","inputs":[{"name":"voter","type":"address","indexed":true,"internalType":"address"},{"name":"proposalId","type":"uint256","indexed":false,"internalType":"uint256"},{"name":"support","type":"uint8","indexed":false,"internalType":"uint8"},{"name":"weight","type":"uint256","indexed":false,"internalType":"uint256"},{"name":"reason","type":"string","indexed":false,"internalType":"string"},{"name":"params","type":"bytes","indexed":false,"internalType":"bytes"}],"anonymous":false},{"type":"event","name":"VotingDelaySet","inputs":[{"name":"oldVotingDelay","type":"uint256","indexed":false,"internalType":"uint256"},{"name":"newVotingDelay","type":"uint256","indexed":false,"internalType":"uint256"}],"anonymous":false},{"type":"event","name":"VotingPeriodSet","inputs":[{"name":"oldVotingPeriod","type":"uint256","indexed":false,"internalType":"uint256"},{"name":"newVotingPeriod","type":"uint256","indexed":false,"internalType":"uint256"}],"anonymous":false},{"type":"error","name":"CheckpointUnorderedInsertion","inputs":[]},{"type":"error","name":"FailedCall","inputs":[]},{"type":"error","name":"GovernorAlreadyCastVote","inputs":[{"name":"voter","type":"address","internalType":"address"}]},{"type":"error","name":"GovernorAlreadyQueuedProposal","inputs":[{"name":"proposalId","type":"uint256","internalType":"uint256"}]},{"type":"error","name":"GovernorDisabledDeposit","inputs":[]},{"type":"error","name":"GovernorInsufficientProposerVotes","inputs":[{"name":"proposer","type":"address","internalType":"address"},{"name":"votes","type":"uint256","internalType":"uint256"},{"name":"threshold","type":"uint256","internalType":"uint256"}]},{"type":"error","name":"GovernorInvalidProposalLength","inputs":[{"name":"targets","type":"uint256","internalType":"uint256"},{"name":"calldatas","type":"uint256","internalType":"uint256"},{"name":"values","type":"uint256","internalType":"uint256"}]},{"type":"error","name":"GovernorInvalidQuorumFraction","inputs":[{"name":"quorumNumerator","type":"uint256","internalType":"uint256"},{"name":"quorumDenominator","type":"uint256","internalType":"uint256"}]},{"type":"error","name":"GovernorInvalidSignature","inputs":[{"name":"voter","type":"address","internalType":"address"}]},{"type":"error","name":"GovernorInvalidVoteParams","inputs":[]},{"type":"error","name":"GovernorInvalidVoteType","inputs":[]},{"type":"error","name":"GovernorInvalidVotingPeriod","inputs":[{"name":"votingPeriod","type":"uint256","internalType":"uint256"}]},{"type":"error","name":"GovernorNonexistentProposal","inputs":[{"name":"proposalId","type":"uint256","internalType":"uint256"}]},{"type":"error","name":"GovernorNotQueuedProposal","inputs":[{"name":"proposalId","type":"uint256","internalType":"uint256"}]},{"type":"error","name":"GovernorOnlyExecutor","inputs":[{"name":"account","type":"address","internalType":"address"}]},{"type":"error","name":"GovernorOnlyProposer","inputs":[{"name":"account","type":"address","internalType":"address"}]},{"type":"error","name":"GovernorQueueNotImplemented","inputs":[]},{"type":"error","name":"GovernorRestrictedProposer","inputs":[{"name":"proposer","type":"address","internalType":"address"}]},{"type":"error","name":"GovernorUnexpectedProposalState","inputs":[{"name":"proposalId","type":"uint256","internalType":"uint256"},{"name":"current","type":"uint8","internalType":"enum IGovernor.ProposalState"},{"name":"expectedStates","type":"bytes32","internalType":"bytes32"}]},{"type":"error","name":"InvalidAccountNonce","inputs":[{"name":"account","type":"address","internalType":"address"},{"name":"currentNonce","type":"uint256","internalType":"uint256"}]},{"type":"error","name":"InvalidShortString","inputs":[]},{"type":"error","name":"SafeCastOverflowedUintDowncast","inputs":[{"name":"bits","type":"uint8","internalType":"uint8"},{"name":"value","type":"uint256","internalType":"uint256"}]},{"type":"error","name":"StringTooLong","inputs":[{"name":"str","type":"string","internalType":"string"}]}],"bytecode":{"object":"0x610180604052348015610010575f5ffd5b5060405161573a38038061573a83398101604081905261002f91610702565b816004846001825f86806100576040805180820190915260018152603160f81b602082015290565b610061825f61015b565b6101205261007081600161015b565b61014052815160208084019190912060e052815190820120610100524660a0526100fc60e05161010051604080517f8b73c3c69bb8fe3d512ecc4cf759cc79239f7b179b0ffacaa9a75d522b39400f60208201529081019290925260608201524660808201523060a08201525f9060c00160405160208183030381529060405280519060200120905090565b60805250503060c0526003610111828261085c565b5061011d90508361018d565b610126826101f3565b61012f81610297565b5050506001600160a01b031661016052610148816102d8565b506101528161036d565b505050506109b2565b5f6020835110156101765761016f836103d6565b9050610187565b81610181848261085c565b5060ff90505b92915050565b6008546040805165ffffffffffff928316815291831660208301527fc565b045403dc03c2eea82b81a0465edad9e2e7fc4d97e11421c209da93d7a93910160405180910390a16008805465ffffffffffff191665ffffffffffff92909216919091179055565b8063ffffffff165f036102205760405163f1cfbf0560e01b81525f60048201526024015b60405180910390fd5b6008546040805163ffffffff66010000000000009093048316815291831660208301527f7e3f7f0708a84de9203036abaa450dccc85ad5ff52f78c170f3edb55cf5e8828910160405180910390a16008805463ffffffff90921666010000000000000263ffffffff60301b19909216919091179055565b60075460408051918252602082018390527fccb45da8d5717e6c4544694297c4ba5cf151d455c9bb0ed4fc7a38411bc05461910160405180910390a1600755565b6064808211156103055760405163243e544560e01b81526004810183905260248101829052604401610217565b5f61030e610413565b905061032d61031b61042c565b610324856104a6565b600a91906104dd565b505060408051828152602081018590527f0553476bf02ef2726e8ce5ced78d63e26e602e4a2257b1f559418e24b4633997910160405180910390a1505050565b600b54604080516001600160a01b03928316815291831660208301527f08f74ea46ef7894f65eabfb5e6e695de773a000b47c529ab559178069b226401910160405180910390a1600b80546001600160a01b0319166001600160a01b0392909216919091179055565b5f5f829050601f81511115610400578260405163305a27a960e01b81526004016102179190610916565b805161040b8261094b565b179392505050565b5f61041e600a6104f7565b6001600160d01b0316905090565b5f6104376101605190565b6001600160a01b03166391ddadf46040518163ffffffff1660e01b8152600401602060405180830381865afa925050508015610490575060408051601f3d908101601f1916820190925261048d9181019061096e565b60015b6104a15761049c61053f565b905090565b919050565b5f6001600160d01b038211156104d9576040516306dfcc6560e41b815260d0600482015260248101839052604401610217565b5090565b5f806104ea858585610549565b915091505b935093915050565b80545f9080156105365761051d83610510600184610993565b5f91825260209091200190565b54660100000000000090046001600160d01b0316610538565b5f5b9392505050565b5f61049c436106a5565b82545f9081908015610648575f61056587610510600185610993565b805490915065ffffffffffff80821691660100000000000090046001600160d01b03169088168211156105ab57604051632520601d60e01b815260040160405180910390fd5b8765ffffffffffff168265ffffffffffff16036105e757825465ffffffffffff1666010000000000006001600160d01b0389160217835561063a565b6040805180820190915265ffffffffffff808a1682526001600160d01b03808a1660208085019182528d54600181018f555f8f815291909120945191519092166601000000000000029216919091179101555b94508593506104ef92505050565b50506040805180820190915265ffffffffffff80851682526001600160d01b0380851660208085019182528854600181018a555f8a81529182209551925190931666010000000000000291909316179201919091559050816104ef565b5f65ffffffffffff8211156104d9576040516306dfcc6560e41b81526030600482015260248101839052604401610217565b6001600160a01b03811681146106eb575f5ffd5b50565b634e487b7160e01b5f52604160045260245ffd5b5f5f5f60608486031215610714575f5ffd5b835161071f816106d7565b6020850151909350610730816106d7565b60408501519092506001600160401b0381111561074b575f5ffd5b8401601f8101861361075b575f5ffd5b80516001600160401b03811115610774576107746106ee565b604051601f8201601f19908116603f011681016001600160401b03811182821017156107a2576107a26106ee565b6040528181528282016020018810156107b9575f5ffd5b8160208401602083015e5f602083830101528093505050509250925092565b600181811c908216806107ec57607f821691505b60208210810361080a57634e487b7160e01b5f52602260045260245ffd5b50919050565b601f82111561085757805f5260205f20601f840160051c810160208510156108355750805b601f840160051c820191505b81811015610854575f8155600101610841565b50505b505050565b81516001600160401b03811115610875576108756106ee565b6108898161088384546107d8565b84610810565b6020601f8211600181146108bb575f83156108a45750848201515b5f19600385901b1c1916600184901b178455610854565b5f84815260208120601f198516915b828110156108ea57878501518255602094850194600190920191016108ca565b508482101561090757868401515f19600387901b60f8161c191681555b50505050600190811b01905550565b602081525f82518060208401528060208501604085015e5f604082850101526040601f19601f83011684010191505092915050565b8051602080830151919081101561080a575f1960209190910360031b1b16919050565b5f6020828403121561097e575f5ffd5b815165ffffffffffff81168114610538575f5ffd5b8181038181111561018757634e487b7160e01b5f52601160045260245ffd5b60805160a05160c05160e05161010051610120516101405161016051614d11610a295f395f8181610b0101528181611056015281816115ea0152818161221901526125b001525f6121e601525f6121ba01525f612bc601525f612b9e01525f612af901525f612b2301525f612b4d0152614d115ff3fe60806040526004361061032a575f3560e01c80637d5e81e2116101a3578063bc197c81116100f2578063deaaa7cc11610092578063ece40cc11161006d578063ece40cc114610a96578063f23a6e6114610ab5578063f8ce560a14610ad4578063fc0c546a14610af3575f5ffd5b8063deaaa7cc14610a25578063e540d01d14610a58578063eb9019d414610a77575f5ffd5b8063c59057e4116100cd578063c59057e414610985578063d28bc965146109a4578063d33219b4146109c3578063dd4e2ba5146109e0575f5ffd5b8063bc197c8114610934578063c01f9e3714610953578063c28bc2fa14610972575f5ffd5b80639a802a6d1161015d578063a890c91011610138578063a890c910146108ac578063a9a95294146108cb578063ab58fb8e146108ea578063b58131b014610920575f5ffd5b80639a802a6d1461085a578063a2b211f314610879578063a7713a7014610898575f5ffd5b80637d5e81e2146107835780637ecebe00146107a257806384b0196e146107d65780638ff262e3146107fd57806391ddadf41461081c57806397c3d33414610847575f5ffd5b80633e4f49e6116102795780635b8d0e0d1161021957806360c4247f116101f457806360c4247f14610712578063651043341461073157806379051887146107455780637b3c71d314610764575f5ffd5b80635b8d0e0d146106a75780635d763841146106c65780635f398a14146106f3575f5ffd5b80634bf5d7e9116102545780634bf5d7e9146105f8578063544ffc9c1461060c57806354fd4d501461065f5780635678138814610688575f5ffd5b80633e4f49e6146105655780634385963214610591578063452115d6146105d9575f5ffd5b8063150b7a02116102e45780632656227d116102bf5780632656227d146104ec5780632d63f693146104ff5780632fe3e2611461051e5780633932abb114610551575f5ffd5b8063150b7a0214610476578063160cbed7146104ae5780631d0fbdcb146104cd575f5ffd5b806301ffc9a71461036557806302a251a31461039957806306f3f9e6146103c457806306fdde03146103e35780630da183d614610404578063143489d01461042a575f5ffd5b366103615730610338610b25565b6001600160a01b03161461035f57604051637485328f60e11b815260040160405180910390fd5b005b5f5ffd5b348015610370575f5ffd5b5061038461037f366004613b04565b610b3d565b60405190151581526020015b60405180910390f35b3480156103a4575f5ffd5b50600854600160301b900463ffffffff165b604051908152602001610390565b3480156103cf575f5ffd5b5061035f6103de366004613b2b565b610b4d565b3480156103ee575f5ffd5b506103f7610b61565b6040516103909190613b70565b34801561040f575f5ffd5b50610418600a81565b60405160ff9091168152602001610390565b348015610435575f5ffd5b5061045e610444366004613b2b565b5f908152600460205260409020546001600160a01b031690565b6040516001600160a01b039091168152602001610390565b348015610481575f5ffd5b50610495610490366004613c54565b610bf1565b6040516001600160e01b03199091168152602001610390565b3480156104b9575f5ffd5b506103b66104c8366004613e1a565b610c33565b3480156104d8575f5ffd5b506103b66104e7366004613ead565b610cff565b6103b66104fa366004613e1a565b610e42565b34801561050a575f5ffd5b506103b6610519366004613b2b565b610faa565b348015610529575f5ffd5b506103b67f3e83946653575f9a39005e1545185629e92736b7528ab20ca3816f315424a81181565b34801561055c575f5ffd5b506103b6610fca565b348015610570575f5ffd5b5061058461057f366004613b2b565b610fdc565b6040516103909190613fbf565b34801561059c575f5ffd5b506103846105ab366004613fcd565b5f8281526009602090815260408083206001600160a01b038516845260030190915290205460ff1692915050565b3480156105e4575f5ffd5b506103b66105f3366004613e1a565b610fe6565b348015610603575f5ffd5b506103f7611052565b348015610617575f5ffd5b50610644610626366004613b2b565b5f908152600960205260409020805460018201546002909201549092565b60408051938452602084019290925290820152606001610390565b34801561066a575f5ffd5b506040805180820190915260018152603160f81b60208201526103f7565b348015610693575f5ffd5b506103b66106a236600461400b565b611112565b3480156106b2575f5ffd5b506103b66106c1366004614079565b611139565b3480156106d1575f5ffd5b506106e56106e0366004613b2b565b611295565b60405161039092919061418f565b3480156106fe575f5ffd5b506103b661070d3660046141b3565b61138a565b34801561071d575f5ffd5b506103b661072c366004613b2b565b6113dd565b34801561073c575f5ffd5b50610418600281565b348015610750575f5ffd5b5061035f61075f36600461423a565b611469565b34801561076f575f5ffd5b506103b661077e366004614255565b61147a565b34801561078e575f5ffd5b506103b661079d3660046142aa565b6114c0565b3480156107ad575f5ffd5b506103b66107bc366004614347565b6001600160a01b03165f9081526002602052604090205490565b3480156107e1575f5ffd5b506107ea6114d6565b604051610390979695949392919061439c565b348015610808575f5ffd5b506103b661081736600461440b565b611518565b348015610827575f5ffd5b506108306115e7565b60405165ffffffffffff9091168152602001610390565b348015610852575f5ffd5b5060646103b6565b348015610865575f5ffd5b506103b6610874366004614458565b61166e565b348015610884575f5ffd5b506103b661089336600461400b565b611684565b3480156108a3575f5ffd5b506103b661170a565b3480156108b7575f5ffd5b5061035f6108c6366004614347565b611723565b3480156108d6575f5ffd5b506103846108e5366004613b2b565b611734565b3480156108f5575f5ffd5b506103b6610904366004613b2b565b5f9081526004602052604090206001015465ffffffffffff1690565b34801561092b575f5ffd5b506103b661173c565b34801561093f575f5ffd5b5061049561094e3660046144ac565b611746565b34801561095e575f5ffd5b506103b661096d366004613b2b565b611789565b61035f610980366004614543565b6117cb565b348015610990575f5ffd5b506103b661099f366004613e1a565b611847565b3480156109af575f5ffd5b506103b66109be36600461400b565b611880565b3480156109ce575f5ffd5b50600b546001600160a01b031661045e565b3480156109eb575f5ffd5b506040805180820190915260208082527f737570706f72743d627261766f2671756f72756d3d666f722c6162737461696e908201526103f7565b348015610a30575f5ffd5b506103b67ff2aad550cf55f045cb27e9c559f9889fdfb6e6cdaa032301d6ea397784ae51d781565b348015610a63575f5ffd5b5061035f610a72366004614582565b611990565b348015610a82575f5ffd5b506103b6610a913660046145a5565b6119a1565b348015610aa1575f5ffd5b5061035f610ab0366004613b2b565b6119ac565b348015610ac0575f5ffd5b50610495610acf3660046145cf565b6119bd565b348015610adf575f5ffd5b506103b6610aee366004613b2b565b611a00565b348015610afe575f5ffd5b507f000000000000000000000000000000000000000000000000000000000000000061045e565b5f610b38600b546001600160a01b031690565b905090565b5f610b4782611a0a565b92915050565b610b55611a59565b610b5e81611ad2565b50565b606060038054610b7090614626565b80601f0160208091040260200160405190810160405280929190818152602001828054610b9c90614626565b8015610be75780601f10610bbe57610100808354040283529160200191610be7565b820191905f5260205f20905b815481529060010190602001808311610bca57829003601f168201915b5050505050905090565b5f30610bfb610b25565b6001600160a01b031614610c2257604051637485328f60e11b815260040160405180910390fd5b50630a85bd0160e11b949350505050565b5f5f610c4186868686611847565b9050610c5681610c516004611b68565b611b8a565b505f610c658288888888611bc7565b905065ffffffffffff811615610cdc575f82815260046020908152604091829020600101805465ffffffffffff191665ffffffffffff85169081179091558251858152918201527f9a2e42fd6722813d69113e7d0079d3d940171428df7373df9c7f7617cfda2892910160405180910390a1610cf5565b604051634844252360e11b815260040160405180910390fd5b5095945050505050565b80515f906002811015610d6a5760405162461bcd60e51b815260206004820152602860248201527f476f7665726e6f723a20696e76616c6964206f7074696f6e20636f756e742028604482015267746f6f206665772960c01b60648201526084015b60405180910390fd5b600a811115610dcd5760405162461bcd60e51b815260206004820152602960248201527f476f7665726e6f723a20696e76616c6964206f7074696f6e20636f756e742028604482015268746f6f206d616e792960b81b6064820152608401610d61565b604051633eaf40f160e11b81523090637d5e81e290610df6908a908a908a908a90600401614697565b6020604051808303815f875af1158015610e12573d5f5f3e3d5ffd5b505050506040513d601f19601f82011682018060405250810190610e3691906146e3565b9150610cf58284611bd5565b5f5f610e5086868686611847565b9050610e7081610e606005611b68565b610e6a6004611b68565b17611b8a565b505f818152600460205260409020805460ff60f01b1916600160f01b17905530610e98610b25565b6001600160a01b031614610f21575f5b8651811015610f1f57306001600160a01b0316878281518110610ecd57610ecd6146fa565b60200260200101516001600160a01b031603610f1757610f17858281518110610ef857610ef86146fa565b6020026020010151805190602001206005611c6190919063ffffffff16565b600101610ea8565b505b610f2e8187878787611cc2565b30610f37610b25565b6001600160a01b031614158015610f6357506005546001600160801b03808216600160801b9092041614155b15610f6d575f6005555b6040518181527f712ae1383f79ac853f8d882153778e0260ef8f03b504e2866e0593e04d2b291f906020015b60405180910390a195945050505050565b5f90815260046020526040902054600160a01b900465ffffffffffff1690565b5f610b3860085465ffffffffffff1690565b5f610b4782611cd6565b5f5f610ff486868686611847565b905061100381610c515f611b68565b505f818152600460205260409020546001600160a01b0316331461103c5760405163233d98e360e01b8152336004820152602401610d61565b61104886868686611e0f565b9695505050505050565b60607f00000000000000000000000000000000000000000000000000000000000000006001600160a01b0316634bf5d7e96040518163ffffffff1660e01b81526004015f60405180830381865afa9250505080156110d157506040513d5f823e601f3d908101601f191682016040526110ce919081019061470e565b60015b61110d575060408051808201909152601d81527f6d6f64653d626c6f636b6e756d6265722666726f6d3d64656661756c74000000602082015290565b919050565b5f8033905061113184828560405180602001604052805f815250611e1c565b949350505050565b5f5f61121a876112147f3e83946653575f9a39005e1545185629e92736b7528ab20ca3816f315424a8118c8c8c61118c8e6001600160a01b03165f90815260026020526040902080546001810190915590565b8d8d60405161119c929190614782565b60405180910390208c805190602001206040516020016111f99796959493929190968752602087019590955260ff9390931660408601526001600160a01b03919091166060850152608084015260a083015260c082015260e00190565b60405160208183030381529060405280519060200120611e38565b85611e64565b905080611245576040516394ab6c0760e01b81526001600160a01b0388166004820152602401610d61565b61128889888a89898080601f0160208091040260200160405190810160405280939291908181526020018383808284375f920191909152508b9250611ed4915050565b9998505050505050505050565b5f818152600d6020908152604080832060018101548154835181860281018601909452808452606095949293849360ff9093169290918491879084015b8282101561137a578382905f5260205f200180546112ef90614626565b80601f016020809104026020016040519081016040528092919081815260200182805461131b90614626565b80156113665780601f1061133d57610100808354040283529160200191611366565b820191905f5260205f20905b81548152906001019060200180831161134957829003601f168201915b5050505050815260200190600101906112d2565b5050505091509250925050915091565b5f803390506113d287828888888080601f0160208091040260200160405190810160405280939291908181526020018383808284375f920191909152508a9250611ed4915050565b979650505050505050565b600a80545f9182906113f06001846147a5565b81548110611400576114006146fa565b5f918252602090912001805490915065ffffffffffff811690600160301b90046001600160d01b0316858211611442576001600160d01b031695945050505050565b61145661144e87611fb2565b600a90611fe8565b6001600160d01b03169695505050505050565b611471611a59565b610b5e81612097565b5f8033905061104886828787878080601f0160208091040260200160405190810160405280939291908181526020018383808284375f92019190915250611e1c92505050565b5f6114cd858585856120fd565b95945050505050565b5f6060805f5f5f60606114e76121b3565b6114ef6121df565b604080515f80825260208201909252600f60f81b9b939a50919850469750309650945092509050565b5f5f6115a2846112147ff2aad550cf55f045cb27e9c559f9889fdfb6e6cdaa032301d6ea397784ae51d789898961156b8b6001600160a01b03165f90815260026020526040902080546001810190915590565b60408051602081019690965285019390935260ff90911660608401526001600160a01b0316608083015260a082015260c0016111f9565b9050806115cd576040516394ab6c0760e01b81526001600160a01b0385166004820152602401610d61565b61104886858760405180602001604052805f815250611e1c565b5f7f00000000000000000000000000000000000000000000000000000000000000006001600160a01b03166391ddadf46040518163ffffffff1660e01b8152600401602060405180830381865afa925050508015611662575060408051601f3d908101601f1916820190925261165f918101906147b8565b60015b61110d57610b3861220c565b5f61167a848484612216565b90505b9392505050565b5f5f61168f84611295565b9150508060ff168360ff16106116e75760405162461bcd60e51b815260206004820152601e60248201527f476f7665726e6f723a20696e76616c6964206f7074696f6e20696e64657800006044820152606401610d61565b50505f918252600e6020908152604080842060ff93909316845291905290205490565b5f611715600a6122a9565b6001600160d01b0316905090565b61172b611a59565b610b5e816122e0565b5f6001610b47565b5f610b3860075490565b5f30611750610b25565b6001600160a01b03161461177757604051637485328f60e11b815260040160405180910390fd5b5063bc197c8160e01b95945050505050565b5f818152600460205260408120546117bd90600160d01b810463ffffffff1690600160a01b900465ffffffffffff166147d3565b65ffffffffffff1692915050565b6117d3611a59565b5f5f856001600160a01b03168585856040516117f0929190614782565b5f6040518083038185875af1925050503d805f811461182a576040519150601f19603f3d011682016040523d82523d5f602084013e61182f565b606091505b509150915061183e8282612349565b50505050505050565b5f8484848460405160200161185f94939291906147f1565b60408051601f19818403018152919052805160209091012095945050505050565b5f338161188c85611295565b9150505f8160ff16116118f35760405162461bcd60e51b815260206004820152602960248201527f476f7665726e6f723a207374616e646172642070726f706f73616c2c207573656044820152682063617374566f746560b81b6064820152608401610d61565b8060ff168460ff16106119485760405162461bcd60e51b815260206004820152601e60248201527f476f7665726e6f723a20696e76616c6964206f7074696f6e20696e64657800006044820152606401610d61565b6040516001600160f81b031960f886901b1660208201526001905f9060210160408051601f19818403018152602083019091525f825291506113d29088908690859085612365565b611998611a59565b610b5e8161248a565b5f61167d8383612526565b6119b4611a59565b610b5e81612545565b5f306119c7610b25565b6001600160a01b0316146119ee57604051637485328f60e11b815260040160405180910390fd5b5063f23a6e6160e01b95945050505050565b5f610b4782612586565b5f6001600160e01b031982166332a2ad4360e11b1480611a3a57506001600160e01b03198216630271189760e51b145b80610b4757506301ffc9a760e01b6001600160e01b0319831614610b47565b33611a62610b25565b6001600160a01b031614611a8b576040516347096e4760e01b8152336004820152602401610d61565b30611a94610b25565b6001600160a01b031614611ad0575f8036604051611ab3929190614782565b604051809103902090505b80611ac9600561262d565b03611abe57505b565b606480821115611aff5760405163243e544560e01b81526004810183905260248101829052604401610d61565b5f611b0861170a565b9050611b27611b156115e7565b611b1e8561269a565b600a91906126cd565b505060408051828152602081018590527f0553476bf02ef2726e8ce5ced78d63e26e602e4a2257b1f559418e24b463399791015b60405180910390a1505050565b5f816007811115611b7b57611b7b613f8b565b600160ff919091161b92915050565b5f5f611b9584610fdc565b90505f83611ba283611b68565b160361167d578381846040516331b75e4d60e01b8152600401610d619392919061483b565b5f61104886868686866126e7565b805160408051808201825283815260ff83166020808301919091525f868152600d8252929092208151805192939192611c119284920190613a56565b50602091909101516001909101805460ff191660ff9092169190911790556040517fde44dba4709aa2ac40b7989d7626c13318b46ec16c757844761c4bc8f75ad95290611b5b908590859061485d565b81546001600160801b03600160801b820481169181166001830190911603611c8d57611c8d6041612884565b6001600160801b038082165f90815260018086016020526040909120939093558354919092018216600160801b029116179055565b611ccf8585858585612895565b5050505050565b5f5f611ce183612925565b90506005816007811115611cf757611cf7613f8b565b14611d025792915050565b5f838152600c60205260409081902054600b549151632c258a9f60e11b81526004810182905290916001600160a01b03169063584b153e90602401602060405180830381865afa158015611d58573d5f5f3e3d5ffd5b505050506040513d601f19601f82011682018060405250810190611d7c9190614875565b15611d8b575060059392505050565b600b54604051632ab0f52960e01b8152600481018390526001600160a01b0390911690632ab0f52990602401602060405180830381865afa158015611dd2573d5f5f3e3d5ffd5b505050506040513d601f19601f82011682018060405250810190611df69190614875565b15611e05575060079392505050565b5060029392505050565b5f6114cd85858585612a56565b5f6114cd8585858560405180602001604052805f815250612365565b5f610b47611e44612aed565b8360405161190160f01b8152600281019290925260228201526042902090565b5f836001600160a01b03163b5f03611ec2575f5f611e828585612c16565b5090925090505f816003811115611e9b57611e9b613f8b565b148015611eb95750856001600160a01b0316826001600160a01b0316145b9250505061167d565b611ecd848484612c5f565b905061167d565b5f611ee386610c516001611b68565b505f611ef886611ef289610faa565b85612216565b90505f611f088888888588612d35565b905083515f03611f5e57866001600160a01b03167fb8e138887d0aa13bab447e82de9d5c1777041ecd21ca36ba824ff1e6c07ddda489888489604051611f519493929190614894565b60405180910390a26113d2565b866001600160a01b03167fe2babfbac5889a709b63bb7f598b324e08bc5a4fb9ec647fb3cbc9ec07eb87128988848989604051611f9f9594939291906148bb565b60405180910390a2979650505050505050565b5f65ffffffffffff821115611fe4576040516306dfcc6560e41b81526030600482015260248101839052604401610d61565b5090565b81545f9081816005811115612044575f61200184612ea5565b61200b90856147a5565b5f8881526020902090915081015465ffffffffffff908116908716101561203457809150612042565b61203f8160016148f4565b92505b505b5f61205187878585612ffd565b9050801561208b57612075876120686001846147a5565b5f91825260209091200190565b54600160301b90046001600160d01b03166113d2565b505f9695505050505050565b6008546040805165ffffffffffff928316815291831660208301527fc565b045403dc03c2eea82b81a0465edad9e2e7fc4d97e11421c209da93d7a93910160405180910390a16008805465ffffffffffff191665ffffffffffff92909216919091179055565b5f33612109818461305c565b6121315760405163d9b3955760e01b81526001600160a01b0382166004820152602401610d61565b5f61213a61173c565b905080156121a6575f6121688360016121516115e7565b61215b9190614907565b65ffffffffffff166119a1565b9050818110156121a457604051636121770b60e11b81526001600160a01b03841660048201526024810182905260448101839052606401610d61565b505b6113d287878787866130e1565b6060610b387f00000000000000000000000000000000000000000000000000000000000000005f6132fb565b6060610b387f000000000000000000000000000000000000000000000000000000000000000060016132fb565b5f610b3843611fb2565b5f7f0000000000000000000000000000000000000000000000000000000000000000604051630748d63560e31b81526001600160a01b038681166004830152602482018690529190911690633a46b1a890604401602060405180830381865afa158015612285573d5f5f3e3d5ffd5b505050506040513d601f19601f8201168201806040525081019061167a91906146e3565b80545f9080156122d8576122c2836120686001846147a5565b54600160301b90046001600160d01b031661167d565b5f9392505050565b600b54604080516001600160a01b03928316815291831660208301527f08f74ea46ef7894f65eabfb5e6e695de773a000b47c529ab559178069b226401910160405180910390a1600b80546001600160a01b0319166001600160a01b0392909216919091179055565b60608261235e57612359826133a4565b610b47565b5080610b47565b5f600161237187610fdc565b600781111561238257612382613f8b565b146123db5760405162461bcd60e51b815260206004820152602360248201527f476f7665726e6f723a20766f7465206e6f742063757272656e746c792061637460448201526269766560e81b6064820152608401610d61565b5f6123e587610faa565b90505f6123f287836119a1565b90506124018888888488612d35565b50866001600160a01b03167fb8e138887d0aa13bab447e82de9d5c1777041ecd21ca36ba824ff1e6c07ddda4898884896040516124419493929190614894565b60405180910390a2866001600160a01b03167fe2babfbac5889a709b63bb7f598b324e08bc5a4fb9ec647fb3cbc9ec07eb87128988848989604051611f9f9594939291906148bb565b8063ffffffff165f036124b25760405163f1cfbf0560e01b81525f6004820152602401610d61565b6008546040805163ffffffff600160301b9093048316815291831660208301527f7e3f7f0708a84de9203036abaa450dccc85ad5ff52f78c170f3edb55cf5e8828910160405180910390a16008805463ffffffff909216600160301b0269ffffffff00000000000019909216919091179055565b5f61167d838361254060408051602081019091525f815290565b612216565b60075460408051918252602082018390527fccb45da8d5717e6c4544694297c4ba5cf151d455c9bb0ed4fc7a38411bc05461910160405180910390a1600755565b5f6064612592836113dd565b604051632394e7a360e21b8152600481018590526001600160a01b037f00000000000000000000000000000000000000000000000000000000000000001690638e539e8c90602401602060405180830381865afa1580156125f5573d5f5f3e3d5ffd5b505050506040513d601f19601f8201168201806040525081019061261991906146e3565b6126239190614925565b610b479190614950565b80545f906001600160801b0380821691600160801b9004168103612655576126556031612884565b6001600160801b038181165f908152600185810160205260408220805492905585546fffffffffffffffffffffffffffffffff19169301909116919091179092555090565b5f6001600160d01b03821115611fe4576040516306dfcc6560e41b815260d0600482015260248101839052604401610d61565b5f806126da8585856133cd565b915091505b935093915050565b5f5f600b5f9054906101000a90046001600160a01b03166001600160a01b031663f27a0c926040518163ffffffff1660e01b8152600401602060405180830381865afa158015612739573d5f5f3e3d5ffd5b505050506040513d601f19601f8201168201806040525081019061275d91906146e3565b90505f3060601b6bffffffffffffffffffffffff19168418600b5460405163b1c5f42760e01b81529192506001600160a01b03169063b1c5f427906127ae908a908a908a905f90889060040161496f565b602060405180830381865afa1580156127c9573d5f5f3e3d5ffd5b505050506040513d601f19601f820116820180604052508101906127ed91906146e3565b5f898152600c602052604080822092909255600b5491516308f2a0bb60e41b81526001600160a01b0390921691638f2a0bb091612837918b918b918b919088908a906004016149bc565b5f604051808303815f87803b15801561284e575f5ffd5b505af1158015612860573d5f5f3e3d5ffd5b50505050612878824261287391906148f4565b611fb2565b98975050505050505050565b634e487b715f52806020526024601cfd5b600b546001600160a01b031663e38335e5348686865f3060601b6bffffffffffffffffffffffff191688186040518763ffffffff1660e01b81526004016128e095949392919061496f565b5f604051808303818588803b1580156128f7575f5ffd5b505af1158015612909573d5f5f3e3d5ffd5b5050505f9687525050600c602052505060408320929092555050565b5f818152600460205260408120805460ff600160f01b8204811691600160f81b900416811561295957506007949350505050565b801561296a57506002949350505050565b5f61297486610faa565b9050805f0361299957604051636ad0607560e01b815260048101879052602401610d61565b5f6129a26115e7565b65ffffffffffff1690508082106129bf57505f9695505050505050565b5f6129c988611789565b90508181106129e057506001979650505050505050565b6129e98861351d565b1580612a0857505f888152600960205260409020805460019091015411155b15612a1b57506003979650505050505050565b5f8881526004602052604090206001015465ffffffffffff165f03612a4857506004979650505050505050565b506005979650505050505050565b5f5f612a6486868686613553565b5f818152600c60205260409020549091508015610cf557600b5460405163c4d252f560e01b8152600481018390526001600160a01b039091169063c4d252f5906024015f604051808303815f87803b158015612abe575f5ffd5b505af1158015612ad0573d5f5f3e3d5ffd5b5050505f838152600c602052604081205550509050949350505050565b5f306001600160a01b037f000000000000000000000000000000000000000000000000000000000000000016148015612b4557507f000000000000000000000000000000000000000000000000000000000000000046145b15612b6f57507f000000000000000000000000000000000000000000000000000000000000000090565b610b38604080517f8b73c3c69bb8fe3d512ecc4cf759cc79239f7b179b0ffacaa9a75d522b39400f60208201527f0000000000000000000000000000000000000000000000000000000000000000918101919091527f000000000000000000000000000000000000000000000000000000000000000060608201524660808201523060a08201525f9060c00160405160208183030381529060405280519060200120905090565b5f5f5f8351604103612c4d576020840151604085015160608601515f1a612c3f88828585613602565b955095509550505050612c58565b505081515f91506002905b9250925092565b5f5f5f856001600160a01b03168585604051602401612c7f929190614a13565b60408051601f198184030181529181526020820180516001600160e01b0316630b135d3f60e11b17905251612cb49190614a2b565b5f60405180830381855afa9150503d805f8114612cec576040519150601f19603f3d011682016040523d82523d5f602084013e612cf1565b606091505b5091509150818015612d0557506020815110155b801561104857508051630b135d3f60e11b90612d2a90830160209081019084016146e3565b149695505050505050565b5f5f612d4487878787876136ca565b835190915060ff90600103612d7057835f81518110612d6557612d656146fa565b016020015160f81c90505b5f612d7a89611295565b9150508060ff168260ff161015612e98575f8160ff1611612df65760405162461bcd60e51b815260206004820152603060248201527f476f7665726e6f723a2043616e6e6f7420766f746520666f72206f7074696f6e60448201526f081bdb881cdd19081c1c9bdc1bdcd85b60821b6064820152608401610d61565b8660ff16600114612e675760405162461bcd60e51b815260206004820152603560248201527f476f7665726e6f723a20496e76616c696420737570706f727420666f72206f7060448201527474696f6e20766f746520286d75737420626520312960581b6064820152608401610d61565b5f898152600e6020908152604080832060ff8616845290915281208054889290612e929084906148f4565b90915550505b5090979650505050505050565b5f60018211612eb2575090565b816001600160801b8210612ecb5760809190911c9060401b5b680100000000000000008210612ee65760409190911c9060201b5b6401000000008210612efd5760209190911c9060101b5b620100008210612f125760109190911c9060081b5b6101008210612f265760089190911c9060041b5b60108210612f395760049190911c9060021b5b60048210612f455760011b5b600302600190811c90818581612f5d57612f5d61493c565b048201901c90506001818581612f7557612f7561493c565b048201901c90506001818581612f8d57612f8d61493c565b048201901c90506001818581612fa557612fa561493c565b048201901c90506001818581612fbd57612fbd61493c565b048201901c90506001818581612fd557612fd561493c565b048201901c9050612ff4818581612fee57612fee61493c565b04821190565b90039392505050565b5f5b81831015613054575f61301284846137c6565b5f8781526020902090915065ffffffffffff86169082015465ffffffffffff1611156130405780925061304e565b61304b8160016148f4565b93505b50612fff565b509392505050565b80515f906034811015613073576001915050610b47565b60131981840101516001600160b01b03198116692370726f706f7365723d60b01b146130a457600192505050610b47565b5f5f6130b486602a8603866137e0565b915091508115806113d25750866001600160a01b0316816001600160a01b03161494505050505092915050565b5f6130f58686868680519060200120611847565b90508451865114158061310a57508351865114155b8061311457508551155b1561314957855184518651604051630447b05d60e41b8152600481019390935260248301919091526044820152606401610d61565b5f81815260046020526040902054600160a01b900465ffffffffffff1615613192578061317582610fdc565b6040516331b75e4d60e01b8152610d619291905f9060040161483b565b5f61319b610fca565b6131a36115e7565b65ffffffffffff166131b591906148f4565b90505f6131cf60085463ffffffff600160301b9091041690565b5f84815260046020526040902080546001600160a01b0319166001600160a01b03871617815590915061320183611fb2565b815465ffffffffffff91909116600160a01b0265ffffffffffff60a01b1990911617815561322e82613889565b815463ffffffff91909116600160d01b0263ffffffff60d01b1990911617815588517f7d84a6263ae0d98d3329bd7b46bb4e8d6f98cd35a7adb45c274c8b7fd5ebd5e090859087908c908c906001600160401b0381111561329157613291613b96565b6040519080825280602002602001820160405280156132c457816020015b60608152602001906001900390816132af5790505b508c896132d18a826148f4565b8e6040516132e799989796959493929190614a41565b60405180910390a150505095945050505050565b606060ff83146133155761330e836138b9565b9050610b47565b81805461332190614626565b80601f016020809104026020016040519081016040528092919081815260200182805461334d90614626565b80156133985780601f1061336f57610100808354040283529160200191613398565b820191905f5260205f20905b81548152906001019060200180831161337b57829003601f168201915b50505050509050610b47565b8051156133b45780518082602001fd5b60405163d6bda27560e01b815260040160405180910390fd5b82545f90819080156134c3575f6133e9876120686001856147a5565b805490915065ffffffffffff80821691600160301b90046001600160d01b031690881682111561342c57604051632520601d60e01b815260040160405180910390fd5b8765ffffffffffff168265ffffffffffff160361346557825465ffffffffffff16600160301b6001600160d01b038916021783556134b5565b6040805180820190915265ffffffffffff808a1682526001600160d01b03808a1660208085019182528d54600181018f555f8f81529190912094519151909216600160301b029216919091179101555b94508593506126df92505050565b50506040805180820190915265ffffffffffff80851682526001600160d01b0380851660208085019182528854600181018a555f8a815291822095519251909316600160301b0291909316179201919091559050816126df565b5f8181526009602052604081206002810154600182015461353e91906148f4565b61354a610aee85610faa565b11159392505050565b5f5f61356186868686611847565b90506135af816135716007611b68565b61357b6006611b68565b6135856002611b68565b6001613592600782614ad6565b61359d906002614bca565b6135a791906147a5565b181818611b8a565b505f818152600460205260409081902080546001600160f81b0316600160f81b179055517f789cf55be980739dad1d0699b93b58e806b51c9d96619bfa8fe0a28abaa7b30c90610f999083815260200190565b5f80807f7fffffffffffffffffffffffffffffff5d576e7357a4501ddfe92f46681b20a084111561363b57505f915060039050826136c0565b604080515f808252602082018084528a905260ff891692820192909252606081018790526080810186905260019060a0016020604051602081039080840390855afa15801561368c573d5f5f3e3d5ffd5b5050604051601f1901519150506001600160a01b0381166136b757505f9250600191508290506136c0565b92505f91508190505b9450945094915050565b5f8581526009602090815260408083206001600160a01b03881684526003810190925282205460ff161561371c576040516371c6af4960e01b81526001600160a01b0387166004820152602401610d61565b6001600160a01b0386165f9081526003820160205260409020805460ff1916600117905560ff85166137655783815f015f82825461375a91906148f4565b909155506137bb9050565b5f1960ff8616016137835783816001015f82825461375a91906148f4565b60011960ff8616016137a25783816002015f82825461375a91906148f4565b6040516303599be160e11b815260040160405180910390fd5b509195945050505050565b5f6137d46002848418614950565b61167d908484166148f4565b5f5f84518311806137f057508284115b156137ff57505f9050806126df565b5f61380b8560016148f4565b84118015613833575061060f60f31b6138278787016020015190565b6001600160f01b031916145b90505f6138438215156002614925565b61384e9060286148f4565b90508061385b87876147a5565b0361387c575f5f61386d8989896138f6565b90965094506126df9350505050565b5f5f9350935050506126df565b5f63ffffffff821115611fe4576040516306dfcc6560e41b81526020600482015260248101839052604401610d61565b60605f6138c5836139b7565b6040805160208082528183019092529192505f91906020820181803683375050509182525060208101929092525090565b5f8084816139058660016148f4565b8511801561392d575061060f60f31b6139218388016020015190565b6001600160f01b031916145b90505f61393d8215156002614925565b90505f8061394b838a6148f4565b90505b878110156139a6575f61396c6139678784016020015190565b6139de565b9050600f8160ff16111561398b575f5f975097505050505050506126df565b613996601084614925565b60ff90911601915060010161394e565b506001999098509650505050505050565b5f60ff8216601f811115610b4757604051632cd44ac360e21b815260040160405180910390fd5b5f60f882901c602f811180156139f75750603a8160ff16105b15613a0557602f1901610b47565b60608160ff16118015613a1b575060678160ff16105b15613a295760561901610b47565b60408160ff16118015613a3f575060478160ff16105b15613a4d5760361901610b47565b5060ff92915050565b828054828255905f5260205f20908101928215613a9a579160200282015b82811115613a9a5782518290613a8a9082614c21565b5091602001919060010190613a74565b50611fe49291505b80821115611fe4575f613ab58282613abe565b50600101613aa2565b508054613aca90614626565b5f825580601f10613ad9575050565b601f0160209004905f5260205f2090810190610b5e91905b80821115611fe4575f8155600101613af1565b5f60208284031215613b14575f5ffd5b81356001600160e01b03198116811461167d575f5ffd5b5f60208284031215613b3b575f5ffd5b5035919050565b5f81518084528060208401602086015e5f602082860101526020601f19601f83011685010191505092915050565b602081525f61167d6020830184613b42565b6001600160a01b0381168114610b5e575f5ffd5b634e487b7160e01b5f52604160045260245ffd5b604051601f8201601f191681016001600160401b0381118282101715613bd257613bd2613b96565b604052919050565b5f6001600160401b03821115613bf257613bf2613b96565b50601f01601f191660200190565b5f82601f830112613c0f575f5ffd5b8135602083015f613c27613c2284613bda565b613baa565b9050828152858383011115613c3a575f5ffd5b828260208301375f92810160200192909252509392505050565b5f5f5f5f60808587031215613c67575f5ffd5b8435613c7281613b82565b93506020850135613c8281613b82565b92506040850135915060608501356001600160401b03811115613ca3575f5ffd5b613caf87828801613c00565b91505092959194509250565b5f6001600160401b03821115613cd357613cd3613b96565b5060051b60200190565b5f82601f830112613cec575f5ffd5b8135613cfa613c2282613cbb565b8082825260208201915060208360051b860101925085831115613d1b575f5ffd5b602085015b83811015610cf5578035613d3381613b82565b835260209283019201613d20565b5f82601f830112613d50575f5ffd5b8135613d5e613c2282613cbb565b8082825260208201915060208360051b860101925085831115613d7f575f5ffd5b602085015b83811015610cf5578035835260209283019201613d84565b5f82601f830112613dab575f5ffd5b8135613db9613c2282613cbb565b8082825260208201915060208360051b860101925085831115613dda575f5ffd5b602085015b83811015610cf55780356001600160401b03811115613dfc575f5ffd5b613e0b886020838a0101613c00565b84525060209283019201613ddf565b5f5f5f5f60808587031215613e2d575f5ffd5b84356001600160401b03811115613e42575f5ffd5b613e4e87828801613cdd565b94505060208501356001600160401b03811115613e69575f5ffd5b613e7587828801613d41565b93505060408501356001600160401b03811115613e90575f5ffd5b613e9c87828801613d9c565b949793965093946060013593505050565b5f5f5f5f5f60a08688031215613ec1575f5ffd5b85356001600160401b03811115613ed6575f5ffd5b613ee288828901613cdd565b95505060208601356001600160401b03811115613efd575f5ffd5b613f0988828901613d41565b94505060408601356001600160401b03811115613f24575f5ffd5b613f3088828901613d9c565b93505060608601356001600160401b03811115613f4b575f5ffd5b613f5788828901613c00565b92505060808601356001600160401b03811115613f72575f5ffd5b613f7e88828901613d9c565b9150509295509295909350565b634e487b7160e01b5f52602160045260245ffd5b60088110613fbb57634e487b7160e01b5f52602160045260245ffd5b9052565b60208101610b478284613f9f565b5f5f60408385031215613fde575f5ffd5b823591506020830135613ff081613b82565b809150509250929050565b803560ff8116811461110d575f5ffd5b5f5f6040838503121561401c575f5ffd5b8235915061402c60208401613ffb565b90509250929050565b5f5f83601f840112614045575f5ffd5b5081356001600160401b0381111561405b575f5ffd5b602083019150836020828501011115614072575f5ffd5b9250929050565b5f5f5f5f5f5f5f60c0888a03121561408f575f5ffd5b8735965061409f60208901613ffb565b955060408801356140af81613b82565b945060608801356001600160401b038111156140c9575f5ffd5b6140d58a828b01614035565b90955093505060808801356001600160401b038111156140f3575f5ffd5b6140ff8a828b01613c00565b92505060a08801356001600160401b0381111561411a575f5ffd5b6141268a828b01613c00565b91505092959891949750929550565b5f82825180855260208501945060208160051b830101602085015f5b8381101561418357601f1985840301885261416d838351613b42565b6020988901989093509190910190600101614151565b50909695505050505050565b604081525f6141a16040830185614135565b905060ff831660208301529392505050565b5f5f5f5f5f608086880312156141c7575f5ffd5b853594506141d760208701613ffb565b935060408601356001600160401b038111156141f1575f5ffd5b6141fd88828901614035565b90945092505060608601356001600160401b0381111561421b575f5ffd5b613f7e88828901613c00565b65ffffffffffff81168114610b5e575f5ffd5b5f6020828403121561424a575f5ffd5b813561167d81614227565b5f5f5f5f60608587031215614268575f5ffd5b8435935061427860208601613ffb565b925060408501356001600160401b03811115614292575f5ffd5b61429e87828801614035565b95989497509550505050565b5f5f5f5f608085870312156142bd575f5ffd5b84356001600160401b038111156142d2575f5ffd5b6142de87828801613cdd565b94505060208501356001600160401b038111156142f9575f5ffd5b61430587828801613d41565b93505060408501356001600160401b03811115614320575f5ffd5b61432c87828801613d9c565b92505060608501356001600160401b03811115613ca3575f5ffd5b5f60208284031215614357575f5ffd5b813561167d81613b82565b5f8151808452602084019350602083015f5b82811015614392578151865260209586019590910190600101614374565b5093949350505050565b60ff60f81b8816815260e060208201525f6143ba60e0830189613b42565b82810360408401526143cc8189613b42565b606084018890526001600160a01b038716608085015260a0840186905283810360c085015290506143fd8185614362565b9a9950505050505050505050565b5f5f5f5f6080858703121561441e575f5ffd5b8435935061442e60208601613ffb565b9250604085013561443e81613b82565b915060608501356001600160401b03811115613ca3575f5ffd5b5f5f5f6060848603121561446a575f5ffd5b833561447581613b82565b92506020840135915060408401356001600160401b03811115614496575f5ffd5b6144a286828701613c00565b9150509250925092565b5f5f5f5f5f60a086880312156144c0575f5ffd5b85356144cb81613b82565b945060208601356144db81613b82565b935060408601356001600160401b038111156144f5575f5ffd5b61450188828901613d41565b93505060608601356001600160401b0381111561451c575f5ffd5b61452888828901613d41565b92505060808601356001600160401b0381111561421b575f5ffd5b5f5f5f5f60608587031215614556575f5ffd5b843561456181613b82565b93506020850135925060408501356001600160401b03811115614292575f5ffd5b5f60208284031215614592575f5ffd5b813563ffffffff8116811461167d575f5ffd5b5f5f604083850312156145b6575f5ffd5b82356145c181613b82565b946020939093013593505050565b5f5f5f5f5f60a086880312156145e3575f5ffd5b85356145ee81613b82565b945060208601356145fe81613b82565b9350604086013592506060860135915060808601356001600160401b0381111561421b575f5ffd5b600181811c9082168061463a57607f821691505b60208210810361465857634e487b7160e01b5f52602260045260245ffd5b50919050565b5f8151808452602084019350602083015f5b828110156143925781516001600160a01b0316865260209586019590910190600101614670565b608081525f6146a9608083018761465e565b82810360208401526146bb8187614362565b905082810360408401526146cf8186614135565b905082810360608401526113d28185613b42565b5f602082840312156146f3575f5ffd5b5051919050565b634e487b7160e01b5f52603260045260245ffd5b5f6020828403121561471e575f5ffd5b81516001600160401b03811115614733575f5ffd5b8201601f81018413614743575f5ffd5b8051614751613c2282613bda565b818152856020838501011115614765575f5ffd5b8160208401602083015e5f91810160200191909152949350505050565b818382375f9101908152919050565b634e487b7160e01b5f52601160045260245ffd5b81810381811115610b4757610b47614791565b5f602082840312156147c8575f5ffd5b815161167d81614227565b65ffffffffffff8181168382160190811115610b4757610b47614791565b608081525f614803608083018761465e565b82810360208401526148158187614362565b905082810360408401526148298186614135565b91505082606083015295945050505050565b8381526060810161484f6020830185613f9f565b826040830152949350505050565b828152604060208201525f61167a6040830184614135565b5f60208284031215614885575f5ffd5b8151801515811461167d575f5ffd5b84815260ff84166020820152826040820152608060608201525f6110486080830184613b42565b85815260ff8516602082015283604082015260a060608201525f6148e260a0830185613b42565b82810360808401526128788185613b42565b80820180821115610b4757610b47614791565b65ffffffffffff8281168282160390811115610b4757610b47614791565b8082028115828204841417610b4757610b47614791565b634e487b7160e01b5f52601260045260245ffd5b5f8261496a57634e487b7160e01b5f52601260045260245ffd5b500490565b60a081525f61498160a083018861465e565b82810360208401526149938188614362565b905082810360408401526149a78187614135565b60608401959095525050608001529392505050565b60c081525f6149ce60c083018961465e565b82810360208401526149e08189614362565b905082810360408401526149f48188614135565b60608401969096525050608081019290925260a0909101529392505050565b828152604060208201525f61167a6040830184613b42565b5f82518060208501845e5f920191825250919050565b8981526001600160a01b0389166020820152610120604082018190525f90614a6b9083018a61465e565b8281036060840152614a7d818a614362565b90508281036080840152614a918189614135565b905082810360a0840152614aa58188614135565b90508560c08401528460e0840152828103610100840152614ac68185613b42565b9c9b505050505050505050505050565b60ff8181168382160190811115610b4757610b47614791565b6001815b60018411156126df57808504811115614b0e57614b0e614791565b6001841615614b1c57908102905b60019390931c928002614af3565b5f82614b3857506001610b47565b81614b4457505f610b47565b8160018114614b5a5760028114614b6457614b80565b6001915050610b47565b60ff841115614b7557614b75614791565b50506001821b610b47565b5060208310610133831016604e8410600b8410161715614ba3575081810a610b47565b614baf5f198484614aef565b805f1904821115614bc257614bc2614791565b029392505050565b5f61167d60ff841683614b2a565b601f821115614c1c57805f5260205f20601f840160051c81016020851015614bfd5750805b601f840160051c820191505b81811015611ccf575f8155600101614c09565b505050565b81516001600160401b03811115614c3a57614c3a613b96565b614c4e81614c488454614626565b84614bd8565b6020601f821160018114614c80575f8315614c695750848201515b5f19600385901b1c1916600184901b178455611ccf565b5f84815260208120601f198516915b82811015614caf5787850151825560209485019460019092019101614c8f565b5084821015614ccc57868401515f19600387901b60f8161c191681555b50505050600190811b0190555056fea264697066735822122095cdcbaf7e5a2e3bf327294ef3ed095fe7e082df87ee50529d99492eb7a6e2b264736f6c634300081c0033","linkReferences":{}},"methodIdentifiers":{"BALLOT_TYPEHASH()":"deaaa7cc","CLOCK_MODE()":"4bf5d7e9","COUNTING_MODE()":"dd4e2ba5","EXTENDED_BALLOT_TYPEHASH()":"2fe3e261","MAX_OPTIONS()":"0da183d6","MIN_OPTIONS()":"65104334","cancel(address[],uint256[],bytes[],bytes32)":"452115d6","castVote(uint256,uint8)":"56781388","castVoteBySig(uint256,uint8,address,bytes)":"8ff262e3","castVoteWithOption(uint256,uint8)":"d28bc965","castVoteWithReason(uint256,uint8,string)":"7b3c71d3","castVoteWithReasonAndParams(uint256,uint8,string,bytes)":"5f398a14","castVoteWithReasonAndParamsBySig(uint256,uint8,address,string,bytes,bytes)":"5b8d0e0d","clock()":"91ddadf4","eip712Domain()":"84b0196e","execute(address[],uint256[],bytes[],bytes32)":"2656227d","getVotes(address,uint256)":"eb9019d4","getVotesWithParams(address,uint256,bytes)":"9a802a6d","hasVoted(uint256,address)":"43859632","hashProposal(address[],uint256[],bytes[],bytes32)":"c59057e4","name()":"06fdde03","nonces(address)":"7ecebe00","onERC1155BatchReceived(address,address,uint256[],uint256[],bytes)":"bc197c81","onERC1155Received(address,address,uint256,uint256,bytes)":"f23a6e61","onERC721Received(address,address,uint256,bytes)":"150b7a02","proposalDeadline(uint256)":"c01f9e37","proposalEta(uint256)":"ab58fb8e","proposalNeedsQueuing(uint256)":"a9a95294","proposalOptionVotes(uint256,uint8)":"a2b211f3","proposalOptions(uint256)":"5d763841","proposalProposer(uint256)":"143489d0","proposalSnapshot(uint256)":"2d63f693","proposalThreshold()":"b58131b0","proposalVotes(uint256)":"544ffc9c","propose(address[],uint256[],bytes[],string)":"7d5e81e2","propose(address[],uint256[],bytes[],string,string[])":"1d0fbdcb","queue(address[],uint256[],bytes[],bytes32)":"160cbed7","quorum(uint256)":"f8ce560a","quorumDenominator()":"97c3d334","quorumNumerator()":"a7713a70","quorumNumerator(uint256)":"60c4247f","relay(address,uint256,bytes)":"c28bc2fa","setProposalThreshold(uint256)":"ece40cc1","setVotingDelay(uint48)":"79051887","setVotingPeriod(uint32)":"e540d01d","state(uint256)":"3e4f49e6","supportsInterface(bytes4)":"01ffc9a7","timelock()":"d33219b4","token()":"fc0c546a","updateQuorumNumerator(uint256)":"06f3f9e6","updateTimelock(address)":"a890c910","version()":"54fd4d50","votingDelay()":"3932abb1","votingPeriod()":"02a251a3"},"id":63}