{"abi":[{"type":"constructor","inputs":[{"name":"_token","type":"address","internalType":"contract IVotes"},{"name":"_timelock","type":"address","internalType":"contract TimelockController"},{"name":"_name","type":"string","internalType":"string"}],"stateMutability":"nonpayable"},{"type":"receive","stateMutability":"payable"},{"type":"function","name":"BALLOT_TYPEHASH","inputs":[],"outputs":[{"name":"","type":"bytes32","internalType":"bytes32"}],"stateMutability":"view"},{"type":"function","name":"CLOCK_MODE","inputs":[],"outputs":[{"name":"","type":"string","internalType":"string"}],"stateMutability":"view"},{"type":"function","name":"COUNTING_MODE","inputs":[],"outputs":[{"name":"","type":"string","internalType":"string"}],"stateMutability":"pure"},{"type":"function","name":"EXTENDED_BALLOT_TYPEHASH","inputs":[],"outputs":[{"name":"","type":"bytes32","internalType":"bytes32"}],"stateMutability":"view"},{"type":"function","name":"MAX_OPTIONS","inputs":[],"outputs":[{"name":"","type":"uint8","internalType":"uint8"}],"stateMutability":"view"},{"type":"function","name":"MIN_OPTIONS","inputs":[],"outputs":[{"name":"","type":"uint8","internalType":"uint8"}],"stateMutability":"view"},{"type":"function","name":"cancel","inputs":[{"name":"targets","type":"address[]","internalType":"address[]"},{"name":"values","type":"uint256[]","internalType":"uint256[]"},{"name":"calldatas","type":"bytes[]","internalType":"bytes[]"},{"name":"descriptionHash","type":"bytes32","internalType":"bytes32"}],"outputs":[{"name":"","type":"uint256","internalType":"uint256"}],"stateMutability":"nonpayable"},{"type":"function","name":"castVote","inputs":[{"name":"proposalId","type":"uint256","internalType":"uint256"},{"name":"support","type":"uint8","internalType":"uint8"}],"outputs":[{"name":"","type":"uint256","internalType":"uint256"}],"stateMutability":"nonpayable"},{"type":"function","name":"castVoteBySig","inputs":[{"name":"proposalId","type":"uint256","internalType":"uint256"},{"name":"support","type":"uint8","internalType":"uint8"},{"name":"voter","type":"address","internalType":"address"},{"name":"signature","type":"bytes","internalType":"bytes"}],"outputs":[{"name":"","type":"uint256","internalType":"uint256"}],"stateMutability":"nonpayable"},{"type":"function","name":"castVoteWithOption","inputs":[{"name":"proposalId","type":"uint256","internalType":"uint256"},{"name":"optionIndex","type":"uint8","internalType":"uint8"}],"outputs":[{"name":"balance","type":"uint256","internalType":"uint256"}],"stateMutability":"nonpayable"},{"type":"function","name":"castVoteWithReason","inputs":[{"name":"proposalId","type":"uint256","internalType":"uint256"},{"name":"support","type":"uint8","internalType":"uint8"},{"name":"reason","type":"string","internalType":"string"}],"outputs":[{"name":"","type":"uint256","internalType":"uint256"}],"stateMutability":"nonpayable"},{"type":"function","name":"castVoteWithReasonAndParams","inputs":[{"name":"proposalId","type":"uint256","internalType":"uint256"},{"name":"support","type":"uint8","internalType":"uint8"},{"name":"reason","type":"string","internalType":"string"},{"name":"params","type":"bytes","internalType":"bytes"}],"outputs":[{"name":"","type":"uint256","internalType":"uint256"}],"stateMutability":"nonpayable"},{"type":"function","name":"castVoteWithReasonAndParamsBySig","inputs":[{"name":"proposalId","type":"uint256","internalType":"uint256"},{"name":"support","type":"uint8","internalType":"uint8"},{"name":"voter","type":"address","internalType":"address"},{"name":"reason","type":"string","internalType":"string"},{"name":"params","type":"bytes","internalType":"bytes"},{"name":"signature","type":"bytes","internalType":"bytes"}],"outputs":[{"name":"","type":"uint256","internalType":"uint256"}],"stateMutability":"nonpayable"},{"type":"function","name":"clock","inputs":[],"outputs":[{"name":"","type":"uint48","internalType":"uint48"}],"stateMutability":"view"},{"type":"function","name":"eip712Domain","inputs":[],"outputs":[{"name":"fields","type":"bytes1","internalType":"bytes1"},{"name":"name","type":"string","internalType":"string"},{"name":"version","type":"string","internalType":"string"},{"name":"chainId","type":"uint256","internalType":"uint256"},{"name":"verifyingContract","type":"address","internalType":"address"},{"name":"salt","type":"bytes32","internalType":"bytes32"},{"name":"extensions","type":"uint256[]","internalType":"uint256[]"}],"stateMutability":"view"},{"type":"function","name":"evaluator","inputs":[],"outputs":[{"name":"","type":"address","internalType":"address"}],"stateMutability":"view"},{"type":"function","name":"execute","inputs":[{"name":"targets","type":"address[]","internalType":"address[]"},{"name":"values","type":"uint256[]","internalType":"uint256[]"},{"name":"calldatas","type":"bytes[]","internalType":"bytes[]"},{"name":"descriptionHash","type":"bytes32","internalType":"bytes32"}],"outputs":[{"name":"","type":"uint256","internalType":"uint256"}],"stateMutability":"payable"},{"type":"function","name":"getVotes","inputs":[{"name":"account","type":"address","internalType":"address"},{"name":"blockNumber","type":"uint256","internalType":"uint256"}],"outputs":[{"name":"","type":"uint256","internalType":"uint256"}],"stateMutability":"view"},{"type":"function","name":"getVotesWithParams","inputs":[{"name":"account","type":"address","internalType":"address"},{"name":"timepoint","type":"uint256","internalType":"uint256"},{"name":"params","type":"bytes","internalType":"bytes"}],"outputs":[{"name":"","type":"uint256","internalType":"uint256"}],"stateMutability":"view"},{"type":"function","name":"hasVoted","inputs":[{"name":"proposalId","type":"uint256","internalType":"uint256"},{"name":"account","type":"address","internalType":"address"}],"outputs":[{"name":"","type":"bool","internalType":"bool"}],"stateMutability":"view"},{"type":"function","name":"hashProposal","inputs":[{"name":"targets","type":"address[]","internalType":"address[]"},{"name":"values","type":"uint256[]","internalType":"uint256[]"},{"name":"calldatas","type":"bytes[]","internalType":"bytes[]"},{"name":"descriptionHash","type":"bytes32","internalType":"bytes32"}],"outputs":[{"name":"","type":"uint256","internalType":"uint256"}],"stateMutability":"pure"},{"type":"function","name":"name","inputs":[],"outputs":[{"name":"","type":"string","internalType":"string"}],"stateMutability":"view"},{"type":"function","name":"nonces","inputs":[{"name":"owner","type":"address","internalType":"address"}],"outputs":[{"name":"","type":"uint256","internalType":"uint256"}],"stateMutability":"view"},{"type":"function","name":"onERC1155BatchReceived","inputs":[{"name":"","type":"address","internalType":"address"},{"name":"","type":"address","internalType":"address"},{"name":"","type":"uint256[]","internalType":"uint256[]"},{"name":"","type":"uint256[]","internalType":"uint256[]"},{"name":"","type":"bytes","internalType":"bytes"}],"outputs":[{"name":"","type":"bytes4","internalType":"bytes4"}],"stateMutability":"nonpayable"},{"type":"function","name":"onERC1155Received","inputs":[{"name":"","type":"address","internalType":"address"},{"name":"","type":"address","internalType":"address"},{"name":"","type":"uint256","internalType":"uint256"},{"name":"","type":"uint256","internalType":"uint256"},{"name":"","type":"bytes","internalType":"bytes"}],"outputs":[{"name":"","type":"bytes4","internalType":"bytes4"}],"stateMutability":"nonpayable"},{"type":"function","name":"onERC721Received","inputs":[{"name":"","type":"address","internalType":"address"},{"name":"","type":"address","internalType":"address"},{"name":"","type":"uint256","internalType":"uint256"},{"name":"","type":"bytes","internalType":"bytes"}],"outputs":[{"name":"","type":"bytes4","internalType":"bytes4"}],"stateMutability":"nonpayable"},{"type":"function","name":"owner","inputs":[],"outputs":[{"name":"","type":"address","internalType":"address"}],"stateMutability":"view"},{"type":"function","name":"proposalAllVotes","inputs":[{"name":"proposalId","type":"uint256","internalType":"uint256"}],"outputs":[{"name":"allVotes","type":"uint256[]","internalType":"uint256[]"}],"stateMutability":"view"},{"type":"function","name":"proposalDeadline","inputs":[{"name":"proposalId","type":"uint256","internalType":"uint256"}],"outputs":[{"name":"","type":"uint256","internalType":"uint256"}],"stateMutability":"view"},{"type":"function","name":"proposalEta","inputs":[{"name":"proposalId","type":"uint256","internalType":"uint256"}],"outputs":[{"name":"","type":"uint256","internalType":"uint256"}],"stateMutability":"view"},{"type":"function","name":"proposalNeedsQueuing","inputs":[{"name":"proposalId","type":"uint256","internalType":"uint256"}],"outputs":[{"name":"","type":"bool","internalType":"bool"}],"stateMutability":"view"},{"type":"function","name":"proposalOptionVotes","inputs":[{"name":"proposalId","type":"uint256","internalType":"uint256"},{"name":"optionIndex","type":"uint8","internalType":"uint8"}],"outputs":[{"name":"optionVotes","type":"uint256","internalType":"uint256"}],"stateMutability":"view"},{"type":"function","name":"proposalOptions","inputs":[{"name":"proposalId","type":"uint256","internalType":"uint256"}],"outputs":[{"name":"options","type":"string[]","internalType":"string[]"},{"name":"optionCount","type":"uint8","internalType":"uint8"}],"stateMutability":"view"},{"type":"function","name":"proposalProposer","inputs":[{"name":"proposalId","type":"uint256","internalType":"uint256"}],"outputs":[{"name":"","type":"address","internalType":"address"}],"stateMutability":"view"},{"type":"function","name":"proposalSnapshot","inputs":[{"name":"proposalId","type":"uint256","internalType":"uint256"}],"outputs":[{"name":"","type":"uint256","internalType":"uint256"}],"stateMutability":"view"},{"type":"function","name":"proposalThreshold","inputs":[],"outputs":[{"name":"","type":"uint256","internalType":"uint256"}],"stateMutability":"view"},{"type":"function","name":"proposalVotes","inputs":[{"name":"proposalId","type":"uint256","internalType":"uint256"}],"outputs":[{"name":"againstVotes","type":"uint256","internalType":"uint256"},{"name":"forVotes","type":"uint256","internalType":"uint256"},{"name":"abstainVotes","type":"uint256","internalType":"uint256"}],"stateMutability":"view"},{"type":"function","name":"propose","inputs":[{"name":"targets","type":"address[]","internalType":"address[]"},{"name":"values","type":"uint256[]","internalType":"uint256[]"},{"name":"calldatas","type":"bytes[]","internalType":"bytes[]"},{"name":"description","type":"string","internalType":"string"},{"name":"options","type":"string[]","internalType":"string[]"}],"outputs":[{"name":"proposalId","type":"uint256","internalType":"uint256"}],"stateMutability":"nonpayable"},{"type":"function","name":"propose","inputs":[{"name":"targets","type":"address[]","internalType":"address[]"},{"name":"values","type":"uint256[]","internalType":"uint256[]"},{"name":"calldatas","type":"bytes[]","internalType":"bytes[]"},{"name":"description","type":"string","internalType":"string"}],"outputs":[{"name":"proposalId","type":"uint256","internalType":"uint256"}],"stateMutability":"nonpayable"},{"type":"function","name":"queue","inputs":[{"name":"targets","type":"address[]","internalType":"address[]"},{"name":"values","type":"uint256[]","internalType":"uint256[]"},{"name":"calldatas","type":"bytes[]","internalType":"bytes[]"},{"name":"descriptionHash","type":"bytes32","internalType":"bytes32"}],"outputs":[{"name":"","type":"uint256","internalType":"uint256"}],"stateMutability":"nonpayable"},{"type":"function","name":"quorum","inputs":[{"name":"blockNumber","type":"uint256","internalType":"uint256"}],"outputs":[{"name":"","type":"uint256","internalType":"uint256"}],"stateMutability":"view"},{"type":"function","name":"quorumDenominator","inputs":[],"outputs":[{"name":"","type":"uint256","internalType":"uint256"}],"stateMutability":"view"},{"type":"function","name":"quorumNumerator","inputs":[{"name":"timepoint","type":"uint256","internalType":"uint256"}],"outputs":[{"name":"","type":"uint256","internalType":"uint256"}],"stateMutability":"view"},{"type":"function","name":"quorumNumerator","inputs":[],"outputs":[{"name":"","type":"uint256","internalType":"uint256"}],"stateMutability":"view"},{"type":"function","name":"relay","inputs":[{"name":"target","type":"address","internalType":"address"},{"name":"value","type":"uint256","internalType":"uint256"},{"name":"data","type":"bytes","internalType":"bytes"}],"outputs":[],"stateMutability":"payable"},{"type":"function","name":"renounceOwnership","inputs":[],"outputs":[],"stateMutability":"nonpayable"},{"type":"function","name":"setEvaluator","inputs":[{"name":"_newEvaluator","type":"address","internalType":"address"}],"outputs":[],"stateMutability":"nonpayable"},{"type":"function","name":"setProposalThreshold","inputs":[{"name":"newProposalThreshold","type":"uint256","internalType":"uint256"}],"outputs":[],"stateMutability":"nonpayable"},{"type":"function","name":"setVotingDelay","inputs":[{"name":"newVotingDelay","type":"uint48","internalType":"uint48"}],"outputs":[],"stateMutability":"nonpayable"},{"type":"function","name":"setVotingPeriod","inputs":[{"name":"newVotingPeriod","type":"uint32","internalType":"uint32"}],"outputs":[],"stateMutability":"nonpayable"},{"type":"function","name":"state","inputs":[{"name":"proposalId","type":"uint256","internalType":"uint256"}],"outputs":[{"name":"","type":"uint8","internalType":"enum IGovernor.ProposalState"}],"stateMutability":"view"},{"type":"function","name":"supportsInterface","inputs":[{"name":"interfaceId","type":"bytes4","internalType":"bytes4"}],"outputs":[{"name":"","type":"bool","internalType":"bool"}],"stateMutability":"view"},{"type":"function","name":"timelock","inputs":[],"outputs":[{"name":"","type":"address","internalType":"address"}],"stateMutability":"view"},{"type":"function","name":"token","inputs":[],"outputs":[{"name":"","type":"address","internalType":"contract IERC5805"}],"stateMutability":"view"},{"type":"function","name":"transferOwnership","inputs":[{"name":"newOwner","type":"address","internalType":"address"}],"outputs":[],"stateMutability":"nonpayable"},{"type":"function","name":"updateQuorumNumerator","inputs":[{"name":"newQuorumNumerator","type":"uint256","internalType":"uint256"}],"outputs":[],"stateMutability":"nonpayable"},{"type":"function","name":"updateTimelock","inputs":[{"name":"newTimelock","type":"address","internalType":"contract TimelockController"}],"outputs":[],"stateMutability":"nonpayable"},{"type":"function","name":"version","inputs":[],"outputs":[{"name":"","type":"string","internalType":"string"}],"stateMutability":"view"},{"type":"function","name":"votingDelay","inputs":[],"outputs":[{"name":"","type":"uint256","internalType":"uint256"}],"stateMutability":"view"},{"type":"function","name":"votingPeriod","inputs":[],"outputs":[{"name":"","type":"uint256","internalType":"uint256"}],"stateMutability":"view"},{"type":"event","name":"EIP712DomainChanged","inputs":[],"anonymous":false},{"type":"event","name":"EvaluatorSet","inputs":[{"name":"newEvaluator","type":"address","indexed":false,"internalType":"address"}],"anonymous":false},{"type":"event","name":"OwnershipTransferred","inputs":[{"name":"previousOwner","type":"address","indexed":true,"internalType":"address"},{"name":"newOwner","type":"address","indexed":true,"internalType":"address"}],"anonymous":false},{"type":"event","name":"ProposalCanceled","inputs":[{"name":"proposalId","type":"uint256","indexed":false,"internalType":"uint256"}],"anonymous":false},{"type":"event","name":"ProposalCreated","inputs":[{"name":"proposalId","type":"uint256","indexed":false,"internalType":"uint256"},{"name":"proposer","type":"address","indexed":false,"internalType":"address"},{"name":"targets","type":"address[]","indexed":false,"internalType":"address[]"},{"name":"values","type":"uint256[]","indexed":false,"internalType":"uint256[]"},{"name":"signatures","type":"string[]","indexed":false,"internalType":"string[]"},{"name":"calldatas","type":"bytes[]","indexed":false,"internalType":"bytes[]"},{"name":"voteStart","type":"uint256","indexed":false,"internalType":"uint256"},{"name":"voteEnd","type":"uint256","indexed":false,"internalType":"uint256"},{"name":"description","type":"string","indexed":false,"internalType":"string"}],"anonymous":false},{"type":"event","name":"ProposalExecuted","inputs":[{"name":"proposalId","type":"uint256","indexed":false,"internalType":"uint256"}],"anonymous":false},{"type":"event","name":"ProposalOptionsCreated","inputs":[{"name":"proposalId","type":"uint256","indexed":false,"internalType":"uint256"},{"name":"options","type":"string[]","indexed":false,"internalType":"string[]"}],"anonymous":false},{"type":"event","name":"ProposalQueued","inputs":[{"name":"proposalId","type":"uint256","indexed":false,"internalType":"uint256"},{"name":"etaSeconds","type":"uint256","indexed":false,"internalType":"uint256"}],"anonymous":false},{"type":"event","name":"ProposalThresholdSet","inputs":[{"name":"oldProposalThreshold","type":"uint256","indexed":false,"internalType":"uint256"},{"name":"newProposalThreshold","type":"uint256","indexed":false,"internalType":"uint256"}],"anonymous":false},{"type":"event","name":"QuorumNumeratorUpdated","inputs":[{"name":"oldQuorumNumerator","type":"uint256","indexed":false,"internalType":"uint256"},{"name":"newQuorumNumerator","type":"uint256","indexed":false,"internalType":"uint256"}],"anonymous":false},{"type":"event","name":"TimelockChange","inputs":[{"name":"oldTimelock","type":"address","indexed":false,"internalType":"address"},{"name":"newTimelock","type":"address","indexed":false,"internalType":"address"}],"anonymous":false},{"type":"event","name":"VoteCast","inputs":[{"name":"voter","type":"address","indexed":true,"internalType":"address"},{"name":"proposalId","type":"uint256","indexed":false,"internalType":"uint256"},{"name":"support","type":"uint8","indexed":false,"internalType":"uint8"},{"name":"weight","type":"uint256","indexed":false,"internalType":"uint256"},{"name":"reason","type":"string","indexed":false,"internalType":"string"}],"anonymous":false},{"type":"event","name":"VoteCastWithParams","inputs":[{"name":"voter","type":"address","indexed":true,"internalType":"address"},{"name":"proposalId","type":"uint256","indexed":false,"internalType":"uint256"},{"name":"support","type":"uint8","indexed":false,"internalType":"uint8"},{"name":"weight","type":"uint256","indexed":false,"internalType":"uint256"},{"name":"reason","type":"string","indexed":false,"internalType":"string"},{"name":"params","type":"bytes","indexed":false,"internalType":"bytes"}],"anonymous":false},{"type":"event","name":"VotingDelaySet","inputs":[{"name":"oldVotingDelay","type":"uint256","indexed":false,"internalType":"uint256"},{"name":"newVotingDelay","type":"uint256","indexed":false,"internalType":"uint256"}],"anonymous":false},{"type":"event","name":"VotingPeriodSet","inputs":[{"name":"oldVotingPeriod","type":"uint256","indexed":false,"internalType":"uint256"},{"name":"newVotingPeriod","type":"uint256","indexed":false,"internalType":"uint256"}],"anonymous":false},{"type":"error","name":"CheckpointUnorderedInsertion","inputs":[]},{"type":"error","name":"FailedCall","inputs":[]},{"type":"error","name":"GovernorAlreadyCastVote","inputs":[{"name":"voter","type":"address","internalType":"address"}]},{"type":"error","name":"GovernorAlreadyQueuedProposal","inputs":[{"name":"proposalId","type":"uint256","internalType":"uint256"}]},{"type":"error","name":"GovernorDisabledDeposit","inputs":[]},{"type":"error","name":"GovernorInsufficientProposerVotes","inputs":[{"name":"proposer","type":"address","internalType":"address"},{"name":"votes","type":"uint256","internalType":"uint256"},{"name":"threshold","type":"uint256","internalType":"uint256"}]},{"type":"error","name":"GovernorInvalidProposalLength","inputs":[{"name":"targets","type":"uint256","internalType":"uint256"},{"name":"calldatas","type":"uint256","internalType":"uint256"},{"name":"values","type":"uint256","internalType":"uint256"}]},{"type":"error","name":"GovernorInvalidQuorumFraction","inputs":[{"name":"quorumNumerator","type":"uint256","internalType":"uint256"},{"name":"quorumDenominator","type":"uint256","internalType":"uint256"}]},{"type":"error","name":"GovernorInvalidSignature","inputs":[{"name":"voter","type":"address","internalType":"address"}]},{"type":"error","name":"GovernorInvalidVoteParams","inputs":[]},{"type":"error","name":"GovernorInvalidVoteType","inputs":[]},{"type":"error","name":"GovernorInvalidVotingPeriod","inputs":[{"name":"votingPeriod","type":"uint256","internalType":"uint256"}]},{"type":"error","name":"GovernorNonexistentProposal","inputs":[{"name":"proposalId","type":"uint256","internalType":"uint256"}]},{"type":"error","name":"GovernorNotQueuedProposal","inputs":[{"name":"proposalId","type":"uint256","internalType":"uint256"}]},{"type":"error","name":"GovernorOnlyExecutor","inputs":[{"name":"account","type":"address","internalType":"address"}]},{"type":"error","name":"GovernorOnlyProposer","inputs":[{"name":"account","type":"address","internalType":"address"}]},{"type":"error","name":"GovernorQueueNotImplemented","inputs":[]},{"type":"error","name":"GovernorRestrictedProposer","inputs":[{"name":"proposer","type":"address","internalType":"address"}]},{"type":"error","name":"GovernorUnexpectedProposalState","inputs":[{"name":"proposalId","type":"uint256","internalType":"uint256"},{"name":"current","type":"uint8","internalType":"enum IGovernor.ProposalState"},{"name":"expectedStates","type":"bytes32","internalType":"bytes32"}]},{"type":"error","name":"InvalidAccountNonce","inputs":[{"name":"account","type":"address","internalType":"address"},{"name":"currentNonce","type":"uint256","internalType":"uint256"}]},{"type":"error","name":"InvalidShortString","inputs":[]},{"type":"error","name":"OwnableInvalidOwner","inputs":[{"name":"owner","type":"address","internalType":"address"}]},{"type":"error","name":"OwnableUnauthorizedAccount","inputs":[{"name":"account","type":"address","internalType":"address"}]},{"type":"error","name":"SafeCastOverflowedUintDowncast","inputs":[{"name":"bits","type":"uint8","internalType":"uint8"},{"name":"value","type":"uint256","internalType":"uint256"}]},{"type":"error","name":"StringTooLong","inputs":[{"name":"str","type":"string","internalType":"string"}]}],"bytecode":{"object":"0x610180604052346100ae5761001b61001561012b565b916101c7565b6040516148869081610ada823960805181613b4a015260a05181613c01015260c05181613b14015260e05181613b9901526101005181613bbf015261012051816117b6015261014051816117e2015261016051818181611a520152818161204b0152818161220b015281816122aa0152818161268201528181612a1901528181612c22015281816135a4015261459c0152f35b5f80fd5b634e487b7160e01b5f52604160045260245ffd5b601f909101601f19168101906001600160401b038211908210176100e957604052565b6100b2565b604051906100fd6040836100c6565b565b6001600160a01b038116036100ae57565b6001600160401b0381116100e957601f01601f191660200190565b61536090813803806040519361014182866100c6565b84398201906060838303126100ae57825161015b816100ff565b60208401519361016a856100ff565b6040810151906001600160401b0382116100ae570183601f820112156100ae5780519061019682610110565b946101a460405196876100c6565b828652602083830101116100ae57815f9260208093018388015e85010152929190565b61027d6102af936040516101dc6040826100c6565b6001815260208101603160f81b81526101f48361065e565b610120526102018261074e565b6101405282516020840120918260e05251902080610100524660a0526040519060208201927f8b73c3c69bb8fe3d512ecc4cf759cc79239f7b179b0ffacaa9a75d522b39400f8452604083015260608201524660808201523060a082015260a0815261026e60c0826100c6565b5190206080523060c052610359565b610285610586565b61028d6105d1565b610295610625565b6001600160a01b0316610160526102aa6104d9565b610486565b33156102be576100fd3361043e565b631e4fbdf760e01b5f90815260045260245ffd5b90600182811c92168015610300575b60208310146102ec57565b634e487b7160e01b5f52602260045260245ffd5b91607f16916102e1565b601f821161031757505050565b5f5260205f20906020601f840160051c8301931061034f575b601f0160051c01905b818110610344575050565b5f8155600101610339565b9091508190610330565b80519091906001600160401b0381116100e9576103828161037b6003546102d2565b600361030a565b602092601f82116001146103c2576103b2929382915f926103b7575b50508160011b915f199060031b1c19161790565b600355565b015190505f8061039e565b60035f52601f198216937fc2575a0e9e593c00f959f8c92f12db2869c3395a3b0502d05e2516446f71f85b915f5b868110610426575083600195961061040e575b505050811b01600355565b01515f1960f88460031b161c191690555f8080610403565b919260206001819286850151815501940192016103f0565b600e80546001600160a01b039283166001600160a01b0319821681179092559091167f8be0079c531659141344cd1fd0a4f28419497f9722a3daafe3b4186f6b6457e05f80a3565b600b54604080516001600160a01b03808416825290931660208401819052927f08f74ea46ef7894f65eabfb5e6e695de773a000b47c529ab559178069b2264019190a16001600160a01b03191617600b55565b600a548061053957505f5b6001600160d01b03166104f5610840565b7f0553476bf02ef2726e8ce5ced78d63e26e602e4a2257b1f559418e24b4633997916004916105259083906109a1565b5050604080519182526020820192909252a1565b805f1981011161057257600a5f527fc65a7bb8d6351c1cf70c95a316cc6a92839c986682d98bc35f958f4883f9d2a7015460301c6104e4565b634e487b7160e01b5f52601160045260245ffd5b60016008547fc565b045403dc03c2eea82b81a0465edad9e2e7fc4d97e11421c209da93d7a936040805165ffffffffffff84168152846020820152a165ffffffffffff191617600855565b66040000000000006008547f7e3f7f0708a84de9203036abaa450dccc85ad5ff52f78c170f3edb55cf5e88286040805163ffffffff8460301c16815260046020820152a163ffffffff60301b191617600855565b600754604080519182525f60208301527fccb45da8d5717e6c4544694297c4ba5cf151d455c9bb0ed4fc7a38411bc0546191a15f600755565b908151602081105f14610679575090610676906108c1565b90565b6001600160401b0381116100e95761069b816106955f546102d2565b5f61030a565b602092601f82116001146106d1576106ca929382915f926103b75750508160011b915f199060031b1c19161790565b5f5560ff90565b5f8052601f198216937f290decd9548b62a8d60345a988386fc84ba6bc95484008f6362f93160ef3e563915f5b868110610736575083600195961061071e575b505050811b015f5560ff90565b01515f1960f88460031b161c191690555f8080610711565b919260206001819286850151815501940192016106fe565b908151602081105f14610766575090610676906108c1565b6001600160401b0381116100e95761078a816107836001546102d2565b600161030a565b602092601f82116001146107c1576107b9929382915f926103b75750508160011b915f199060031b1c19161790565b60015560ff90565b60015f52601f198216937fb10e2d527612073b26eecdfd717e6a320cf44b4afac2b0732d9fcbe2b7fa0cf6915f5b8681106108285750836001959610610810575b505050811b0160015560ff90565b01515f1960f88460031b161c191690555f8080610802565b919260206001819286850151815501940192016107ef565b610160516040516324776b7d60e21b815290602090829060049082906001600160a01b03165afa5f918161087e575b50610676575061067643610aaa565b9091506020813d6020116108b9575b8161089a602093836100c6565b810103126100ae575165ffffffffffff811681036100ae57905f61086f565b3d915061088d565b601f8151116108ec5760208151910151602082106108dd571790565b5f198260200360031b1b161790565b604460209160405192839163305a27a960e01b83528160048401528051918291826024860152018484015e5f828201840152601f01601f19168101030190fd5b5f1981019190821161057257565b908154680100000000000000008110156100e9576001810180845581101561098d575f9283526020928390208251929093015160301b65ffffffffffff191665ffffffffffff9290921691909117910155565b634e487b7160e01b5f52603260045260245ffd5b600a549192918015610a81576109b96109e29161092c565b600a5f527fc65a7bb8d6351c1cf70c95a316cc6a92839c986682d98bc35f958f4883f9d2a80190565b9081546109fe6109f78265ffffffffffff1690565b9160301c90565b9265ffffffffffff808416921691808311610a7257869203610a3c57610a3892509065ffffffffffff82549181199060301b169116179055565b9190565b5050610a3890610a5b610a4d6100ee565b65ffffffffffff9092168252565b6001600160d01b03851660208201525b600a61093a565b632520601d60e01b5f5260045ffd5b50610aa590610a91610a4d6100ee565b6001600160d01b0384166020820152610a6b565b5f9190565b65ffffffffffff8111610ac25765ffffffffffff1690565b6306dfcc6560e41b5f52603060045260245260445ffdfe60806040526004361015610022575b3615610018575f80fd5b610020612c6e565b005b5f3560e01c806301ffc9a7146103e157806302a251a3146103dc57806302dbbbac146103d757806306f3f9e6146103d257806306fdde03146103cd5780630da183d6146103c8578063143489d0146103c3578063150b7a02146103be578063160cbed7146103b95780631d0fbdcb146103b45780632656227d146103af5780632c802865146103aa5780632d63f693146103a55780632fe3e261146103a05780633932abb11461039b5780633e4f49e6146103965780634385963214610391578063452115d61461038c5780634bf5d7e914610387578063544ffc9c1461038257806354fd4d501461037d57806356781388146103785780635b8d0e0d146103735780635d7638411461036e5780635f398a141461036957806360c4247f14610364578063651043341461035f578063715018a61461035a57806379051887146103555780637b3c71d3146103505780637d5e81e21461034b5780637ecebe001461034657806384b0196e146103415780638da5cb5b1461033c5780638ff262e31461033757806391ddadf41461033257806397c3d3341461032d5780639a802a6d146103285780639cb93dd114610323578063a2b211f31461031e578063a7713a7014610319578063a890c91014610314578063a9a952941461030f578063ab58fb8e1461030a578063b58131b014610305578063bc197c8114610300578063c01f9e37146102fb578063c28bc2fa146102f6578063c59057e4146102f1578063d28bc965146102ec578063d33219b4146102e7578063dd4e2ba5146102e2578063deaaa7cc146102dd578063e540d01d146102d8578063eb9019d4146102d3578063ece40cc1146102ce578063f23a6e61146102c9578063f2fde38b146102c4578063f8ce560a146102bf5763fc0c546a0361000e57612295565b6121da565b612150565b6120e3565b61208e565b611fe9565b611f43565b611f09565b611eaa565b611e82565b611d9e565b611d82565b611d17565b611cf9565b611c4c565b611c2f565b611bfc565b611be0565b611b68565b611b3d565b611add565b611ab5565b6119e0565b6119c5565b61199b565b611886565b61185e565b61179e565b611763565b6116c6565b611671565b6115ff565b611594565b611579565b61155b565b6114e6565b6114a6565b6113b8565b61134a565b6112f7565b6112b4565b611285565b611125565b6110d0565b6110a1565b61104b565b611011565b610fdc565b610ef6565b610d52565b610c86565b610a3f565b6107fb565b6106f7565b6106dc565b610602565b610504565b610494565b61045d565b3461044f57602036600319011261044f5760043563ffffffff60e01b811680910361044f576020906332a2ad4360e11b811490811561043e575b811561042d575b506040519015158152f35b6301ffc9a760e01b1490505f610422565b630271189760e51b8114915061041b565b5f80fd5b5f91031261044f57565b3461044f575f36600319011261044f57602063ffffffff60085460301c16604051908152f35b6001600160a01b0381160361044f57565b3461044f57602036600319011261044f577f2f254c337ab0817f67c5b98ae3acc4c867a9985063f770cff1fb3a065cb5226460206004356104d481610483565b6104dc612c84565b601080546001600160a01b0319166001600160a01b03929092169182179055604051908152a1005b3461044f57602036600319011261044f57600435610520612cab565b606481116105b3576001600160d01b03610538613759565b1690610542612a04565b916001600160d01b03821161059b577f0553476bf02ef2726e8ce5ced78d63e26e602e4a2257b1f559418e24b463399792610587906001600160d01b03841690614475565b5050604080519182526020820192909252a1005b506306dfcc6560e41b5f5260d060045260245260445ffd5b63243e544560e01b5f52600452606460245260445ffd5b805180835260209291819084018484015e5f828201840152601f01601f1916010190565b9060206105ff9281815201906105ca565b90565b3461044f575f36600319011261044f576040515f600354610622816122d9565b80845290600181169081156106b8575060011461065a575b6106568361064a8185038261075d565b604051918291826105ee565b0390f35b60035f9081527fc2575a0e9e593c00f959f8c92f12db2869c3395a3b0502d05e2516446f71f85b939250905b80821061069e5750909150810160200161064a61063a565b919260018160209254838588010152019101909291610686565b60ff191660208086019190915291151560051b8401909101915061064a905061063a565b3461044f575f36600319011261044f576020604051600a8152f35b3461044f57602036600319011261044f576004355f526004602052602060018060a01b0360405f205416604051908152f35b634e487b7160e01b5f52604160045260245ffd5b604081019081106001600160401b0382111761075857604052565b610729565b90601f801991011681019081106001600160401b0382111761075857604052565b6040519061078d60408361075d565b565b6001600160401b03811161075857601f01601f191660200190565b9291926107b68261078f565b916107c4604051938461075d565b82948184528183011161044f578281602093845f960137010152565b9080601f8301121561044f578160206105ff933591016107aa565b3461044f57608036600319011261044f57610817600435610483565b610822602435610483565b6064356001600160401b03811161044f576108419036906004016107e0565b50600b54306001600160a01b039091160361086857604051630a85bd0160e11b8152602090f35b637485328f60e11b5f5260045ffd5b6001600160401b0381116107585760051b60200190565b9080601f8301121561044f5781356108a581610877565b926108b3604051948561075d565b81845260208085019260051b82010192831161044f57602001905b8282106108db5750505090565b6020809183356108ea81610483565b8152019101906108ce565b9080601f8301121561044f57813561090c81610877565b9261091a604051948561075d565b81845260208085019260051b82010192831161044f57602001905b8282106109425750505090565b8135815260209182019101610935565b9080601f8301121561044f57813561096981610877565b92610977604051948561075d565b81845260208085019260051b8201019183831161044f5760208201905b8382106109a357505050505090565b81356001600160401b03811161044f576020916109c5878480948801016107e0565b815201910190610994565b608060031982011261044f576004356001600160401b03811161044f57816109fa9160040161088e565b916024356001600160401b03811161044f5782610a19916004016108f5565b91604435906001600160401b03821161044f57610a3891600401610952565b9060643590565b3461044f57610a4d366109d0565b9092610a5b82858584612b78565b93610a6585612d53565b50600b54610a83906001600160a01b03165b6001600160a01b031690565b936040519363793d064960e11b8552602085600481895afa948515610c31575f95610c65575b503060601b6bffffffffffffffffffffffff191618946020604051809263b1c5f42760e01b82528180610ae28b89898c600486016138f2565b03915afa908115610c31575f91610c36575b50610b07875f52600c60205260405f2090565b55600b54610b1d906001600160a01b0316610a77565b90813b1561044f575f8094610b4987604051998a97889687956308f2a0bb60e41b875260048701613937565b03925af1908115610c3157610b6d92610b6892610c17575b50426136af565b613672565b9065ffffffffffff821615610c08577f9a2e42fd6722813d69113e7d0079d3d940171428df7373df9c7f7617cfda2892610bf583610bd6610656956001610bbc875f52600460205260405f2090565b019065ffffffffffff1665ffffffffffff19825416179055565b6040805185815265ffffffffffff909216602083015290918291820190565b0390a16040519081529081906020820190565b634844252360e11b5f5260045ffd5b80610c255f610c2b9361075d565b80610453565b5f610b61565b612483565b610c58915060203d602011610c5e575b610c50818361075d565b8101906123f0565b5f610af4565b503d610c46565b610c7f91955060203d602011610c5e57610c50818361075d565b935f610aa9565b3461044f5760a036600319011261044f576004356001600160401b03811161044f57610cb690369060040161088e565b6024356001600160401b03811161044f57610cd59036906004016108f5565b906044356001600160401b03811161044f57610cf5903690600401610952565b906064356001600160401b03811161044f57610d159036906004016107e0565b608435926001600160401b03841161044f5761065694610d3c610d42953690600401610952565b9361248e565b6040519081529081906020820190565b610d5b366109d0565b91610d6883838387612b78565b936020610d76603087612e13565b50610d9f610d8c875f52600460205260405f2090565b805460ff60f01b1916600160f01b179055565b600b54306001600160a01b0390911603610e4a575b5091849391610dc69361065696613984565b600b543090610ddd906001600160a01b0316610a77565b141580610e25575b610e1c575b6040518181527f712ae1383f79ac853f8d882153778e0260ef8f03b504e2866e0593e04d2b291f908060208101610bf5565b5f600555610dea565b50610e45610e416005546001600160801b0381169060801c1490565b1590565b610de5565b949091935f5b8351811015610ea45760019030610e7a610a77610e6d8489612599565b516001600160a01b031690565b14610e86575b01610e50565b610e9f610e938288612599565b51898151910120613124565b610e80565b509094509290610656610db4565b90602080835192838152019201905f5b818110610ecf5750505090565b8251845260209384019390920191600101610ec2565b9060206105ff928181520190610eb2565b3461044f57602036600319011261044f576004355f81815260096020526040902080546001820154600290920154909190610f308461282f565b929050610f4760ff610f41856125c1565b166125ed565b93845115610fd7576020850152610f5d84612579565b52610f6783612589565b525f5b60ff821660ff821610610f8557604051806106568582610ee5565b60ff600182610fb18394610fa1895f52600f60205260405f2090565b9060ff165f5260205260405f2090565b54610fcd610fc7610fc1846125c1565b60ff1690565b88612599565b5201169050610f6a565b612565565b3461044f57602036600319011261044f576004355f526004602052602065ffffffffffff60405f205460a01c16604051908152f35b3461044f575f36600319011261044f5760206040517f3e83946653575f9a39005e1545185629e92736b7528ab20ca3816f315424a8118152f35b3461044f575f36600319011261044f57602065ffffffffffff60085416604051908152f35b634e487b7160e01b5f52602160045260245ffd5b6008111561108e57565b611070565b600881101561108e57602452565b3461044f57602036600319011261044f576110bd600435613193565b604051600882101561108e576020918152f35b3461044f57604036600319011261044f57602060ff6111196024356004356110f782610483565b5f5260098452600360405f20019060018060a01b03165f5260205260405f2090565b54166040519015158152f35b3461044f57611133366109d0565b9161114083838387612b78565b61114981612d93565b505f908152600460205260409020546001600160a01b031633036112725761117093612b78565b61117b603b82612e13565b506111a6611191825f52600460205260405f2090565b80546001600160f81b0316600160f81b179055565b6040518181527f789cf55be980739dad1d0699b93b58e806b51c9d96619bfa8fe0a28abaa7b30c90602090a16111e4815f52600c60205260405f2090565b5490816111f7575b604051908152602090f35b600b5461120c906001600160a01b0316610a77565b803b1561044f5760405163c4d252f560e01b815260048101939093525f908390602490829084905af1918215610c315761065692611259575b505f818152600c60205260408120556111ec565b80610c255f6112679361075d565b5f611245565b6125ad565b63233d98e360e01b5f523360045260245ffd5b3461044f575f36600319011261044f576106566112a061266e565b6040519182916020835260208301906105ca565b3461044f57602036600319011261044f576004355f9081526009602052604090208054600182015460029092015460609260405192835260208301526040820152f35b3461044f575f36600319011261044f5761065660405161131860408261075d565b60018152603160f81b60208201526040519182916020835260208301906105ca565b6024359060ff8216820361044f57565b3461044f57604036600319011261044f57602061138360043561136b61133a565b60405191611379858461075d565b5f835233906132a0565b604051908152f35b9181601f8401121561044f578235916001600160401b03831161044f576020838186019501011161044f57565b3461044f5760c036600319011261044f576004356113d461133a565b90604435906113e282610483565b6064356001600160401b03811161044f5761140190369060040161138b565b6084356001600160401b03811161044f576114209036906004016107e0565b9160a435946001600160401b03861161044f5761065696611448610d429736906004016107e0565b9561273d565b9080602083519182815201916020808360051b8301019401925f915b83831061147957505050505090565b9091929394602080611497600193601f1986820301875289516105ca565b9701930193019193929061146a565b3461044f57602036600319011261044f576114db6114c560043561282f565b60ff60405193849360408552604085019061144e565b911660208301520390f35b3461044f57608036600319011261044f5760043561150261133a565b906044356001600160401b03811161044f5761152290369060040161138b565b9190926064356001600160401b03811161044f576111ec9461154b6115539236906004016107e0565b9436916107aa565b913390613539565b3461044f57602036600319011261044f5760206113836004356128c4565b3461044f575f36600319011261044f57602060405160028152f35b3461044f575f36600319011261044f576115ac612c84565b600e80546001600160a01b031981169091555f906001600160a01b03167f8be0079c531659141344cd1fd0a4f28419497f9722a3daafe3b4186f6b6457e08280a3005b65ffffffffffff81160361044f57565b3461044f57602036600319011261044f5760043561161c816115ef565b611624612cab565b6008547fc565b045403dc03c2eea82b81a0465edad9e2e7fc4d97e11421c209da93d7a93604065ffffffffffff81519481851686521693846020820152a165ffffffffffff191617600855005b3461044f57606036600319011261044f5760043561168d61133a565b90604435906001600160401b03821161044f576020926116be6116b761138394369060040161138b565b36916107aa565b9133906132a0565b3461044f57608036600319011261044f576004356001600160401b03811161044f576116f690369060040161088e565b6024356001600160401b03811161044f576117159036906004016108f5565b906044356001600160401b03811161044f57611735903690600401610952565b90606435916001600160401b03831161044f576106569361175d610d429436906004016107e0565b926136bc565b3461044f57602036600319011261044f5760043561178081610483565b60018060a01b03165f526002602052602060405f2054604051908152f35b3461044f575f36600319011261044f576118306117da7f0000000000000000000000000000000000000000000000000000000000000000614374565b6106566118067f00000000000000000000000000000000000000000000000000000000000000006143cc565b61183e6118116125d2565b91604051958695600f60f81b875260e0602088015260e08701906105ca565b9085820360408701526105ca565b904660608501523060808501525f60a085015283820360c0850152610eb2565b3461044f575f36600319011261044f57600e546040516001600160a01b039091168152602090f35b3461044f57608036600319011261044f576004356118a261133a565b90604435916118b083610483565b6064356001600160401b03811161044f57610e416118d56119639236906004016107e0565b6001600160a01b0386165f90815260026020526040902080546001810190915561195d9060405160208101917ff2aad550cf55f045cb27e9c559f9889fdfb6e6cdaa032301d6ea397784ae51d7835288604083015260ff8816606083015260018060a01b038a16608083015260a082015260a0815261195560c08261075d565b5190206133e0565b86613410565b61197e5790610d42916106569361197861261f565b926132a0565b6394ab6c0760e01b5f526001600160a01b03831660045260245b5ffd5b3461044f575f36600319011261044f5760206119b5612a04565b65ffffffffffff60405191168152f35b3461044f575f36600319011261044f57602060405160648152f35b3461044f57606036600319011261044f576004356119fd81610483565b6024356044356001600160401b03811161044f57611a1f9036906004016107e0565b50604051630748d63560e31b81526001600160a01b039283166004820152602481019190915290602090829060449082907f0000000000000000000000000000000000000000000000000000000000000000165afa8015610c3157610656915f91611a96575b506040519081529081906020820190565b611aaf915060203d602011610c5e57610c50818361075d565b5f611a85565b3461044f575f36600319011261044f576010546040516001600160a01b039091168152602090f35b3461044f57604036600319011261044f576020611b34600435611afe61133a565b90611b1a60ff611b0d8361282f565b90501660ff841610612a97565b5f52600f835260405f209060ff165f5260205260405f2090565b54604051908152f35b3461044f575f36600319011261044f5760206001600160d01b03611b5f613759565b16604051908152f35b3461044f57602036600319011261044f57600435611b8581610483565b611b8d612cab565b600b54604080516001600160a01b03808416825290931660208401819052927f08f74ea46ef7894f65eabfb5e6e695de773a000b47c529ab559178069b2264019190a16001600160a01b03191617600b55005b3461044f57602036600319011261044f57602060405160018152f35b3461044f57602036600319011261044f5760206113836004355f52600460205265ffffffffffff600160405f2001541690565b3461044f575f36600319011261044f576020600754604051908152f35b3461044f5760a036600319011261044f57611c68600435610483565b611c73602435610483565b6044356001600160401b03811161044f57611c929036906004016108f5565b506064356001600160401b03811161044f57611cb29036906004016108f5565b506084356001600160401b03811161044f57611cd29036906004016107e0565b50610656611cde612ae3565b6040516001600160e01b031990911681529081906020820190565b3461044f57602036600319011261044f576020611383600435612b02565b606036600319011261044f57600435611d2f81610483565b6024356044356001600160401b03811161044f57610020925f92611d588493369060040161138b565b9190611d62612cab565b826040519384928337810185815203925af1611d7c612b49565b9061379d565b3461044f576020611383611d95366109d0565b92919091612b78565b3461044f57604036600319011261044f57600435611dba61133a565b60ff611dc58361282f565b905016908115611e2b5761065692611e1b82611deb610d429560ff611e0d961610612a97565b60405160f89190911b6001600160f81b03191660208201529283906021820190565b03601f19810184528361075d565b611e2361261f565b9033906137c3565b60405162461bcd60e51b815260206004820152602960248201527f476f7665726e6f723a207374616e646172642070726f706f73616c2c207573656044820152682063617374566f746560b81b6064820152608490fd5b3461044f575f36600319011261044f57600b546040516001600160a01b039091168152602090f35b3461044f575f36600319011261044f57610656604051611ecb60408261075d565b602081527f737570706f72743d627261766f2671756f72756d3d666f722c6162737461696e60208201526040519182916020835260208301906105ca565b3461044f575f36600319011261044f5760206040517ff2aad550cf55f045cb27e9c559f9889fdfb6e6cdaa032301d6ea397784ae51d78152f35b3461044f57602036600319011261044f5760043563ffffffff81169081810361044f57611f6e612cab565b8115611fd65769ffffffff000000000000907f7e3f7f0708a84de9203036abaa450dccc85ad5ff52f78c170f3edb55cf5e882860406008549481519063ffffffff8760301c1682526020820152a160301b169069ffffffff0000000000001916176008555f80f35b63f1cfbf0560e01b5f525f60045260245ffd5b3461044f57604036600319011261044f5760043561200681610483565b6024355f60405161201860208261075d565b52604051630748d63560e31b81526001600160a01b039283166004820152602481019190915290602090829060449082907f0000000000000000000000000000000000000000000000000000000000000000165afa8015610c3157610656915f91611a9657506040519081529081906020820190565b3461044f57602036600319011261044f576004356120aa612cab565b60075460408051918252602082018390527fccb45da8d5717e6c4544694297c4ba5cf151d455c9bb0ed4fc7a38411bc0546191a1600755005b3461044f5760a036600319011261044f576120ff600435610483565b61210a602435610483565b6084356001600160401b03811161044f576121299036906004016107e0565b50600b54306001600160a01b03909116036108685760405163f23a6e6160e01b8152602090f35b3461044f57602036600319011261044f5760043561216d81610483565b612175612c84565b6001600160a01b031680156121c757600e80546001600160a01b0319811683179091556001600160a01b03167f8be0079c531659141344cd1fd0a4f28419497f9722a3daafe3b4186f6b6457e05f80a3005b631e4fbdf760e01b5f525f60045260245ffd5b3461044f57602036600319011261044f57600435604051632394e7a360e21b815260048101829052906020826024817f00000000000000000000000000000000000000000000000000000000000000006001600160a01b03165afa918215610c31576106569260649261225e925f92612270575b50612258906128c4565b90612e7d565b04604051918291829190602083019252565b61225891925061228e9060203d602011610c5e57610c50818361075d565b919061224e565b3461044f575f36600319011261044f576040517f00000000000000000000000000000000000000000000000000000000000000006001600160a01b03168152602090f35b90600182811c92168015612307575b60208310146122f357565b634e487b7160e01b5f52602260045260245ffd5b91607f16916122e8565b5f9291815491612320836122d9565b8083529260018116908115612375575060011461233c57505050565b5f9081526020812093945091925b83831061235b575060209250010190565b60018160209294939454838587010152019101919061234a565b915050602093945060ff929192191683830152151560051b010190565b1561239957565b60405162461bcd60e51b815260206004820152602960248201527f476f7665726e6f723a20696e76616c6964206f7074696f6e20636f756e742028604482015268746f6f206d616e792960b81b6064820152608490fd5b9081602091031261044f575190565b90602080835192838152019201905f5b81811061241c5750505090565b82516001600160a01b031684526020938401939092019160010161240f565b926124676105ff9593612459612475946080885260808801906123ff565b908682036020880152610eb2565b90848203604086015261144e565b9160608184039101526105ca565b6040513d5f823e3d90fd5b949392919483516002811061250f576020936124b0600a6124cb931115612392565b604051633eaf40f160e11b815297889485946004860161243b565b03815f305af1928315610c31575f936124ea575b5061078d9083612fcb565b61078d9193506125089060203d602011610c5e57610c50818361075d565b92906124df565b60405162461bcd60e51b815260206004820152602860248201527f476f7665726e6f723a20696e76616c6964206f7074696f6e20636f756e742028604482015267746f6f206665772960c01b6064820152608490fd5b634e487b7160e01b5f52603260045260245ffd5b805160011015610fd75760400190565b805160021015610fd75760600190565b8051821015610fd75760209160051b010190565b634e487b7160e01b5f52601160045260245ffd5b60ff166003019060ff821161126d57565b604051906125e160208361075d565b5f808352366020840137565b906125f782610877565b612604604051918261075d565b8281528092612615601f1991610877565b0190602036910137565b6040519061262e60208361075d565b5f8252565b6040519061264260408361075d565b601d82527f6d6f64653d626c6f636b6e756d6265722666726f6d3d64656661756c740000006020830152565b604051634bf5d7e960e01b81525f816004817f00000000000000000000000000000000000000000000000000000000000000006001600160a01b03165afa5f91816126c2575b506105ff57506105ff612633565b9091503d805f833e6126d4818361075d565b81019060208183031261044f578051906001600160401b03821161044f570181601f8201121561044f5780519061270a8261078f565b92612718604051948561075d565b8284526020838301011161044f57815f9260208093018386015e83010152905f6126b4565b939092919695610e416127f8916127f28a6127718160018060a01b03165f52600260205260405f2080549060018201905590565b61277c36888a6107aa565b602081519101208b5160208d0120906040519260208401947f3e83946653575f9a39005e1545185629e92736b7528ab20ca3816f315424a81186528d604086015260ff8d16606086015260018060a01b0316608085015260a084015260c083015260e082015260e081526119556101008261075d565b8a613410565b612813576105ff95969161280d9136916107aa565b92613539565b6394ab6c0760e01b5f526001600160a01b03871660045260245ffd5b5f52600d60205260405f209060ff60018301541691805461284f81610877565b9161285d604051938461075d565b81835260208301905f5260205f205f915b83831061287d57505050509190565b60016020819260405161289b816128948189612311565b038261075d565b81520192019201919061286e565b5f1981019190821161126d57565b9190820391821161126d57565b600a54905f19820182811161126d57821115610fd757600a5f527fc65a7bb8d6351c1cf70c95a316cc6a92839c986682d98bc35f958f4883f9d2a78201548165ffffffffffff821611156129fb575061291c90613672565b5f82916005841161298a575b612932935061401b565b8061293c57505f90565b61297e61297761294e6105ff936128a9565b600a5f527fc65a7bb8d6351c1cf70c95a316cc6a92839c986682d98bc35f958f4883f9d2a80190565b5460301c90565b6001600160d01b031690565b919261299581613ebd565b810390811161126d5761293293600a5f5265ffffffffffff827fc65a7bb8d6351c1cf70c95a316cc6a92839c986682d98bc35f958f4883f9d2a801541665ffffffffffff8516105f146129e9575091612928565b9291506129f5906136a1565b90612928565b91505060301c90565b6040516324776b7d60e21b81526020816004817f00000000000000000000000000000000000000000000000000000000000000006001600160a01b03165afa5f9181612a5a575b506105ff57506105ff43613672565b9091506020813d602011612a8f575b81612a766020938361075d565b8101031261044f5751612a88816115ef565b905f612a4b565b3d9150612a69565b15612a9e57565b60405162461bcd60e51b815260206004820152601e60248201527f476f7665726e6f723a20696e76616c6964206f7074696f6e20696e64657800006044820152606490fd5b600b54306001600160a01b03909116036108685763bc197c8160e01b90565b805f52600460205265ffffffffffff60405f205460a01c16905f52600460205263ffffffff60405f205460d01c160165ffffffffffff811161126d5765ffffffffffff1690565b3d15612b73573d90612b5a8261078f565b91612b68604051938461075d565b82523d5f602084013e565b606090565b9290612bd991612bc5612bb394604051958694612ba1602087019960808b5260a08801906123ff565b868103601f1901604088015290610eb2565b848103601f190160608601529061144e565b90608083015203601f19810183528261075d565b51902090565b905f604051612bef60208261075d565b52604051630748d63560e31b81526001600160a01b039283166004820152602481019190915290602090829060449082907f0000000000000000000000000000000000000000000000000000000000000000165afa908115610c31575f91612c55575090565b6105ff915060203d602011610c5e57610c50818361075d565b600b54306001600160a01b039091160361086857565b600e546001600160a01b03163303612c9857565b63118cdaa760e01b5f523360045260245ffd5b600b54336001600160a01b0390911603612d1457600b54306001600160a01b0390911603612cd557565b612cde3661078f565b612ceb604051918261075d565b3681526020810190365f83375f602036830101525190205b80612d0c613889565b03612d035750565b6347096e4760e01b5f523360045260245ffd5b600881101561108e5760ff600191161b90565b60045260649190600881101561108e576024525f604452565b612d5c81613193565b906010612d6883612d27565b1615612d72575090565b6331b75e4d60e01b5f52600452612d899150611093565b601060445260645ffd5b612d9c81613193565b906001612da883612d27565b1615612db2575090565b6331b75e4d60e01b5f52600452612dc99150611093565b600160445260645ffd5b612ddc81613193565b906002612de883612d27565b1615612df2575090565b6331b75e4d60e01b5f52600452612e099150611093565b600260445260645ffd5b90612e1d82613193565b9181612e2884612d27565b1615612e3357505090565b6331b75e4d60e01b5f52600452612e4982611093565b60445260645ffd5b908160011b918083046002149015171561126d57565b908160041b918083046010149015171561126d57565b8181029291811591840414171561126d57565b818110612e9b575050565b5f8155600101612e90565b9190601f8111612eb557505050565b61078d925f5260205f20906020601f840160051c83019310612edf575b601f0160051c0190612e90565b9091508190612ed2565b91909182516001600160401b03811161075857612f1081612f0a84546122d9565b84612ea6565b6020601f8211600114612f4f578190612f409394955f92612f44575b50508160011b915f199060031b1c19161790565b9055565b015190505f80612f2c565b601f19821690612f62845f5260205f2090565b915f5b818110612f9c57509583600195969710612f84575b505050811b019055565b01515f1960f88460031b161c191690555f8080612f7a565b9192602060018192868b015181550194019201612f65565b6040906105ff93928152816020820152019061144e565b919060ff8151169260405193612fe08561073d565b82855260208501908152815f52600d60205260405f209451805190600160401b82116107585786548288558083106130a7575b50602001613024875f5260205f2090565b5f915b83831061308a57505050507fde44dba4709aa2ac40b7989d7626c13318b46ec16c757844761c4bc8f75ad95293946001613065613076935160ff1690565b91019060ff1660ff19825416179055565b61308560405192839283612fb4565b0390a1565b600160208261309b83945186612ee9565b01920192019190613027565b875f528260205f2091820191015b8181106130c25750613013565b806130cf600192546122d9565b806130dc575b50016130b5565b601f811183146130f157505f81555b5f6130d5565b6131139083601f613105855f5260205f2090565b920160051c82019101612e90565b5f81815260208120818355556130eb565b600554908160801c6001600160801b0380600183011693168314613169575f52600660205260405f20556001600160801b036005549181199060801b16911617600555565b634e487b715f5260416020526024601cfd5b9081602091031261044f5751801515810361044f5790565b61319c81613a11565b906131a682611084565b6005820361329c576131c191505f52600c60205260405f2090565b54600b546131d7906001600160a01b0316610a77565b604051632c258a9f60e11b815260048101839052602081602481855afa908115610c31575f9161327d575b501561320f575050600590565b604051632ab0f52960e01b81526004810192909252602090829060249082905afa908115610c31575f9161324e575b501561324957600790565b600290565b613270915060203d602011613276575b613268818361075d565b81019061317b565b5f61323e565b503d61325e565b613296915060203d60201161327657613268818361075d565b5f613202565b5090565b909291604051916132b260208461075d565b5f83526132be81613193565b600881101561108e5760010361338f576133897fe2babfbac5889a709b63bb7f598b324e08bc5a4fb9ec647fb3cbc9ec07eb87129361332e61332861331d61330e865f52600460205260405f2090565b5460a01c65ffffffffffff1690565b65ffffffffffff1690565b88612bdf565b9661333c8289878488613d3d565b5060018060a01b031695867fb8e138887d0aa13bab447e82de9d5c1777041ecd21ca36ba824ff1e6c07ddda460405180613379858d8b8b85613513565b0390a287604051958695866134d9565b0390a290565b60405162461bcd60e51b815260206004820152602360248201527f476f7665726e6f723a20766f7465206e6f742063757272656e746c792061637460448201526269766560e81b6064820152608490fd5b6042906133eb613b11565b906040519161190160f01b8352600283015260228201522090565b6004111561108e57565b9190823b61344b579061342291613c27565b5061342c81613406565b15918261343857505090565b6001600160a01b03918216911614919050565b915f9261348161348f85946040519283916020830195630b135d3f60e11b875260248401526040604484015260648301906105ca565b03601f19810183528261075d565b51915afa61349b612b49565b816134cb575b816134aa575090565b90506134c7630b135d3f60e11b91602080825183010191016123f0565b1490565b9050602081511015906134a1565b93909260ff613505936105ff97958752166020860152604085015260a0606085015260a08401906105ca565b9160808184039101526105ca565b909260ff6080936105ff96958452166020830152604082015281606082015201906105ca565b9291909261354681612dd3565b50805f52600460205265ffffffffffff61356d60405f2065ffffffffffff905460a01c1690565b604051630748d63560e31b81526001600160a01b0380881660048301819052939092166024820152919590602090839060449082907f0000000000000000000000000000000000000000000000000000000000000000165afa8015610c31578488926135e1945f93613651575b5085613d3d565b948051155f1461361e57506133897fb8e138887d0aa13bab447e82de9d5c1777041ecd21ca36ba824ff1e6c07ddda4938660405194859485613513565b613389907fe2babfbac5889a709b63bb7f598b324e08bc5a4fb9ec647fb3cbc9ec07eb87129487604051958695866134d9565b61366b91935060203d602011610c5e57610c50818361075d565b915f6135da565b65ffffffffffff811161368a5765ffffffffffff1690565b6306dfcc6560e41b5f52603060045260245260445ffd5b906001820180921161126d57565b9190820180921161126d57565b91939290936136cb8233614094565b156137465760075494856136e7575b6105ff94955033936141b0565b5f1965ffffffffffff6136f8612a04565b160165ffffffffffff811161126d5765ffffffffffff613719911633612bdf565b86811061372657506136da565b636121770b60e11b5f908152336004526024919091526044879052606490fd5b63d9b3955760e01b5f523360045260245ffd5b600a548061376657505f90565b805f1981011161126d57600a5f527fc65a7bb8d6351c1cf70c95a316cc6a92839c986682d98bc35f958f4883f9d2a7015460301c90565b90919061078d57508051156137b457805190602001fd5b63d6bda27560e01b5f5260045ffd5b90926137ce82613193565b600881101561108e5760010361338f578161338960019261382161332861331d61330e7fe2babfbac5889a709b63bb7f598b324e08bc5a4fb9ec647fb3cbc9ec07eb8712985f52600460205260405f2090565b9661382f8289878488613d3d565b50848060a01b031695867fb8e138887d0aa13bab447e82de9d5c1777041ecd21ca36ba824ff1e6c07ddda460405180613379858d8b8b85613513565b8115613875570490565b634e487b7160e01b5f52601260045260245ffd5b600554906001600160801b0382169160801c82146138e057815f5260066020526001600160801b0380600160405f2054948281165f5260066020525f60408120550116166001600160801b03196005541617600555565b634e487b715f5260316020526024601cfd5b94939261391e60809361391061392c9460a08a5260a08a01906123ff565b9088820360208a0152610eb2565b90868203604088015261144e565b935f60608201520152565b919261396660a094613958613974949998979960c0875260c08701906123ff565b908582036020870152610eb2565b90838203604085015261144e565b945f606083015260808201520152565b600b5490949192916001600160a01b03909116906bffffffffffffffffffffffff193060601b16823b1561044f576139d65f956040519788968795869563e38335e560e01b87521892600486016138f2565b039134905af18015610c31576139f8575b505f908152600c6020526040812055565b80613a045f809361075d565b80031261044f575f6139e7565b613a23815f52600460205260405f2090565b5460f881901c9060f01c60ff16613b0a57613b0457613a5061331d61330e835f52600460205260405f2090565b8015613af057613a6161331d612a04565b80911015613aea57613a7282612b02565b10613a7d5750600190565b613a89610e4182614555565b8015613ac7575b15613a9b5750600390565b613ab9905f52600460205265ffffffffffff600160405f2001541690565b613ac257600490565b600590565b50613ae5610e41825f52600960205260405f20600181015490541090565b613a90565b50505f90565b636ad0607560e01b5f52600482905260245ffd5b50600290565b5050600790565b307f00000000000000000000000000000000000000000000000000000000000000006001600160a01b03161480613bfe575b15613b6c577f000000000000000000000000000000000000000000000000000000000000000090565b60405160208101907f8b73c3c69bb8fe3d512ecc4cf759cc79239f7b179b0ffacaa9a75d522b39400f82527f000000000000000000000000000000000000000000000000000000000000000060408201527f000000000000000000000000000000000000000000000000000000000000000060608201524660808201523060a082015260a08152612bd960c08261075d565b507f00000000000000000000000000000000000000000000000000000000000000004614613b43565b8151919060418303613c5757613c509250602082015190606060408401519301515f1a906145f7565b9192909190565b50505f9160029190565b805115610fd75760200190565b15613c7557565b60405162461bcd60e51b815260206004820152603060248201527f476f7665726e6f723a2043616e6e6f7420766f746520666f72206f7074696f6e60448201526f081bdb881cdd19081c1c9bdc1bdcd85b60821b6064820152608490fd5b15613cda57565b60405162461bcd60e51b815260206004820152603560248201527f476f7665726e6f723a20496e76616c696420737570706f727420666f72206f7060448201527474696f6e20766f746520286d75737420626520312960581b6064820152608490fd5b90929391613d53825f52600960205260405f2090565b9360038501613d7c613d7583839060018060a01b03165f5260205260405f2090565b5460ff1690565b613ea157613da060ff9392613dad929060018060a01b03165f5260205260405f2090565b805460ff19166001179055565b169283613e5f57613dbf8582546136af565b90555b60ff916001815114613e32575b5060ff613ddb8261282f565b905016908160ff841610613df1575b5050505090565b613e0e6001613e1c95613e08610fa1951515613c6e565b14613cd3565b5f52600f60205260405f2090565b613e278282546136af565b90555f808080613dea565b613e58919250613e44613e5291613c61565b516001600160f81b03191690565b60f81c90565b905f613dcf565b60018403613e7c57600101613e758582546136af565b9055613dc2565b60028403613e9257600201613e758582546136af565b6303599be160e11b5f5260045ffd5b6371c6af4960e01b5f526001600160a01b03821660045260245ffd5b60018111156105ff57806001600160801b821015613fde575b613f84613f7a613f70613f66613f5c613f52613f41613f8b9760048a600160401b613f909c1015613fd1575b640100000000811015613fc4575b62010000811015613fb7575b610100811015613faa575b6010811015613f9d575b1015613f95575b60030260011c90565b613f4b818b61386b565b0160011c90565b613f4b818a61386b565b613f4b818961386b565b613f4b818861386b565b613f4b818761386b565b613f4b818661386b565b809361386b565b821190565b900390565b60011b613f38565b60041c9160021b91613f31565b60081c9160041b91613f27565b60101c9160081b91613f1c565b60201c9160101b91613f10565b60401c9160201b91613f02565b5050613f90613f8b613f84613f7a613f70613f66613f5c613f52613f416140058a60801c90565b9850600160401b9750613ed69650505050505050565b905b82811061402957505090565b90918082169080831860011c820180921161126d57600a5f527fc65a7bb8d6351c1cf70c95a316cc6a92839c986682d98bc35f958f4883f9d2a882015465ffffffffffff90811690851610156140825750915b9061401d565b92915061408e906136a1565b9061407c565b908051603481106140e15760131981830101516001600160b01b03191669dc8f8d908f908c9a8dc360b01b016140e1576140d391602919820190614679565b901591821561343857505090565b505050600190565b906140f382610877565b614100604051918261075d565b8281528092614111601f1991610877565b01905f5b82811061412157505050565b806060602080938501015201614115565b95926141979461416d61417b92614189956105ff9d9b9c99958b5260018060a01b031660208b015261012060408b01526101208a01906123ff565b9088820360608a0152610eb2565b90868203608088015261144e565b9084820360a086015261144e565b9360c083015260e08201526101008184039101526105ca565b9290949391946141c882516020840120878387612b78565b958451825190818114801590614369575b8015614361575b61434257505065ffffffffffff61420261330e895f52600460205260405f2090565b166143255791613085917f7d84a6263ae0d98d3329bd7b46bb4e8d6f98cd35a7adb45c274c8b7fd5ebd5e095949361425d61423b612a04565b65ffffffffffff61425661331d65ffffffffffff6008541690565b91166136af565b9061427c61427363ffffffff60085460301c1690565b63ffffffff1690565b6143036142918c5f52600460205260405f2090565b80546001600160a01b0319166001600160a01b038a161781556142da6142b686613672565b825465ffffffffffff60a01b191660a09190911b65ffffffffffff60a01b16178255565b6142e383614709565b815463ffffffff60d01b191660d09190911b63ffffffff60d01b16179055565b61431761431089516140e9565b91846136af565b936040519889988d8a614132565b6119988761433281613193565b6331b75e4d60e01b5f5290612d3a565b9151630447b05d60e41b5f908152600493909352602452604452606490fd5b5080156141e0565b5082518114156141d9565b60ff81146143ba5760ff811690601f82116143ab576040519161439860408461075d565b6020808452838101919036833783525290565b632cd44ac360e21b5f5260045ffd5b506040516105ff81612894815f612311565b60ff81146143f05760ff811690601f82116143ab576040519161439860408461075d565b506040516105ff81612894816001612311565b908154600160401b8110156107585760018101808455811015610fd75761078d925f5260205f20019061445365ffffffffffff825116839065ffffffffffff1665ffffffffffff19825416179055565b60200151815465ffffffffffff1660309190911b65ffffffffffff1916179055565b600a54919291801561452c5761294e61448d916128a9565b9081546144a96144a28265ffffffffffff1690565b9160301c90565b9265ffffffffffff80841692169180831161451d578692036144e7576144e392509065ffffffffffff82549181199060301b169116179055565b9190565b50506144e3906145066144f861077e565b65ffffffffffff9092168252565b6001600160d01b03851660208201525b600a614403565b632520601d60e01b5f5260045ffd5b506145509061453c6144f861077e565b6001600160d01b0384166020820152614516565b5f9190565b805f52600960205260405f20905f52600460205265ffffffffffff60405f205460a01c1660405190632394e7a360e21b825280600483015260208260248160018060a01b037f0000000000000000000000000000000000000000000000000000000000000000165afa918215610c31576145f2926064926145e0925f926122705750612258906128c4565b049160026001820154910154906136af565b101590565b91907f7fffffffffffffffffffffffffffffff5d576e7357a4501ddfe92f46681b20a0841161466e579160209360809260ff5f9560405194855216868401526040830152606082015282805260015afa15610c31575f516001600160a01b0381161561466457905f905f90565b505f906001905f90565b5050505f9160039190565b9190825182118015614700575b6146d957614693816136a1565b8211806146e2575b6146a6901515612e51565b6028018060281161126d576146bb82846128b7565b036146d9576146c992614734565b90916001600160a01b0390911690565b5050505f905f90565b50602081840101516001600160f01b03191661060f60f31b1461469b565b50818111614686565b63ffffffff811161471d5763ffffffff1690565b6306dfcc6560e41b5f52602060045260245260445ffd5b929092614740846136a1565b8311806147c0575b61475a61476191949293941515612e51565b5f956136af565b915b8183106147735750505060019190565b9092919360ff61479461478f6020888601015160ff60f81b1690565b6147de565b1690600f82116147b557906147aa600192612e67565b019401919290614763565b505f94508493505050565b50602084820101516001600160f01b03191661060f60f31b14614748565b60f81c602f811180614846575b156147fa57602f190160ff1690565b606081118061483c575b15614813576056190160ff1690565b6040811180614832575b1561482c576036190160ff1690565b5060ff90565b506047811061481d565b5060678110614804565b50603a81106147eb56fea2646970667358221220f0a2d3bd55b6fde960789f751f122ae845b4600a28bc5d744cc0d8d81245420d64736f6c634300081c0033","linkReferences":{}},"methodIdentifiers":{"BALLOT_TYPEHASH()":"deaaa7cc","CLOCK_MODE()":"4bf5d7e9","COUNTING_MODE()":"dd4e2ba5","EXTENDED_BALLOT_TYPEHASH()":"2fe3e261","MAX_OPTIONS()":"0da183d6","MIN_OPTIONS()":"65104334","cancel(address[],uint256[],bytes[],bytes32)":"452115d6","castVote(uint256,uint8)":"56781388","castVoteBySig(uint256,uint8,address,bytes)":"8ff262e3","castVoteWithOption(uint256,uint8)":"d28bc965","castVoteWithReason(uint256,uint8,string)":"7b3c71d3","castVoteWithReasonAndParams(uint256,uint8,string,bytes)":"5f398a14","castVoteWithReasonAndParamsBySig(uint256,uint8,address,string,bytes,bytes)":"5b8d0e0d","clock()":"91ddadf4","eip712Domain()":"84b0196e","evaluator()":"9cb93dd1","execute(address[],uint256[],bytes[],bytes32)":"2656227d","getVotes(address,uint256)":"eb9019d4","getVotesWithParams(address,uint256,bytes)":"9a802a6d","hasVoted(uint256,address)":"43859632","hashProposal(address[],uint256[],bytes[],bytes32)":"c59057e4","name()":"06fdde03","nonces(address)":"7ecebe00","onERC1155BatchReceived(address,address,uint256[],uint256[],bytes)":"bc197c81","onERC1155Received(address,address,uint256,uint256,bytes)":"f23a6e61","onERC721Received(address,address,uint256,bytes)":"150b7a02","owner()":"8da5cb5b","proposalAllVotes(uint256)":"2c802865","proposalDeadline(uint256)":"c01f9e37","proposalEta(uint256)":"ab58fb8e","proposalNeedsQueuing(uint256)":"a9a95294","proposalOptionVotes(uint256,uint8)":"a2b211f3","proposalOptions(uint256)":"5d763841","proposalProposer(uint256)":"143489d0","proposalSnapshot(uint256)":"2d63f693","proposalThreshold()":"b58131b0","proposalVotes(uint256)":"544ffc9c","propose(address[],uint256[],bytes[],string)":"7d5e81e2","propose(address[],uint256[],bytes[],string,string[])":"1d0fbdcb","queue(address[],uint256[],bytes[],bytes32)":"160cbed7","quorum(uint256)":"f8ce560a","quorumDenominator()":"97c3d334","quorumNumerator()":"a7713a70","quorumNumerator(uint256)":"60c4247f","relay(address,uint256,bytes)":"c28bc2fa","renounceOwnership()":"715018a6","setEvaluator(address)":"02dbbbac","setProposalThreshold(uint256)":"ece40cc1","setVotingDelay(uint48)":"79051887","setVotingPeriod(uint32)":"e540d01d","state(uint256)":"3e4f49e6","supportsInterface(bytes4)":"01ffc9a7","timelock()":"d33219b4","token()":"fc0c546a","transferOwnership(address)":"f2fde38b","updateQuorumNumerator(uint256)":"06f3f9e6","updateTimelock(address)":"a890c910","version()":"54fd4d50","votingDelay()":"3932abb1","votingPeriod()":"02a251a3"},"id":63}