{"abi":[{"type":"function","name":"evaluatorAddress","inputs":[],"outputs":[{"name":"","type":"address","internalType":"address"}],"stateMutability":"view"},{"type":"function","name":"owner","inputs":[],"outputs":[{"name":"","type":"address","internalType":"address"}],"stateMutability":"view"},{"type":"function","name":"proposalAllVotes","inputs":[{"name":"proposalId","type":"uint256","internalType":"uint256"}],"outputs":[{"name":"","type":"uint256[]","internalType":"uint256[]"}],"stateMutability":"view"},{"type":"function","name":"renounceOwnership","inputs":[],"outputs":[],"stateMutability":"nonpayable"},{"type":"function","name":"setEvaluator","inputs":[{"name":"_evaluator","type":"address","internalType":"address"}],"outputs":[],"stateMutability":"nonpayable"},{"type":"function","name":"setProposalAllVotes","inputs":[{"name":"proposalId","type":"uint256","internalType":"uint256"},{"name":"votes","type":"uint256[]","internalType":"uint256[]"}],"outputs":[],"stateMutability":"nonpayable"},{"type":"function","name":"transferOwnership","inputs":[{"name":"newOwner","type":"address","internalType":"address"}],"outputs":[],"stateMutability":"nonpayable"},{"type":"event","name":"EvaluatorSet","inputs":[{"name":"evaluator","type":"address","indexed":false,"internalType":"address"}],"anonymous":false},{"type":"event","name":"OwnershipTransferred","inputs":[{"name":"previousOwner","type":"address","indexed":true,"internalType":"address"},{"name":"newOwner","type":"address","indexed":true,"internalType":"address"}],"anonymous":false},{"type":"error","name":"OwnableInvalidOwner","inputs":[{"name":"owner","type":"address","internalType":"address"}]},{"type":"error","name":"OwnableUnauthorizedAccount","inputs":[{"name":"account","type":"address","internalType":"address"}]}],"bytecode":{"object":"0x608080604052346071573315605e575f8054336001600160a01b0319821681178355916001600160a01b03909116907f8be0079c531659141344cd1fd0a4f28419497f9722a3daafe3b4186f6b6457e09080a361044e90816100768239f35b631e4fbdf760e01b5f525f60045260245ffd5b5f80fdfe6080806040526004361015610012575f80fd5b5f3560e01c90816302dbbbac1461036e575080632c802865146102c8578063715018a61461027157806372e0576a146102495780638da5cb5b14610222578063c09f7ada146100f65763f2fde38b14610069575f80fd5b346100f25760203660031901126100f2576004356001600160a01b038116908190036100f2576100976103f2565b80156100df575f80546001600160a01b03198116831782556001600160a01b0316907f8be0079c531659141344cd1fd0a4f28419497f9722a3daafe3b4186f6b6457e09080a3005b631e4fbdf760e01b5f525f60045260245ffd5b5f80fd5b346100f25760403660031901126100f25760243567ffffffffffffffff81116100f257366023820112156100f25780600401359067ffffffffffffffff82116101fe578160051b906040519261014f60208401856103d0565b83526020830160248193830101913683116100f257602401905b828210610212575050506004355f52600160205260405f2091519067ffffffffffffffff82116101fe576801000000000000000082116101fe5782548284558083106101d8575b50915f5260205f20915f5b8281106101c457005b6001906020835193019281860155016101bb565b835f528260205f2091820191015b8181106101f357506101b0565b5f81556001016101e6565b634e487b7160e01b5f52604160045260245ffd5b8135815260209182019101610169565b346100f2575f3660031901126100f2575f546040516001600160a01b039091168152602090f35b346100f2575f3660031901126100f2576002546040516001600160a01b039091168152602090f35b346100f2575f3660031901126100f2576102896103f2565b5f80546001600160a01b0319811682556001600160a01b03167f8be0079c531659141344cd1fd0a4f28419497f9722a3daafe3b4186f6b6457e08280a3005b346100f25760203660031901126100f2576004355f52600160205260405f20604051806020835491828152019081935f5260205f20905f5b81811061035857505050816103169103826103d0565b604051918291602083019060208452518091526040830191905f5b81811061033f575050500390f35b8251845285945060209384019390920191600101610331565b8254845260209093019260019283019201610300565b346100f25760203660031901126100f2576004356001600160a01b038116908190036100f257600280546001600160a01b0319168217905581527f2f254c337ab0817f67c5b98ae3acc4c867a9985063f770cff1fb3a065cb5226490602090a1005b90601f8019910116810190811067ffffffffffffffff8211176101fe57604052565b5f546001600160a01b0316330361040557565b63118cdaa760e01b5f523360045260245ffdfea2646970667358221220acbfe381b752be0d76665c8ef102835ab42b749514f140345f17be548326153e64736f6c634300081c0033","linkReferences":{}},"methodIdentifiers":{"evaluatorAddress()":"72e0576a","owner()":"8da5cb5b","proposalAllVotes(uint256)":"2c802865","renounceOwnership()":"715018a6","setEvaluator(address)":"02dbbbac","setProposalAllVotes(uint256,uint256[])":"c09f7ada","transferOwnership(address)":"f2fde38b"},"id":81}