{"abi":[{"type":"function","name":"proposalAllVotes","inputs":[{"name":"","type":"uint256","internalType":"uint256"}],"outputs":[{"name":"","type":"uint256[]","internalType":"uint256[]"}],"stateMutability":"pure"},{"type":"function","name":"proposalOptionVotes","inputs":[{"name":"","type":"uint256","internalType":"uint256"},{"name":"","type":"uint8","internalType":"uint8"}],"outputs":[{"name":"","type":"uint256","internalType":"uint256"}],"stateMutability":"pure"},{"type":"function","name":"proposalOptions","inputs":[{"name":"","type":"uint256","internalType":"uint256"}],"outputs":[{"name":"","type":"string[]","internalType":"string[]"},{"name":"","type":"uint8","internalType":"uint8"}],"stateMutability":"pure"},{"type":"function","name":"proposalVotes","inputs":[{"name":"","type":"uint256","internalType":"uint256"}],"outputs":[{"name":"","type":"uint256","internalType":"uint256"},{"name":"","type":"uint256","internalType":"uint256"},{"name":"","type":"uint256","internalType":"uint256"}],"stateMutability":"pure"},{"type":"function","name":"state","inputs":[{"name":"","type":"uint256","internalType":"uint256"}],"outputs":[{"name":"","type":"uint8","internalType":"enum IGovernor.ProposalState"}],"stateMutability":"pure"}],"bytecode":{"object":"0x608080604052346015576102d7908161001a8239f35b5f80fdfe6080806040526004361015610012575f80fd5b5f3560e01c9081632c8028651461022f575080633e4f49e6146101c5578063544ffc9c146101535780635d763841146100df5763a2b211f314610053575f80fd5b346100db5760403660031901126100db5760243560ff8116036100db5760405162461bcd60e51b815260206004820152603960248201527f4d6f636b476f7665726e6f72466f7246757a7a3a2070726f706f73616c4f707460448201527f696f6e566f7465732073686f756c64206265206d6f636b6564000000000000006064820152608490fd5b5f80fd5b346100db5760203660031901126100db5760405162461bcd60e51b815260206004820152603560248201527f4d6f636b476f7665726e6f72466f7246757a7a3a2070726f706f73616c4f70746044820152741a5bdb9cc81cda1bdd5b19081899481b5bd8dad959605a1b6064820152608490fd5b346100db5760203660031901126100db5760405162461bcd60e51b815260206004820152603360248201527f4d6f636b476f7665726e6f72466f7246757a7a3a2070726f706f73616c566f74604482015272195cc81cda1bdd5b19081899481b5bd8dad959606a1b6064820152608490fd5b346100db5760203660031901126100db5760405162461bcd60e51b815260206004820152602b60248201527f4d6f636b476f7665726e6f72466f7246757a7a3a2073746174652073686f756c60448201526a19081899481b5bd8dad95960aa1b6064820152608490fd5b346100db5760203660031901126100db5762461bcd60e51b815260206004820152603660248201527f4d6f636b476f7665726e6f72466f7246757a7a3a2070726f706f73616c416c6c604482015275159bdd195cc81cda1bdd5b19081899481b5bd8dad95960521b6064820152608490fdfea264697066735822122078623a6bc1fd33da729c2420eb8df6a64bb90f0b45328d4be32c8908ef01c47964736f6c634300081c0033","linkReferences":{}},"methodIdentifiers":{"proposalAllVotes(uint256)":"2c802865","proposalOptionVotes(uint256,uint8)":"a2b211f3","proposalOptions(uint256)":"5d763841","proposalVotes(uint256)":"544ffc9c","state(uint256)":"3e4f49e6"},"id":67}