{"abi":[{"type":"constructor","inputs":[{"name":"name","type":"string","internalType":"string"},{"name":"symbol","type":"string","internalType":"string"}],"stateMutability":"nonpayable"},{"type":"function","name":"CLOCK_MODE","inputs":[],"outputs":[{"name":"","type":"string","internalType":"string"}],"stateMutability":"view"},{"type":"function","name":"approve","inputs":[{"name":"to","type":"address","internalType":"address"},{"name":"tokenId","type":"uint256","internalType":"uint256"}],"outputs":[],"stateMutability":"nonpayable"},{"type":"function","name":"balanceOf","inputs":[{"name":"owner","type":"address","internalType":"address"}],"outputs":[{"name":"","type":"uint256","internalType":"uint256"}],"stateMutability":"view"},{"type":"function","name":"clock","inputs":[],"outputs":[{"name":"","type":"uint48","internalType":"uint48"}],"stateMutability":"view"},{"type":"function","name":"delegate","inputs":[{"name":"delegatee","type":"address","internalType":"address"}],"outputs":[],"stateMutability":"nonpayable"},{"type":"function","name":"delegateBySig","inputs":[{"name":"delegatee","type":"address","internalType":"address"},{"name":"nonce","type":"uint256","internalType":"uint256"},{"name":"expiry","type":"uint256","internalType":"uint256"},{"name":"v","type":"uint8","internalType":"uint8"},{"name":"r","type":"bytes32","internalType":"bytes32"},{"name":"s","type":"bytes32","internalType":"bytes32"}],"outputs":[],"stateMutability":"nonpayable"},{"type":"function","name":"delegates","inputs":[{"name":"account","type":"address","internalType":"address"}],"outputs":[{"name":"","type":"address","internalType":"address"}],"stateMutability":"view"},{"type":"function","name":"eip712Domain","inputs":[],"outputs":[{"name":"fields","type":"bytes1","internalType":"bytes1"},{"name":"name","type":"string","internalType":"string"},{"name":"version","type":"string","internalType":"string"},{"name":"chainId","type":"uint256","internalType":"uint256"},{"name":"verifyingContract","type":"address","internalType":"address"},{"name":"salt","type":"bytes32","internalType":"bytes32"},{"name":"extensions","type":"uint256[]","internalType":"uint256[]"}],"stateMutability":"view"},{"type":"function","name":"getApproved","inputs":[{"name":"tokenId","type":"uint256","internalType":"uint256"}],"outputs":[{"name":"","type":"address","internalType":"address"}],"stateMutability":"view"},{"type":"function","name":"getPastTotalSupply","inputs":[{"name":"timepoint","type":"uint256","internalType":"uint256"}],"outputs":[{"name":"","type":"uint256","internalType":"uint256"}],"stateMutability":"view"},{"type":"function","name":"getPastVotes","inputs":[{"name":"account","type":"address","internalType":"address"},{"name":"timepoint","type":"uint256","internalType":"uint256"}],"outputs":[{"name":"","type":"uint256","internalType":"uint256"}],"stateMutability":"view"},{"type":"function","name":"getVotes","inputs":[{"name":"account","type":"address","internalType":"address"}],"outputs":[{"name":"","type":"uint256","internalType":"uint256"}],"stateMutability":"view"},{"type":"function","name":"isApprovedForAll","inputs":[{"name":"owner","type":"address","internalType":"address"},{"name":"operator","type":"address","internalType":"address"}],"outputs":[{"name":"","type":"bool","internalType":"bool"}],"stateMutability":"view"},{"type":"function","name":"mint","inputs":[{"name":"to","type":"address","internalType":"address"}],"outputs":[{"name":"","type":"uint256","internalType":"uint256"}],"stateMutability":"nonpayable"},{"type":"function","name":"name","inputs":[],"outputs":[{"name":"","type":"string","internalType":"string"}],"stateMutability":"view"},{"type":"function","name":"nonces","inputs":[{"name":"owner","type":"address","internalType":"address"}],"outputs":[{"name":"","type":"uint256","internalType":"uint256"}],"stateMutability":"view"},{"type":"function","name":"owner","inputs":[],"outputs":[{"name":"","type":"address","internalType":"address"}],"stateMutability":"view"},{"type":"function","name":"ownerOf","inputs":[{"name":"tokenId","type":"uint256","internalType":"uint256"}],"outputs":[{"name":"","type":"address","internalType":"address"}],"stateMutability":"view"},{"type":"function","name":"renounceOwnership","inputs":[],"outputs":[],"stateMutability":"nonpayable"},{"type":"function","name":"safeTransferFrom","inputs":[{"name":"from","type":"address","internalType":"address"},{"name":"to","type":"address","internalType":"address"},{"name":"tokenId","type":"uint256","internalType":"uint256"}],"outputs":[],"stateMutability":"nonpayable"},{"type":"function","name":"safeTransferFrom","inputs":[{"name":"from","type":"address","internalType":"address"},{"name":"to","type":"address","internalType":"address"},{"name":"tokenId","type":"uint256","internalType":"uint256"},{"name":"data","type":"bytes","internalType":"bytes"}],"outputs":[],"stateMutability":"nonpayable"},{"type":"function","name":"setApprovalForAll","inputs":[{"name":"operator","type":"address","internalType":"address"},{"name":"approved","type":"bool","internalType":"bool"}],"outputs":[],"stateMutability":"nonpayable"},{"type":"function","name":"supportsInterface","inputs":[{"name":"interfaceId","type":"bytes4","internalType":"bytes4"}],"outputs":[{"name":"","type":"bool","internalType":"bool"}],"stateMutability":"view"},{"type":"function","name":"symbol","inputs":[],"outputs":[{"name":"","type":"string","internalType":"string"}],"stateMutability":"view"},{"type":"function","name":"tokenURI","inputs":[{"name":"tokenId","type":"uint256","internalType":"uint256"}],"outputs":[{"name":"","type":"string","internalType":"string"}],"stateMutability":"view"},{"type":"function","name":"transferFrom","inputs":[{"name":"from","type":"address","internalType":"address"},{"name":"to","type":"address","internalType":"address"},{"name":"tokenId","type":"uint256","internalType":"uint256"}],"outputs":[],"stateMutability":"nonpayable"},{"type":"function","name":"transferOwnership","inputs":[{"name":"newOwner","type":"address","internalType":"address"}],"outputs":[],"stateMutability":"nonpayable"},{"type":"event","name":"Approval","inputs":[{"name":"owner","type":"address","indexed":true,"internalType":"address"},{"name":"approved","type":"address","indexed":true,"internalType":"address"},{"name":"tokenId","type":"uint256","indexed":true,"internalType":"uint256"}],"anonymous":false},{"type":"event","name":"ApprovalForAll","inputs":[{"name":"owner","type":"address","indexed":true,"internalType":"address"},{"name":"operator","type":"address","indexed":true,"internalType":"address"},{"name":"approved","type":"bool","indexed":false,"internalType":"bool"}],"anonymous":false},{"type":"event","name":"DelegateChanged","inputs":[{"name":"delegator","type":"address","indexed":true,"internalType":"address"},{"name":"fromDelegate","type":"address","indexed":true,"internalType":"address"},{"name":"toDelegate","type":"address","indexed":true,"internalType":"address"}],"anonymous":false},{"type":"event","name":"DelegateVotesChanged","inputs":[{"name":"delegate","type":"address","indexed":true,"internalType":"address"},{"name":"previousVotes","type":"uint256","indexed":false,"internalType":"uint256"},{"name":"newVotes","type":"uint256","indexed":false,"internalType":"uint256"}],"anonymous":false},{"type":"event","name":"EIP712DomainChanged","inputs":[],"anonymous":false},{"type":"event","name":"OwnershipTransferred","inputs":[{"name":"previousOwner","type":"address","indexed":true,"internalType":"address"},{"name":"newOwner","type":"address","indexed":true,"internalType":"address"}],"anonymous":false},{"type":"event","name":"Transfer","inputs":[{"name":"from","type":"address","indexed":true,"internalType":"address"},{"name":"to","type":"address","indexed":true,"internalType":"address"},{"name":"tokenId","type":"uint256","indexed":true,"internalType":"uint256"}],"anonymous":false},{"type":"error","name":"CheckpointUnorderedInsertion","inputs":[]},{"type":"error","name":"ECDSAInvalidSignature","inputs":[]},{"type":"error","name":"ECDSAInvalidSignatureLength","inputs":[{"name":"length","type":"uint256","internalType":"uint256"}]},{"type":"error","name":"ECDSAInvalidSignatureS","inputs":[{"name":"s","type":"bytes32","internalType":"bytes32"}]},{"type":"error","name":"ERC5805FutureLookup","inputs":[{"name":"timepoint","type":"uint256","internalType":"uint256"},{"name":"clock","type":"uint48","internalType":"uint48"}]},{"type":"error","name":"ERC6372InconsistentClock","inputs":[]},{"type":"error","name":"ERC721IncorrectOwner","inputs":[{"name":"sender","type":"address","internalType":"address"},{"name":"tokenId","type":"uint256","internalType":"uint256"},{"name":"owner","type":"address","internalType":"address"}]},{"type":"error","name":"ERC721InsufficientApproval","inputs":[{"name":"operator","type":"address","internalType":"address"},{"name":"tokenId","type":"uint256","internalType":"uint256"}]},{"type":"error","name":"ERC721InvalidApprover","inputs":[{"name":"approver","type":"address","internalType":"address"}]},{"type":"error","name":"ERC721InvalidOperator","inputs":[{"name":"operator","type":"address","internalType":"address"}]},{"type":"error","name":"ERC721InvalidOwner","inputs":[{"name":"owner","type":"address","internalType":"address"}]},{"type":"error","name":"ERC721InvalidReceiver","inputs":[{"name":"receiver","type":"address","internalType":"address"}]},{"type":"error","name":"ERC721InvalidSender","inputs":[{"name":"sender","type":"address","internalType":"address"}]},{"type":"error","name":"ERC721NonexistentToken","inputs":[{"name":"tokenId","type":"uint256","internalType":"uint256"}]},{"type":"error","name":"InvalidAccountNonce","inputs":[{"name":"account","type":"address","internalType":"address"},{"name":"currentNonce","type":"uint256","internalType":"uint256"}]},{"type":"error","name":"InvalidShortString","inputs":[]},{"type":"error","name":"OwnableInvalidOwner","inputs":[{"name":"owner","type":"address","internalType":"address"}]},{"type":"error","name":"OwnableUnauthorizedAccount","inputs":[{"name":"account","type":"address","internalType":"address"}]},{"type":"error","name":"SafeCastOverflowedUintDowncast","inputs":[{"name":"bits","type":"uint8","internalType":"uint8"},{"name":"value","type":"uint256","internalType":"uint256"}]},{"type":"error","name":"StringTooLong","inputs":[{"name":"str","type":"string","internalType":"string"}]},{"type":"error","name":"VotesExpiredSignature","inputs":[{"name":"expiry","type":"uint256","internalType":"uint256"}]}],"bytecode":{"object":"0x6101608060405234610469576126ef803803809161001d828561046d565b83398101906040818303126104695780516001600160401b0381116104695782610048918301610490565b60208201519092906001600160401b038111610469576100689201610490565b90604091825191610079848461046d565b60018352603160f81b6020840190815281519092906001600160401b03811161037d575f54600181811c9116801561045f575b602082101461035f57601f81116103fd575b50806020601f821160011461039c575f91610391575b508160011b915f199060031b1c1916175f555b8051906001600160401b03821161037d5760015490600182811c92168015610373575b602083101461035f5781601f8493116102f1575b50602090601f831160011461028b575f92610280575b50508160011b915f199060031b1c1916176001555b610152816104e5565b6101205261015f8361066c565b6101405260208151910120918260e05251902080610100524660a05282519060208201927f8b73c3c69bb8fe3d512ecc4cf759cc79239f7b179b0ffacaa9a75d522b39400f84528483015260608201524660808201523060a082015260a081526101ca60c08261046d565b5190206080523060c052331561026d57600c8054336001600160a01b0319821681179092559151916001600160a01b03167f8be0079c531659141344cd1fd0a4f28419497f9722a3daafe3b4186f6b6457e05f80a3611f4a90816107a582396080518161196c015260a05181611a29015260c05181611936015260e051816119bb015261010051816119e1015261012051816108af015261014051816108d80152f35b631e4fbdf760e01b5f525f60045260245ffd5b015190505f80610134565b60015f9081528281209350601f198516905b8181106102d957509084600195949392106102c1575b505050811b01600155610149565b01515f1960f88460031b161c191690555f80806102b3565b9293602060018192878601518155019501930161029d565b60015f529091507fb10e2d527612073b26eecdfd717e6a320cf44b4afac2b0732d9fcbe2b7fa0cf6601f840160051c81019160208510610355575b90601f859493920160051c01905b818110610347575061011e565b5f815584935060010161033a565b909150819061032c565b634e487b7160e01b5f52602260045260245ffd5b91607f169161010a565b634e487b7160e01b5f52604160045260245ffd5b90508301515f6100d4565b5f8080528181209250601f198416905b8181106103e5575090836001949392106103cd575b5050811b015f556100e7565b8501515f1960f88460031b161c191690555f806103c1565b9192602060018192868a0151815501940192016103ac565b5f80527f290decd9548b62a8d60345a988386fc84ba6bc95484008f6362f93160ef3e563601f830160051c81019160208410610455575b601f0160051c01905b81811061044a57506100be565b5f815560010161043d565b9091508190610434565b90607f16906100ac565b5f80fd5b601f909101601f19168101906001600160401b0382119082101761037d57604052565b81601f82011215610469578051906001600160401b03821161037d57604051926104c4601f8401601f19166020018561046d565b8284526020838301011161046957815f9260208093018386015e8301015290565b908151602081105f1461055f575090601f81511161051f576020815191015160208210610510571790565b5f198260200360031b1b161790565b604460209160405192839163305a27a960e01b83528160048401528051918291826024860152018484015e5f828201840152601f01601f19168101030190fd5b6001600160401b03811161037d57600654600181811c91168015610662575b602082101461035f57601f811161062f575b50602092601f82116001146105ce57928192935f926105c3575b50508160011b915f199060031b1c19161760065560ff90565b015190505f806105aa565b601f1982169360065f52805f20915f5b86811061061757508360019596106105ff575b505050811b0160065560ff90565b01515f1960f88460031b161c191690555f80806105f1565b919260206001819286850151815501940192016105de565b60065f52601f60205f20910160051c810190601f830160051c015b8181106106575750610590565b5f815560010161064a565b90607f169061057e565b908151602081105f14610697575090601f81511161051f576020815191015160208210610510571790565b6001600160401b03811161037d57600754600181811c9116801561079a575b602082101461035f57601f8111610767575b50602092601f821160011461070657928192935f926106fb575b50508160011b915f199060031b1c19161760075560ff90565b015190505f806106e2565b601f1982169360075f52805f20915f5b86811061074f5750836001959610610737575b505050811b0160075560ff90565b01515f1960f88460031b161c191690555f8080610729565b91926020600181928685015181550194019201610716565b60075f52601f60205f20910160051c810190601f830160051c015b81811061078f57506106c8565b5f8155600101610782565b90607f16906106b656fe60806040526004361015610011575f80fd5b5f3560e01c806301ffc9a7146101c457806306fdde03146101bf578063081812fc146101ba578063095ea7b3146101b557806323b872dd146101b05780633a46b1a8146101ab57806342842e0e146101a65780634bf5d7e9146101a1578063587cde1e1461019c5780635c19a95c146101975780636352211e146101925780636a6278421461018d57806370a0823114610188578063715018a6146101835780637ecebe001461017e57806384b0196e146101795780638da5cb5b146101745780638e539e8c1461016f57806391ddadf41461016a57806395d89b41146101655780639ab24eb014610160578063a22cb4651461015b578063b88d4fde14610156578063c3cda52014610151578063c87b56dd1461014c578063e985e9c5146101475763f2fde38b14610142575f80fd5b610ece565b610e72565b610e1d565b610d39565b610cb1565b610b92565b610b4b565b610aa6565b610a7b565b6109bc565b610994565b610897565b61085f565b610804565b6107d9565b61074c565b61071c565b6106fa565b6106ba565b61062a565b610601565b61051c565b610505565b6103c4565b61035c565b610285565b6101df565b6001600160e01b03198116036101db57565b5f80fd5b346101db5760203660031901126101db5760206004356101fe816101c9565b63ffffffff60e01b166380ac58cd60e01b811490811561023c575b811561022b575b506040519015158152f35b6301ffc9a760e01b1490505f610220565b635b5e139f60e01b81149150610219565b805180835260209291819084018484015e5f828201840152601f01601f1916010190565b90602061028292818152019061024d565b90565b346101db575f3660031901126101db576040515f5f546102a481610f54565b808452906001811690811561033857506001146102dc575b6102d8836102cc81850382610c5d565b60405191829182610271565b0390f35b5f8080527f290decd9548b62a8d60345a988386fc84ba6bc95484008f6362f93160ef3e563939250905b80821061031e575090915081016020016102cc6102bc565b919260018160209254838588010152019101909291610306565b60ff191660208086019190915291151560051b840190910191506102cc90506102bc565b346101db5760203660031901126101db576004356103798161125d565b505f526004602052602060018060a01b0360405f205416604051908152f35b600435906001600160a01b03821682036101db57565b602435906001600160a01b03821682036101db57565b346101db5760403660031901126101db576103dd610398565b602435906103ea8261125d565b331515806104b8575b8061047a575b61046757610465926104469181906001600160a01b0385811691167f8c5be1e5ebec7d5bd14f71427d1e84f3dd0314c0f7b2291e5b200ac8c7c3b9255f80a45f52600460205260405f2090565b80546001600160a01b0319166001600160a01b03909216919091179055565b005b63a9fbf51f60e01b5f523360045260245ffd5b5060ff6104b03361049b8460018060a01b03165f52600560205260405f2090565b9060018060a01b03165f5260205260405f2090565b5416156103f9565b506001600160a01b0381163314156103f3565b60609060031901126101db576004356001600160a01b03811681036101db57906024356001600160a01b03811681036101db579060443590565b346101db57610465610516366104cb565b9161100d565b346101db5760403660031901126101db57610535610398565b6001600160a01b03165f908152600a60205260409020610556602435611291565b8154905f8291600584116105a9575b61057093508461172c565b908161058e57505060205f5b6040516001600160d01b039091168152f35b6105996020926112ca565b905f52815f20015460301c61057c565b91926105b4816115ce565b81039081116105fc5761057093855f5265ffffffffffff8260205f2001541665ffffffffffff8516105f146105ea575091610565565b9291506105f6906112d8565b90610565565b61111d565b346101db57610465610612366104cb565b9060405192610622602085610c5d565b5f8452611162565b346101db575f3660031901126101db576106434361159f565b65ffffffffffff806106544361159f565b169116036106ab576102d860405161066d604082610c5d565b601d81527f6d6f64653d626c6f636b6e756d6265722666726f6d3d64656661756c74000000602082015260405191829160208352602083019061024d565b6301bfc1c560e61b5f5260045ffd5b346101db5760203660031901126101db576001600160a01b036106db610398565b165f526009602052602060018060a01b0360405f205416604051908152f35b346101db5760203660031901126101db57610465610716610398565b336112e6565b346101db5760203660031901126101db57602061073a60043561125d565b6040516001600160a01b039091168152f35b346101db5760203660031901126101db57610765610398565b61076d611359565b600d54905f1982146105fc5760018201600d556001600160a01b038116156107c6576001600160a01b03906107a39083906114dc565b166107b357604051908152602090f35b6339e3563760e11b5f525f60045260245ffd5b633250574960e11b5f525f60045260245ffd5b346101db5760203660031901126101db5760206107fc6107f7610398565b611131565b604051908152f35b346101db575f3660031901126101db5761081c611359565b600c80546001600160a01b031981169091555f906001600160a01b03167f8be0079c531659141344cd1fd0a4f28419497f9722a3daafe3b4186f6b6457e08280a3005b346101db5760203660031901126101db576001600160a01b03610880610398565b165f526008602052602060405f2054604051908152f35b346101db575f3660031901126101db5761093b6108d37f00000000000000000000000000000000000000000000000000000000000000006118b2565b6108fc7f0000000000000000000000000000000000000000000000000000000000000000611903565b602060405161090b8282610c5d565b5f81528161094981830194601f198301368737604051978897600f60f81b895260e0858a015260e089019061024d565b90878203604089015261024d565b914660608701523060808701525f60a087015285830360c087015251918281520192915f5b82811061097d57505050500390f35b83518552869550938101939281019260010161096e565b346101db575f3660031901126101db57600c546040516001600160a01b039091168152602090f35b346101db5760203660031901126101db576109d8600435611291565b600b54905f829160058411610a27575b6109f49350600b61172c565b80610a0557506040515f8152602090f35b610a22610a136020926112ca565b600b5f52825f20015460301c90565b61057c565b9192610a32816115ce565b81039081116105fc576109f493600b5f5265ffffffffffff8260205f2001541665ffffffffffff8516105f14610a695750916109e8565b929150610a75906112d8565b906109e8565b346101db575f3660031901126101db576020610a964361159f565b65ffffffffffff60405191168152f35b346101db575f3660031901126101db576040515f600154610ac681610f54565b80845290600181169081156103385750600114610aed576102d8836102cc81850382610c5d565b60015f9081527fb10e2d527612073b26eecdfd717e6a320cf44b4afac2b0732d9fcbe2b7fa0cf6939250905b808210610b31575090915081016020016102cc6102bc565b919260018160209254838588010152019101909291610b19565b346101db5760203660031901126101db576001600160a01b03610b6c610398565b165f52600a602052602060018060d01b03610b8960405f20611380565b16604051908152f35b346101db5760403660031901126101db57610bab610398565b6024358015158082036101db576001600160a01b038316928315610c3657335f9081526005602090815260408083206001600160a01b039094168352929052209060ff801983541691161790557f17307eab39ab6107e8899845ad3d59bd9653f200f220920489ca2b5937696c3160405180610c31339482919091602081019215159052565b0390a3005b83630b61174360e31b5f5260045260245ffd5b634e487b7160e01b5f52604160045260245ffd5b90601f8019910116810190811067ffffffffffffffff821117610c7f57604052565b610c49565b60405190610c93604083610c5d565b565b67ffffffffffffffff8111610c7f57601f01601f191660200190565b346101db5760803660031901126101db57610cca610398565b610cd26103ae565b906044356064359267ffffffffffffffff84116101db57366023850112156101db57836004013592610d0384610c95565b93610d116040519586610c5d565b80855236602482880101116101db576020815f92602461046599018389013786010152611162565b346101db5760c03660031901126101db57610d52610398565b6044359060243560643560ff811681036101db5760843560a43591854211610e0a5791610dfe91610e059360426104659860405160208101917fe48329057bfd03d55e49b547132e39cffd9c1820ad7b9d4c5307691425d15adf835260018060a01b038b166040830152896060830152608082015260808152610dd660a082610c5d565b519020610de1611933565b906040519161190160f01b8352600283015260228201522061141f565b9182611437565b6112e6565b85632341d78760e11b5f5260045260245ffd5b346101db5760203660031901126101db57610e3960043561125d565b505f604051610e49602082610c5d565b526102d8604051610e5b602082610c5d565b5f815260405191829160208352602083019061024d565b346101db5760403660031901126101db57602060ff610ec2610e92610398565b610e9a6103ae565b6001600160a01b039182165f9081526005865260408082209290931681526020919091522090565b54166040519015158152f35b346101db5760203660031901126101db57610ee7610398565b610eef611359565b6001600160a01b03168015610f4157600c80546001600160a01b0319811683179091556001600160a01b03167f8be0079c531659141344cd1fd0a4f28419497f9722a3daafe3b4186f6b6457e05f80a3005b631e4fbdf760e01b5f525f60045260245ffd5b90600182811c92168015610f82575b6020831014610f6e57565b634e487b7160e01b5f52602260045260245ffd5b91607f1691610f63565b5f9291815491610f9b83610f54565b8083529260018116908115610ff05750600114610fb757505050565b5f9081526020812093945091925b838310610fd6575060209250010190565b600181602092949394548385870101520191019190610fc5565b915050602093945060ff929192191683830152151560051b010190565b6001600160a01b038216929183156107c6575f838152600260205260409020546110b3906001600160a01b0316913361110d575b6001600160a01b038316958590876110e1575b6001600160a01b0383165f9081526003602052604090206001815401905561108883610446845f52600260205260405f2090565b877fddf252ad1be2c89b69c2b068fc378daa952ba7f163c4a11628f55a4df523b3ef5f80a482611b76565b506001600160a01b03168083036110c957505050565b6364283d7b60e01b5f5260045260245260445260645ffd5b6110ea826114ba565b6001600160a01b0385165f90815260036020526040902080545f19019055611054565b611118853385611d04565b611041565b634e487b7160e01b5f52601160045260245ffd5b6001600160a01b0316801561114f575f52600360205260405f205490565b6322718ad960e21b5f525f60045260245ffd5b90929161117081858461100d565b833b61117d575b50505050565b60209161119f6040519485938493630a85bd0160e11b855233600486016113bf565b03815f6001600160a01b0387165af15f918161122c575b506111f057506111c46113f0565b80519190826111e957633250574960e11b5f526001600160a01b03821660045260245ffd5b9050602001fd5b6001600160e01b03191663757a42ff60e11b0161121157505f808080611177565b633250574960e11b5f526001600160a01b031660045260245ffd5b61124f91925060203d602011611256575b6112478183610c5d565b8101906113aa565b905f6111b6565b503d61123d565b5f818152600260205260409020546001600160a01b031690811561127f575090565b637e27328960e01b5f5260045260245ffd5b65ffffffffffff6112a14361159f565b16808210156112b457506102829061159f565b90637669fc0f60e11b5f5260045260245260445ffd5b5f198101919082116105fc57565b90600182018092116105fc57565b6001600160a01b038181165f81815260096020526040902080546001600160a01b0319811684871617909155610c9394921692611353916001600160a01b0384169085907f3134e8a2e6d97e929a7e54011ea5485d7d196dd5f0ba4d4ef95803e8e3fc257f5f80a4611131565b91611790565b600c546001600160a01b0316330361136d57565b63118cdaa760e01b5f523360045260245ffd5b8054908161138e5750505f90565b815f198101116105fc575f525f199060205f2001015460301c90565b908160209103126101db5751610282816101c9565b6001600160a01b0391821681529116602082015260408101919091526080606082018190526102829291019061024d565b3d1561141a573d9061140182610c95565b9161140f6040519384610c5d565b82523d5f602084013e565b606090565b91610282939161142e93611a4f565b90929192611afa565b6001600160a01b03165f81815260086020526040902080546001810190915591829003611462575050565b6301d4b62360e61b5f5260045260245260445ffd5b604080519091906114888382610c5d565b60208152918290601f190190369060200137565b81156114a6570490565b634e487b7160e01b5f52601260045260245ffd5b6114cc905f52600460205260405f2090565b80546001600160a01b0319169055565b5f828152600260205260409020546001600160a01b031691610282919083611573575b6001600160a01b03821680611550575b61152583610446845f52600260205260405f2090565b847fddf252ad1be2c89b69c2b068fc378daa952ba7f163c4a11628f55a4df523b3ef5f80a482611b76565b6001600160a01b0383165f9081526003602052604090206001815401905561150f565b61157c816114ba565b6001600160a01b0384165f90815260036020526040902080545f190190556114ff565b65ffffffffffff81116115b75765ffffffffffff1690565b6306dfcc6560e41b5f52603060045260245260445ffd5b600181111561028257806001600160801b8210156116ef575b61169561168b61168161167761166d61166361165261169c9760048a600160401b6116a19c10156116e2575b6401000000008110156116d5575b620100008110156116c8575b6101008110156116bb575b60108110156116ae575b10156116a6575b60030260011c90565b61165c818b61149c565b0160011c90565b61165c818a61149c565b61165c818961149c565b61165c818861149c565b61165c818761149c565b61165c818661149c565b809361149c565b821190565b900390565b60011b611649565b60041c9160021b91611642565b60081c9160041b91611638565b60101c9160081b9161162d565b60201c9160101b91611621565b60401c9160201b91611613565b50506116a161169c61169561168b61168161167761166d6116636116526117168a60801c90565b9850600160401b97506115e79650505050505050565b91905b83821061173c5750505090565b9091928083169080841860011c82018092116105fc57845f5265ffffffffffff8260205f2001541665ffffffffffff8416105f1461177e5750925b919061172f565b93925061178a906112d8565b91611777565b6001600160a01b038083169392919081169081851415806118a9575b6117b8575b5050505050565b8161183c575b5050826117cd575b80806117b1565b6001600160a01b03165f908152600a602052604090207fdec2bacdd2f05b59de34da9b523dff8be42e5e38e818c82fdb0bae774387a72491611819916118139091611c32565b90611c9b565b604080516001600160d01b039384168152919092166020820152a25f80806117c6565b6001600160a01b03165f908152600a602052604090207fdec2bacdd2f05b59de34da9b523dff8be42e5e38e818c82fdb0bae774387a724906118879061188186611c32565b90611c63565b604080516001600160d01b039384168152919092166020820152a25f806117be565b508315156117ac565b60ff81146118e95760ff811690601f82116118da576118cf611477565b918252602082015290565b632cd44ac360e21b5f5260045ffd5b50604051610282816118fc816006610f8c565b0382610c5d565b60ff81146119205760ff811690601f82116118da576118cf611477565b50604051610282816118fc816007610f8c565b307f00000000000000000000000000000000000000000000000000000000000000006001600160a01b03161480611a26575b1561198e577f000000000000000000000000000000000000000000000000000000000000000090565b60405160208101907f8b73c3c69bb8fe3d512ecc4cf759cc79239f7b179b0ffacaa9a75d522b39400f82527f000000000000000000000000000000000000000000000000000000000000000060408201527f000000000000000000000000000000000000000000000000000000000000000060608201524660808201523060a082015260a08152611a2060c082610c5d565b51902090565b507f00000000000000000000000000000000000000000000000000000000000000004614611965565b91907f7fffffffffffffffffffffffffffffff5d576e7357a4501ddfe92f46681b20a08411611ad1579160209360809260ff5f9560405194855216868401526040830152606082015282805260015afa15611ac6575f516001600160a01b03811615611abc57905f905f90565b505f906001905f90565b6040513d5f823e3d90fd5b5050505f9160039190565b60041115611ae657565b634e487b7160e01b5f52602160045260245ffd5b611b0381611adc565b80611b0c575050565b611b1581611adc565b60018103611b2c5763f645eedf60e01b5f5260045ffd5b611b3581611adc565b60028103611b50575063fce698f760e01b5f5260045260245ffd5b80611b5c600392611adc565b14611b645750565b6335e2f38360e21b5f5260045260245ffd5b6001600160a01b0316908115611bde575b610c93916001916001600160a01b0316908115611bc6575b5f908152600960205260408082205492825290205460a083901b8390039081169116611790565b611bd7611bd284611c32565b611ccf565b5050611b9f565b611be86001611c32565b91611bf24361159f565b92611bfd600b611380565b6001600160d01b0391821690821601929083116105fc57610c9393600193611c2691600b611e3e565b90505091509150611b87565b6001600160d01b038111611c4c576001600160d01b031690565b6306dfcc6560e41b5f5260d060045260245260445ffd5b90611c6d4361159f565b90611c7783611380565b6001600160d01b0391821690821603919082116105fc57611c9792611e3e565b9091565b90611ca54361159f565b90611caf83611380565b6001600160d01b0391821690821601919082116105fc57611c9792611e3e565b611cd84361159f565b90611ce3600b611380565b6001600160d01b03918216908216039081116105fc57611c9791600b611e3e565b909190611d226001600160a01b0384168015159081611d6a57501590565b611d2b57505050565b6001600160a01b0316611d4a57637e27328960e01b5f5260045260245ffd5b63177e802f60e01b5f526001600160a01b0390911660045260245260445ffd5b6001600160a01b03841680821492508215611daa575b508115611d8c57501590565b5f858152600460205260409020546001600160a01b03161415919050565b9091505f52600560205260ff611dd38660405f209060018060a01b03165f5260205260405f2090565b5416905f611d80565b908154600160401b811015610c7f5760018101808455811015611e2a575f9283526020928390208251929093015160301b65ffffffffffff191665ffffffffffff9290921691909117910155565b634e487b7160e01b5f52603260045260245ffd5b80549293928015611eea57611e55611e60916112ca565b825f5260205f200190565b8054603081901c9365ffffffffffff91821692918116808411611edb57879303611ea75750611ea392509065ffffffffffff82549181199060301b169116179055565b9190565b915050611ea391611ec7611eb9610c84565b65ffffffffffff9093168352565b6001600160d01b0386166020830152611ddc565b632520601d60e01b5f5260045ffd5b5090611f0f91611efb611eb9610c84565b6001600160d01b0385166020830152611ddc565b5f919056fea26469706673582212209bfa75c08a6dae6cb91c8c0639938e8c856d97240472f5738234e978dc11c22b64736f6c634300081c0033","linkReferences":{}},"methodIdentifiers":{"CLOCK_MODE()":"4bf5d7e9","approve(address,uint256)":"095ea7b3","balanceOf(address)":"70a08231","clock()":"91ddadf4","delegate(address)":"5c19a95c","delegateBySig(address,uint256,uint256,uint8,bytes32,bytes32)":"c3cda520","delegates(address)":"587cde1e","eip712Domain()":"84b0196e","getApproved(uint256)":"081812fc","getPastTotalSupply(uint256)":"8e539e8c","getPastVotes(address,uint256)":"3a46b1a8","getVotes(address)":"9ab24eb0","isApprovedForAll(address,address)":"e985e9c5","mint(address)":"6a627842","name()":"06fdde03","nonces(address)":"7ecebe00","owner()":"8da5cb5b","ownerOf(uint256)":"6352211e","renounceOwnership()":"715018a6","safeTransferFrom(address,address,uint256)":"42842e0e","safeTransferFrom(address,address,uint256,bytes)":"b88d4fde","setApprovalForAll(address,bool)":"a22cb465","supportsInterface(bytes4)":"01ffc9a7","symbol()":"95d89b41","tokenURI(uint256)":"c87b56dd","transferFrom(address,address,uint256)":"23b872dd","transferOwnership(address)":"f2fde38b"},"id":76}