{"abi":[{"type":"constructor","inputs":[{"name":"_governor","type":"address","internalType":"address"}],"stateMutability":"nonpayable"},{"type":"function","name":"evaluate","inputs":[{"name":"proposalId","type":"uint256","internalType":"uint256"},{"name":"strategy","type":"uint8","internalType":"enum MultipleChoiceEvaluator.EvaluationStrategy"}],"outputs":[{"name":"winningOption","type":"uint256","internalType":"uint256"}],"stateMutability":"view"},{"type":"function","name":"evaluate","inputs":[{"name":"proposalId","type":"uint256","internalType":"uint256"}],"outputs":[{"name":"winningOption","type":"uint256","internalType":"uint256"}],"stateMutability":"view"},{"type":"function","name":"evaluationStrategy","inputs":[],"outputs":[{"name":"","type":"uint8","internalType":"enum MultipleChoiceEvaluator.EvaluationStrategy"}],"stateMutability":"view"},{"type":"function","name":"governor","inputs":[],"outputs":[{"name":"","type":"address","internalType":"contract IMultipleChoiceGovernor"}],"stateMutability":"view"},{"type":"function","name":"owner","inputs":[],"outputs":[{"name":"","type":"address","internalType":"address"}],"stateMutability":"view"},{"type":"function","name":"renounceOwnership","inputs":[],"outputs":[],"stateMutability":"nonpayable"},{"type":"function","name":"setEvaluationStrategy","inputs":[{"name":"_strategy","type":"uint8","internalType":"enum MultipleChoiceEvaluator.EvaluationStrategy"}],"outputs":[],"stateMutability":"nonpayable"},{"type":"function","name":"transferOwnership","inputs":[{"name":"newOwner","type":"address","internalType":"address"}],"outputs":[],"stateMutability":"nonpayable"},{"type":"function","name":"updateGovernor","inputs":[{"name":"_newGovernor","type":"address","internalType":"address"}],"outputs":[],"stateMutability":"nonpayable"},{"type":"event","name":"EvaluationStrategySet","inputs":[{"name":"newStrategy","type":"uint8","indexed":false,"internalType":"enum MultipleChoiceEvaluator.EvaluationStrategy"}],"anonymous":false},{"type":"event","name":"GovernorUpdated","inputs":[{"name":"newGovernor","type":"address","indexed":false,"internalType":"address"}],"anonymous":false},{"type":"event","name":"OwnershipTransferred","inputs":[{"name":"previousOwner","type":"address","indexed":true,"internalType":"address"},{"name":"newOwner","type":"address","indexed":true,"internalType":"address"}],"anonymous":false},{"type":"error","name":"OwnableInvalidOwner","inputs":[{"name":"owner","type":"address","internalType":"address"}]},{"type":"error","name":"OwnableUnauthorizedAccount","inputs":[{"name":"account","type":"address","internalType":"address"}]}],"bytecode":{"object":"0x60803460cd57601f61073d38819003918201601f19168301916001600160401b0383118484101760d15780849260209460405283398101031260cd57516001600160a01b0381169081900360cd57331560ba575f8054336001600160a01b0319821681178355604051939290916001600160a01b0316907f8be0079c531659141344cd1fd0a4f28419497f9722a3daafe3b4186f6b6457e09080a3600180546001600160a81b03191691909117905561065790816100e68239f35b631e4fbdf760e01b5f525f60045260245ffd5b5f80fd5b634e487b7160e01b5f52604160045260245ffdfe6080806040526004361015610012575f80fd5b5f3560e01c9081630c340a241461035757508063282fe5fb1461032c57806337143233146102fd5780634df6d1501461022357806362f384ad146101b6578063715018a61461015f5780638da5cb5b14610138578063a69240841461010c5763f2fde38b1461007f575f80fd5b34610108576020366003190112610108576004356001600160a01b03811690819003610108576100ad61054e565b80156100f5575f80546001600160a01b03198116831782556001600160a01b0316907f8be0079c531659141344cd1fd0a4f28419497f9722a3daafe3b4186f6b6457e09080a3005b631e4fbdf760e01b5f525f60045260245ffd5b5f80fd5b34610108575f3660031901126101085761013460ff60015460a01c166040519182918261037a565b0390f35b34610108575f366003190112610108575f546040516001600160a01b039091168152602090f35b34610108575f3660031901126101085761017761054e565b5f80546001600160a01b0319811682556001600160a01b03167f8be0079c531659141344cd1fd0a4f28419497f9722a3daafe3b4186f6b6457e08280a3005b34610108576020366003190112610108576004356001600160a01b038116908190036101085760207f386c8d5fb4be6c928b7de4c7ae0a4b2ad0d2b2a7edad65d9f0af9ba255e512199161020861054e565b600180546001600160a01b03191682179055604051908152a1005b346101085760203660031901126101085760043560028110156101085761024861054e565b600160ff8216116102a2576001805460ff60a01b191660a083901b60ff60a01b161790556040517ff589e2d23250694c80e71d14df17250fb01c3c52aa22551f3b5903609954a89a91819061029d908261037a565b0390a1005b60405162461bcd60e51b815260206004820152602d60248201527f4d756c7469706c6543686f6963654576616c7561746f723a20756e737570706f60448201526c7274656420737472617465677960981b6064820152608490fd5b3461010857602036600319011261010857602061032460ff60015460a01c166004356103d7565b604051908152f35b34610108576040366003190112610108576024356002811015610108576103246020916004356103d7565b34610108575f366003190112610108576001546001600160a01b03168152602090f35b91906020830192600282101561038d5752565b634e487b7160e01b5f52602160045260245ffd5b90601f8019910116810190811067ffffffffffffffff8211176103c357604052565b634e487b7160e01b5f52604160045260245ffd5b905f60018060a01b036001541692602460405180958193632c80286560e01b835260048301525afa918215610543575f926104a5575b50815160021981019190821161047e57600281101561038d578061049257505f918291825b818410610440575050505090565b90919293846003018060031161047e5761045a9085610574565b5191808311156104735750506001845b01929190610432565b91509360019061046a565b634e487b7160e01b5f52601160045260245ffd5b6001036102a2576104a29161059c565b90565b9091503d805f833e6104b781836103a1565b8101906020818303126101085780519067ffffffffffffffff821161010857019080601f830112156101085781519167ffffffffffffffff83116103c3578260051b906040519361050b60208401866103a1565b845260208085019282010192831161010857602001905b82821061053357505050905f61040d565b8151815260209182019101610522565b6040513d5f823e3d90fd5b5f546001600160a01b0316330361056157565b63118cdaa760e01b5f523360045260245ffd5b80518210156105885760209160051b010190565b634e487b7160e01b5f52603260045260245ffd5b5f5f5b8381106105f7575080156105ef5760011c905f5b8381106105c357505050505f1990565b806003018060031161047e576105da849184610574565b51116105e8576001016105b3565b9250505090565b5050505f1990565b90816003018060031161047e5761060e9084610574565b51810180911161047e579060010161059f56fea2646970667358221220a327487164ffd9eaee83dc082f92471c2cb35622702d6235fd07739c76ec661a64736f6c634300081c0033","linkReferences":{}},"methodIdentifiers":{"evaluate(uint256)":"37143233","evaluate(uint256,uint8)":"282fe5fb","evaluationStrategy()":"a6924084","governor()":"0c340a24","owner()":"8da5cb5b","renounceOwnership()":"715018a6","setEvaluationStrategy(uint8)":"4df6d150","transferOwnership(address)":"f2fde38b","updateGovernor(address)":"62f384ad"},"id":71}