{"abi":[{"type":"constructor","inputs":[{"name":"_governor","type":"address","internalType":"address"},{"name":"_timelock","type":"address","internalType":"address"},{"name":"_initialOwner","type":"address","internalType":"address"}],"stateMutability":"nonpayable"},{"type":"receive","stateMutability":"payable"},{"type":"function","name":"distribute","inputs":[{"name":"proposalId","type":"uint256","internalType":"uint256"},{"name":"topN","type":"uint8","internalType":"uint8"},{"name":"recipientsByOptionIndex","type":"address[]","internalType":"address[]"}],"outputs":[],"stateMutability":"nonpayable"},{"type":"function","name":"governorCM","inputs":[],"outputs":[{"name":"","type":"address","internalType":"contract GovernorCountingMultipleChoice"}],"stateMutability":"view"},{"type":"function","name":"owner","inputs":[],"outputs":[{"name":"","type":"address","internalType":"address"}],"stateMutability":"view"},{"type":"function","name":"renounceOwnership","inputs":[],"outputs":[],"stateMutability":"nonpayable"},{"type":"function","name":"timelock","inputs":[],"outputs":[{"name":"","type":"address","internalType":"address"}],"stateMutability":"view"},{"type":"function","name":"transferOwnership","inputs":[{"name":"newOwner","type":"address","internalType":"address"}],"outputs":[],"stateMutability":"nonpayable"},{"type":"event","name":"FundsDistributed","inputs":[{"name":"proposalId","type":"uint256","indexed":true,"internalType":"uint256"},{"name":"recipients","type":"address[]","indexed":false,"internalType":"address[]"},{"name":"amountPerRecipient","type":"uint256","indexed":false,"internalType":"uint256"}],"anonymous":false},{"type":"event","name":"OwnershipTransferred","inputs":[{"name":"previousOwner","type":"address","indexed":true,"internalType":"address"},{"name":"newOwner","type":"address","indexed":true,"internalType":"address"}],"anonymous":false},{"type":"error","name":"FundingDistributor__InvalidProposalState","inputs":[{"name":"proposalId","type":"uint256","internalType":"uint256"},{"name":"currentState","type":"uint8","internalType":"enum IGovernor.ProposalState"}]},{"type":"error","name":"FundingDistributor__InvalidTopN","inputs":[{"name":"topN","type":"uint8","internalType":"uint8"},{"name":"optionCount","type":"uint8","internalType":"uint8"}]},{"type":"error","name":"FundingDistributor__NoWinners","inputs":[{"name":"proposalId","type":"uint256","internalType":"uint256"}]},{"type":"error","name":"FundingDistributor__RecipientArrayLengthMismatch","inputs":[{"name":"proposalId","type":"uint256","internalType":"uint256"},{"name":"expectedLength","type":"uint8","internalType":"uint8"},{"name":"actualLength","type":"uint256","internalType":"uint256"}]},{"type":"error","name":"FundingDistributor__TransferFailed","inputs":[{"name":"recipient","type":"address","internalType":"address"},{"name":"amount","type":"uint256","internalType":"uint256"}]},{"type":"error","name":"FundingDistributor__UnauthorizedCaller","inputs":[{"name":"caller","type":"address","internalType":"address"}]},{"type":"error","name":"OwnableInvalidOwner","inputs":[{"name":"owner","type":"address","internalType":"address"}]},{"type":"error","name":"OwnableUnauthorizedAccount","inputs":[{"name":"account","type":"address","internalType":"address"}]}],"bytecode":{"object":"0x60c0346101d157601f6115e638819003918201601f19168301916001600160401b038311848410176101d5578084926060946040528339810103126101d157610047816101e9565b610053602083016101e9565b916001600160a01b0390610069906040016101e9565b169081156101be575f80546001600160a01b031981168417825560405193916001600160a01b03909116907f8be0079c531659141344cd1fd0a4f28419497f9722a3daafe3b4186f6b6457e09080a36001600160a01b031690811561016757506001600160a01b0382161561010d5760805260a0526040516113e890816101fe82396080518181816102770152610bd2015260a0518181816102330152610b760152f35b60405162461bcd60e51b815260206004820152602c60248201527f46756e64696e674469737472696275746f723a20696e76616c69642074696d6560448201526b6c6f636b206164647265737360a01b6064820152608490fd5b62461bcd60e51b815260206004820152602c60248201527f46756e64696e674469737472696275746f723a20696e76616c696420676f766560448201526b726e6f72206164647265737360a01b6064820152608490fd5b631e4fbdf760e01b5f525f60045260245ffd5b5f80fd5b634e487b7160e01b5f52604160045260245ffd5b51906001600160a01b03821682036101d15756fe6080604052600436101561001a575b3615610018575f80fd5b005b5f3560e01c80631c9cd7f614610079578063715018a6146100745780638da5cb5b1461006f578063d33219b41461006a578063d8a7b567146100655763f2fde38b0361000e576102a6565b610262565b61021e565b6101f7565b6101a0565b34610119576060366003190112610119576024356100968161011d565b60443567ffffffffffffffff81116101195736602382011215610119578060040135916100c283610174565b916100d0604051938461013c565b8383526024602084019460051b8201019036821161011957602401935b818510610101576100188484600435610b60565b6020809161010e8761018c565b8152019401936100ed565b5f80fd5b60ff81160361011957565b634e487b7160e01b5f52604160045260245ffd5b90601f8019910116810190811067ffffffffffffffff82111761015e57604052565b610128565b6040519061017260408361013c565b565b67ffffffffffffffff811161015e5760051b60200190565b35906001600160a01b038216820361011957565b34610119575f366003190112610119576101b8611372565b5f80546001600160a01b0319811682556001600160a01b03167f8be0079c531659141344cd1fd0a4f28419497f9722a3daafe3b4186f6b6457e08280a3005b34610119575f366003190112610119575f546040516001600160a01b039091168152602090f35b34610119575f366003190112610119576040517f00000000000000000000000000000000000000000000000000000000000000006001600160a01b03168152602090f35b34610119575f366003190112610119576040517f00000000000000000000000000000000000000000000000000000000000000006001600160a01b03168152602090f35b34610119576020366003190112610119576004356001600160a01b03811690819003610119576102d4611372565b801561031c575f80546001600160a01b03198116831782556001600160a01b0316907f8be0079c531659141344cd1fd0a4f28419497f9722a3daafe3b4186f6b6457e09080a3005b631e4fbdf760e01b5f525f60045260245ffd5b67ffffffffffffffff811161015e57601f01601f191660200190565b6040519061035a60408361013c565b601e82527f446973747269627574652063616c6c65642e2050726f706f73616c49643a00006020830152565b6040519061039560408361013c565b601982527f43616c6c65722076616c69646174696f6e207061737365642e000000000000006020830152565b90816020910312610119575160088110156101195790565b6040513d5f823e3d90fd5b600811156103ee57565b634e487b7160e01b5f52602160045260245ffd5b6004526044919060088110156103ee57602452565b6040519061042660608361013c565b60218252601760f91b6040837f50726f706f73616c2073746174652076616c69646174696f6e2070617373656460208201520152565b51906101728261011d565b919060408382031261011957825167ffffffffffffffff81116101195783019080601f830112156101195781519161049e83610174565b926104ac604051948561013c565b80845260208085019160051b830101918383116101195760208101915b8383106104e557505050505060206104e291930161045c565b90565b825167ffffffffffffffff811161011957820185603f82011215610119576020810151916105128361032f565b61051f604051918261013c565b8381526040838501018810610119575f602085819660408397018386015e830101528152019201916104c9565b6040519061055b60608361013c565b602982526837103830b9b9b2b21760b91b6040837f526563697069656e74206172726179206c656e6774682076616c69646174696f60208201520152565b604051906105a860408361013c565b601782527f746f704e2076616c69646174696f6e207061737365642e0000000000000000006020830152565b906105de82610174565b6105eb604051918261013c565b82815280926105fc601f1991610174565b015f5b81811061060b57505050565b60405190604082019180831067ffffffffffffffff84111761015e576020926040525f81525f83820152828286010152016105ff565b90816020910312610119575190565b80518210156106645760209160051b010190565b634e487b7160e01b5f52603260045260245ffd5b6040519061068760408361013c565b60158252742332ba31b432b21037b83a34b7b7103b37ba32b99760591b6020830152565b604051906106ba60408361013c565b601b82527f5374617274696e6720736f72742e204f7074696f6e436f756e743a00000000006020830152565b634e487b7160e01b5f52601160045260245ffd5b60ff60019116019060ff821161070c57565b6106e6565b6040519061072060408361013c565b600e82526d29b7b93a103334b734b9b432b21760911b6020830152565b60ff5f199116019060ff821161070c57565b6040519061075e60408361013c565b601c82527f43616c63756c6174696e67207468726573686f6c642e20746f704e3a000000006020830152565b6040519061079960408361013c565b601082526f20b1b1b2b9b9b4b7339034b73232bc1d60811b6020830152565b604051906107c760408361013c565b600f82526e2b37ba32903a343932b9b437b6321d60891b6020830152565b906107ef82610174565b6107fc604051918261013c565b828152809261080d601f1991610174565b0190602036910137565b5f19811461070c5760010190565b6040519061083460408361013c565b60148252732bb4b73732b91031b432b1b5903830b9b9b2b21760611b6020830152565b8115610861570490565b634e487b7160e01b5f52601260045260245ffd5b6040519061088460408361013c565b602082527f43616c63756c6174656420616d6f756e742070657220726563697069656e743a6020830152565b604051906108bf60608361013c565b603282527134b7339030b732103932ba3ab93734b7339760711b6040837f416d6f756e742070657220726563697069656e7420697320302c20656d69747460208201520152565b90602080835192838152019201905f5b8181106109235750505090565b82516001600160a01b0316845260209384019390920191600101610916565b919060206109595f92604086526040860190610906565b930152565b6040519061096d60408361013c565b602082527f5374617274696e672066756e6420646973747269627574696f6e206c6f6f702e6020830152565b604051906109a860408361013c565b6012825271105d1d195b5c1d1a5b99c81d1bc81cd95b9960721b6020830152565b604051906109d860408361013c565b6002825261746f60f01b6020830152565b3d15610a13573d906109fa8261032f565b91610a08604051938461013c565b82523d5f602084013e565b606090565b60405190610a2760408361013c565b601e82527f5472616e73666572204641494c454420666f7220726563697069656e743a00006020830152565b60405190610a6260608361013c565b60218252601d60f91b6040837f5472616e736665722053554343454544454420666f7220726563697069656e7460208201520152565b60405190610aa760408361013c565b602082527f46756e6420646973747269627574696f6e206c6f6f702066696e69736865642e6020830152565b60405190610ae260408361013c565b602082527f456d697474696e672046756e64734469737472696275746564206576656e742e6020830152565b929190610959602091604086526040860190610906565b60405190610b3460408361013c565b601f82527f46756e64734469737472696275746564206576656e7420656d69747465642e006020830152565b929092610b7481610b6f61034b565b6111f0565b7f00000000000000000000000000000000000000000000000000000000000000006001600160a01b031633036111b957610bb4610baf610386565b611238565b604051631f27a4f360e11b8152600481018290526001600160a01b037f0000000000000000000000000000000000000000000000000000000000000000169190602081602481865afa908115610d4e575f9161118a575b50610c15816103e4565b600481141580611176575b6111635750610c30610baf610417565b604051635d76384160e01b815260048101829052945f86602481865afa958615610d4e575f9661113d575b5084519560ff81169687810361111e5750610c77610baf61054c565b60ff8216908115611103578782116111035750610c95610baf610599565b610c9e876105d4565b965f5b60ff81169082821015610d535760405163a2b211f360e01b81526004810187905260ff82166024820152906020826044818b5afa8015610d4e57838c610d149260ff966001965f92610d1c575b50610d0d9192610cfc610163565b60ff88168152936020850152610650565b528c610650565b500116610ca1565b610d0d9250610d419060203d8111610d47575b610d39818361013c565b810190610641565b91610cee565b503d610d2f565b6103d9565b505094959190969350610d67610baf610678565b610d7385610b6f6106ab565b5f965b60ff88169686881015610e2a57610d8c896106fa565b60ff811688811015610e185760ff9188828c6020610dac60019685610650565b5101516020610dbb8386610650565b51015110610dce575b5050500116610d8c565b610dfd610dde82610e0f95610650565b51918d610df682610def8784610650565b5192610650565b528d610650565b50610e08828d610650565b528a610650565b50885f8c610dc4565b5050600190980160ff16979650610d76565b9650602092949750610e77610e8392610e72610e7d93989698610e4e610baf610711565b610e578361073d565b610e5f61074f565b9160ff610e6a61078a565b921692611274565b61073d565b60ff1690565b87610650565b51015194610e9386610b6f6107b8565b610e9c826107e5565b945f945f5b60ff8116858110156110f557896020610eba8388610650565b5101511015806110de575b15610f4c57610eee610ee8610e77610ee0610efb9489610650565b515160ff1690565b88610650565b516001600160a01b031690565b886001600160a01b038216610f18575b505060010160ff16610ea1565b88610f3e600193610f2f60ff969c610f4395610650565b6001600160a01b039091169052565b610817565b97915088610f0b565b5050959350955050505b81815281156110ca57610f6a610baf610825565b610f748247610857565b91610f8183610b6f610875565b821561108657610f92610baf61095e565b5f5b818110610ff3575050907f8312a052e2e4f128c069e3cd8d0caa2e18e4c860162617a0505503fadf67d4a891610fcb610baf610a98565b610fd6610baf610ad3565b610fe560405192839283610b0e565b0390a2610172610baf610b25565b611000610eee8285610650565b61101b8161100c610999565b876110156109c9565b916112d2565b5f808080886001600160a01b0386165af16110346109e9565b5015611054579061104e600192611049610a53565b611324565b01610f94565b848161106561108393611049610a18565b6304d06ee760e21b5f526001600160a01b0316600452602452604490565b5ffd5b507f8312a052e2e4f128c069e3cd8d0caa2e18e4c860162617a0505503fadf67d4a891506110c5906110b9610baf6108b0565b60405191829182610942565b0390a2565b63dc276d9360e01b5f52600483905260245ffd5b5060206110eb8287610650565b5101511515610ec5565b505095935095505050610f56565b632786fc8360e11b5f5260ff8084166004521660245260445ffd5b6312d1414b60e11b5f52600484905260ff90911660245260445260645ffd5b61115a9196503d805f833e611152818361013c565b810190610467565b9050945f610c5b565b634e0342bb60e11b5f5261108391610402565b50611180816103e4565b6007811415610c20565b6111ac915060203d6020116111b2575b6111a4818361013c565b8101906103c1565b5f610c0b565b503d61119a565b63058bf0e360e41b5f523360045260245ffd5b805180835260209291819084018484015e5f828201840152601f01601f1916010190565b61123361121f9161017293604051938492632d839cb360e21b60208501526040602485015260648401906111cc565b90604483015203601f19810183528261013c565b611398565b6112666112336101729260405192839163104c13eb60e21b60208401526020602484015260448301906111cc565b03601f19810183528261013c565b610172936112be611233936112a79560405196879563c67ea9d160e01b60208801526080602488015260a48701906111cc565b9160448601526023198583030160648601526111cc565b90608483015203601f19810183528261013c565b61017293611305611233936112a795604051968795631f118ca960e21b60208801526080602488015260a48701906111cc565b6001600160a01b0391909116608483015203601f19810183528261013c565b611233611353916101729360405193849263319af33360e01b60208501526040602485015260648401906111cc565b6001600160a01b0391909116604483015203601f19810183528261013c565b5f546001600160a01b0316330361138557565b63118cdaa760e01b5f523360045260245ffd5b5f80916020815191016a636f6e736f6c652e6c6f675afa5056fea264697066735822122046cd608e5d972c4b99e9e45d2a3cf13f6d2ca434ad3fd955bc3018a30dd9c76664736f6c634300081c0033","linkReferences":{}},"methodIdentifiers":{"distribute(uint256,uint8,address[])":"1c9cd7f6","governorCM()":"d8a7b567","owner()":"8da5cb5b","renounceOwnership()":"715018a6","timelock()":"d33219b4","transferOwnership(address)":"f2fde38b"},"id":67}