{"abi":[{"type":"constructor","inputs":[{"name":"_governor","type":"address","internalType":"address"},{"name":"_timelock","type":"address","internalType":"address"},{"name":"_initialOwner","type":"address","internalType":"address"}],"stateMutability":"nonpayable"},{"type":"receive","stateMutability":"payable"},{"type":"function","name":"distribute","inputs":[{"name":"proposalId","type":"uint256","internalType":"uint256"},{"name":"topN","type":"uint8","internalType":"uint8"},{"name":"recipientsByOptionIndex","type":"address[]","internalType":"address[]"}],"outputs":[],"stateMutability":"nonpayable"},{"type":"function","name":"governorCM","inputs":[],"outputs":[{"name":"","type":"address","internalType":"contract GovernorCountingMultipleChoice"}],"stateMutability":"view"},{"type":"function","name":"owner","inputs":[],"outputs":[{"name":"","type":"address","internalType":"address"}],"stateMutability":"view"},{"type":"function","name":"renounceOwnership","inputs":[],"outputs":[],"stateMutability":"nonpayable"},{"type":"function","name":"timelock","inputs":[],"outputs":[{"name":"","type":"address","internalType":"address"}],"stateMutability":"view"},{"type":"function","name":"transferOwnership","inputs":[{"name":"newOwner","type":"address","internalType":"address"}],"outputs":[],"stateMutability":"nonpayable"},{"type":"event","name":"FundsDistributed","inputs":[{"name":"proposalId","type":"uint256","indexed":true,"internalType":"uint256"},{"name":"recipients","type":"address[]","indexed":false,"internalType":"address[]"},{"name":"amountPerRecipient","type":"uint256","indexed":false,"internalType":"uint256"}],"anonymous":false},{"type":"event","name":"OwnershipTransferred","inputs":[{"name":"previousOwner","type":"address","indexed":true,"internalType":"address"},{"name":"newOwner","type":"address","indexed":true,"internalType":"address"}],"anonymous":false},{"type":"error","name":"FundingDistributor__InvalidProposalState","inputs":[{"name":"proposalId","type":"uint256","internalType":"uint256"},{"name":"currentState","type":"uint8","internalType":"enum IGovernor.ProposalState"}]},{"type":"error","name":"FundingDistributor__InvalidTopN","inputs":[{"name":"topN","type":"uint8","internalType":"uint8"},{"name":"optionCount","type":"uint8","internalType":"uint8"}]},{"type":"error","name":"FundingDistributor__NoWinners","inputs":[{"name":"proposalId","type":"uint256","internalType":"uint256"}]},{"type":"error","name":"FundingDistributor__RecipientArrayLengthMismatch","inputs":[{"name":"proposalId","type":"uint256","internalType":"uint256"},{"name":"expectedLength","type":"uint8","internalType":"uint8"},{"name":"actualLength","type":"uint256","internalType":"uint256"}]},{"type":"error","name":"FundingDistributor__TransferFailed","inputs":[{"name":"recipient","type":"address","internalType":"address"},{"name":"amount","type":"uint256","internalType":"uint256"}]},{"type":"error","name":"FundingDistributor__UnauthorizedCaller","inputs":[{"name":"caller","type":"address","internalType":"address"}]},{"type":"error","name":"OwnableInvalidOwner","inputs":[{"name":"owner","type":"address","internalType":"address"}]},{"type":"error","name":"OwnableUnauthorizedAccount","inputs":[{"name":"account","type":"address","internalType":"address"}]}],"bytecode":{"object":"0x60c0346101d157601f61146338819003918201601f19168301916001600160401b038311848410176101d5578084926060946040528339810103126101d157610047816101e9565b610053602083016101e9565b916001600160a01b0390610069906040016101e9565b169081156101be575f80546001600160a01b031981168417825560405193916001600160a01b03909116907f8be0079c531659141344cd1fd0a4f28419497f9722a3daafe3b4186f6b6457e09080a36001600160a01b031690811561016757506001600160a01b0382161561010d5760805260a05260405161126590816101fe82396080518181816102770152610ad6015260a0518181816102330152610a7a0152f35b60405162461bcd60e51b815260206004820152602c60248201527f46756e64696e674469737472696275746f723a20696e76616c69642074696d6560448201526b6c6f636b206164647265737360a01b6064820152608490fd5b62461bcd60e51b815260206004820152602c60248201527f46756e64696e674469737472696275746f723a20696e76616c696420676f766560448201526b726e6f72206164647265737360a01b6064820152608490fd5b631e4fbdf760e01b5f525f60045260245ffd5b5f80fd5b634e487b7160e01b5f52604160045260245ffd5b51906001600160a01b03821682036101d15756fe6080604052600436101561001a575b3615610018575f80fd5b005b5f3560e01c80631c9cd7f614610079578063715018a6146100745780638da5cb5b1461006f578063d33219b41461006a578063d8a7b567146100655763f2fde38b0361000e576102a6565b610262565b61021e565b6101f7565b6101a0565b34610119576060366003190112610119576024356100968161011d565b60443567ffffffffffffffff81116101195736602382011215610119578060040135916100c283610174565b916100d0604051938461013c565b8383526024602084019460051b8201019036821161011957602401935b818510610101576100188484600435610a63565b6020809161010e8761018c565b8152019401936100ed565b5f80fd5b60ff81160361011957565b634e487b7160e01b5f52604160045260245ffd5b90601f8019910116810190811067ffffffffffffffff82111761015e57604052565b610128565b6040519061017260408361013c565b565b67ffffffffffffffff811161015e5760051b60200190565b35906001600160a01b038216820361011957565b34610119575f366003190112610119576101b86111ef565b5f80546001600160a01b0319811682556001600160a01b03167f8be0079c531659141344cd1fd0a4f28419497f9722a3daafe3b4186f6b6457e08280a3005b34610119575f366003190112610119575f546040516001600160a01b039091168152602090f35b34610119575f366003190112610119576040517f00000000000000000000000000000000000000000000000000000000000000006001600160a01b03168152602090f35b34610119575f366003190112610119576040517f00000000000000000000000000000000000000000000000000000000000000006001600160a01b03168152602090f35b34610119576020366003190112610119576004356001600160a01b03811690819003610119576102d46111ef565b801561031c575f80546001600160a01b03198116831782556001600160a01b0316907f8be0079c531659141344cd1fd0a4f28419497f9722a3daafe3b4186f6b6457e09080a3005b631e4fbdf760e01b5f525f60045260245ffd5b67ffffffffffffffff811161015e57601f01601f191660200190565b6040519061035a60408361013c565b601e82527f446973747269627574652063616c6c65642e2050726f706f73616c49643a00006020830152565b6040519061039560408361013c565b601982527f43616c6c65722076616c69646174696f6e207061737365642e000000000000006020830152565b90816020910312610119575160088110156101195790565b6040513d5f823e3d90fd5b600811156103ee57565b634e487b7160e01b5f52602160045260245ffd5b6004526044919060088110156103ee57602452565b6040519061042660608361013c565b60218252601760f91b6040837f50726f706f73616c2073746174652076616c69646174696f6e2070617373656460208201520152565b51906101728261011d565b919060408382031261011957825167ffffffffffffffff81116101195783019080601f830112156101195781519161049e83610174565b926104ac604051948561013c565b80845260208085019160051b830101918383116101195760208101915b8383106104e557505050505060206104e291930161045c565b90565b825167ffffffffffffffff811161011957820185603f82011215610119576020810151916105128361032f565b61051f604051918261013c565b8381526040838501018810610119575f602085819660408397018386015e830101528152019201916104c9565b6040519061055b60608361013c565b602982526837103830b9b9b2b21760b91b6040837f526563697069656e74206172726179206c656e6774682076616c69646174696f60208201520152565b604051906105a860408361013c565b601782527f746f704e2076616c69646174696f6e207061737365642e0000000000000000006020830152565b906105de82610174565b6105eb604051918261013c565b82815280926105fc601f1991610174565b015f5b81811061060b57505050565b60405190604082019180831067ffffffffffffffff84111761015e576020926040525f81525f83820152828286010152016105ff565b90816020910312610119575190565b80518210156106645760209160051b010190565b634e487b7160e01b5f52603260045260245ffd5b6040519061068760408361013c565b60158252742332ba31b432b21037b83a34b7b7103b37ba32b99760591b6020830152565b634e487b7160e01b5f52601160045260245ffd5b60ff60019116019060ff82116106d157565b6106ab565b60ff5f199116019060ff82116106d157565b906106f282610174565b6106ff604051918261013c565b8281528092610710601f1991610174565b0190602036910137565b5f1981146106d15760010190565b6040519061073760408361013c565b60148252732bb4b73732b91031b432b1b5903830b9b9b2b21760611b6020830152565b8115610764570490565b634e487b7160e01b5f52601260045260245ffd5b6040519061078760408361013c565b602082527f43616c63756c6174656420616d6f756e742070657220726563697069656e743a6020830152565b604051906107c260608361013c565b603282527134b7339030b732103932ba3ab93734b7339760711b6040837f416d6f756e742070657220726563697069656e7420697320302c20656d69747460208201520152565b90602080835192838152019201905f5b8181106108265750505090565b82516001600160a01b0316845260209384019390920191600101610819565b9190602061085c5f92604086526040860190610809565b930152565b6040519061087060408361013c565b602082527f5374617274696e672066756e6420646973747269627574696f6e206c6f6f702e6020830152565b604051906108ab60408361013c565b6012825271105d1d195b5c1d1a5b99c81d1bc81cd95b9960721b6020830152565b604051906108db60408361013c565b6002825261746f60f01b6020830152565b3d15610916573d906108fd8261032f565b9161090b604051938461013c565b82523d5f602084013e565b606090565b6040519061092a60408361013c565b601e82527f5472616e73666572204641494c454420666f7220726563697069656e743a00006020830152565b6040519061096560608361013c565b60218252601d60f91b6040837f5472616e736665722053554343454544454420666f7220726563697069656e7460208201520152565b604051906109aa60408361013c565b602082527f46756e6420646973747269627574696f6e206c6f6f702066696e69736865642e6020830152565b604051906109e560408361013c565b602082527f456d697474696e672046756e64734469737472696275746564206576656e742e6020830152565b92919061085c602091604086526040860190610809565b60405190610a3760408361013c565b601f82527f46756e64734469737472696275746564206576656e7420656d69747465642e006020830152565b92919092610a7881610a7361034b565b6110b4565b7f00000000000000000000000000000000000000000000000000000000000000006001600160a01b0316330361107d57610ab8610ab3610386565b6110fc565b604051631f27a4f360e11b8152600481018290526001600160a01b037f0000000000000000000000000000000000000000000000000000000000000000169190602081602481865afa908115610c55575f9161104e575b50610b19816103e4565b60048114158061103a575b6110275750610b34610ab3610417565b604051635d76384160e01b815260048101829052925f84602481865afa938415610c55575f94611001575b5080519360ff811694858103610fe25750610b7b610ab361054c565b60ff8716858115918215610fd8575b5050610fbd5750610b9c610ab3610599565b610ba5846105d4565b955f5b60ff81169086821015610c5a5760405163a2b211f360e01b81526004810186905260ff82166024820152906020826044818a5afa8015610c5557838b610c1b9260ff966001965f92610c23575b50610c149192610c03610163565b60ff88168152936020850152610650565b528b610650565b500116610ba8565b610c149250610c489060203d8111610c4e575b610c40818361013c565b810190610641565b91610bf5565b503d610c36565b6103d9565b50509392509390610c6c610ab3610678565b5f945b60ff86169484861015610d2457610c85876106bf565b8860ff821687811015610d11579181838a6020610ca660ff97600197610650565b5101516020610cb58386610650565b51015110610cc8575b5050500116610c85565b610d018284610cfb610cdd85610d0898610650565b5194610ce98484610650565b51610cf48285610650565b5282610650565b50610650565b528c610650565b508a5f8a610cbe565b505050945094600160ff91011694610c6f565b610d4991949396506020929550610d3d610d43916106d6565b60ff1690565b87610650565b51015194610d56826106e8565b945f945f5b60ff811685811015610faf57896020610d748388610650565b510151101580610f98575b15610e0657610da8610da2610d3d610d9a610db59489610650565b515160ff1690565b88610650565b516001600160a01b031690565b886001600160a01b038216610dd2575b505060010160ff16610d5b565b88610df8600193610de960ff969c610dfd95610650565b6001600160a01b039091169052565b61071a565b97915088610dc5565b5050959350955050505b8181528115610f8457610e24610ab3610728565b610e2e824761075a565b91610e3b83610a73610778565b8215610f4057610e4c610ab3610861565b5f5b818110610ead575050907f8312a052e2e4f128c069e3cd8d0caa2e18e4c860162617a0505503fadf67d4a891610e85610ab361099b565b610e90610ab36109d6565b610e9f60405192839283610a11565b0390a2610172610ab3610a28565b610eba610da88285610650565b610ed581610ec661089c565b87610ecf6108cc565b91611138565b5f808080886001600160a01b0386165af1610eee6108ec565b5015610f0e5790610f08600192610f03610956565b6111a1565b01610e4e565b8481610f1f610f3d93610f0361091b565b6304d06ee760e21b5f526001600160a01b0316600452602452604490565b5ffd5b507f8312a052e2e4f128c069e3cd8d0caa2e18e4c860162617a0505503fadf67d4a89150610f7f90610f73610ab36107b3565b60405191829182610845565b0390a2565b63dc276d9360e01b5f52600483905260245ffd5b506020610fa58287610650565b5101511515610d7f565b505095935095505050610e10565b632786fc8360e11b5f5260ff8088166004521660245260445ffd5b119050855f610b8a565b6312d1414b60e11b5f52600484905260ff90911660245260445260645ffd5b61101e9194503d805f833e611016818361013c565b810190610467565b9050925f610b5f565b634e0342bb60e11b5f52610f3d91610402565b50611044816103e4565b6007811415610b24565b611070915060203d602011611076575b611068818361013c565b8101906103c1565b5f610b0f565b503d61105e565b63058bf0e360e41b5f523360045260245ffd5b805180835260209291819084018484015e5f828201840152601f01601f1916010190565b6110f76110e39161017293604051938492632d839cb360e21b6020850152604060248501526064840190611090565b90604483015203601f19810183528261013c565b611215565b61112a6110f76101729260405192839163104c13eb60e21b6020840152602060248401526044830190611090565b03601f19810183528261013c565b610172936111826110f79361116b95604051968795631f118ca960e21b60208801526080602488015260a4870190611090565b916044860152602319858303016064860152611090565b6001600160a01b0391909116608483015203601f19810183528261013c565b6110f76111d0916101729360405193849263319af33360e01b6020850152604060248501526064840190611090565b6001600160a01b0391909116604483015203601f19810183528261013c565b5f546001600160a01b0316330361120257565b63118cdaa760e01b5f523360045260245ffd5b5f80916020815191016a636f6e736f6c652e6c6f675afa5056fea26469706673582212208da9ebe53229f57cccf2da3f4844ac4ef693bdd37cd7fde9cc8fe06f5c4ebc3564736f6c634300081c0033","linkReferences":{}},"methodIdentifiers":{"distribute(uint256,uint8,address[])":"1c9cd7f6","governorCM()":"d8a7b567","owner()":"8da5cb5b","renounceOwnership()":"715018a6","timelock()":"d33219b4","transferOwnership(address)":"f2fde38b"},"id":67}